:020000040800F2
:1000000000000220190D0108090B0108110B01085D
:10001000190B0108210B0108290B01080000000041
:1000200000000000000000000000000081AD010899
:10003000310B010800000000D1AF01087D820108EA
:10004000690D0108690D0108690D0108690D0108B4
:10005000690D0108690D0108690D0108690D0108A4
:10006000690D0108690D0108690D0108690D010894
:10007000410B0108690D0108550B0108690D0108C4
:10008000690B01087D0B0108910B0108690D01083E
:10009000690D0108690D0108690D0108690D010864
:1000A000690D0108690D0108690D0108690D010854
:1000B000A50B0108690D0108690D0108690D01080A
:1000C000690D0108B90B0108CD0B0108750C010879
:1000D000690D0108690D0108E10B0108F50B010824
:1000E000690D0108690D0108690D0108690D010814
:1000F000690D0108090C0108690D0108250C0108AA
:10010000690D0108690D0108690D0108690D0108F3
:10011000690D0108690D0108690D0108690D0108E3
:10012000390C0108690D01084D0C0108610C01082A
:10013000690D01080000000000000000690D0108C1
:10014000690D0108690D0108690D0108690D0108B3
:10015000690D0108690D0108690D0108690D0108A3
:10016000690D0108690D0108690D0108690D010893
:10017000690D0108690D0108000000000000000081
:08018000690D0108690D010879
:1001900010B5054C237833B9044B13B10448AFF3C1
:1001A00000800123237010BD6000002000000000CB
:1001B000A4D3010808B5034B1BB103490348AFF3AF
:1001C000008008BD0000000064000020A4D30108E6
:1001D000034613F8012B002AFBD1181A0138704787
:1001E00001F0FF01102A2BDB10F0070F08D010F8E8
:1001F000013B013A8B422DD010F0070F42B3F6D1EC
:10020000F0B441EA012141EA014122F007047FF004
:1002100000070023F0E80256083C85EA010586EA5B
:10022000010685FA47F5A3FA87F586FA47F6A5FA97
:1002300087F68EB9EED1F0BC01F0FF0102F00702A3
:1002400032B110F8013B013A83EA010313B1F8D14E
:100250000020704701387047002D06BF354603382F
:10026000073815F0010F07D1013015F4807F02BF68
:10027000013015F4C03F0130F0BC0138704700BFB9
:1002800081F0004102E000BF83F0004330B54FEA47
:1002900041044FEA430594EA050F08BF90EA020FB4
:1002A0001FBF54EA000C55EA020C7FEA645C7FEA47
:1002B000655C00F0E2804FEA5454D4EB5555B8BF6A
:1002C0006D420CDD2C4480EA020281EA030382EADB
:1002D000000083EA010180EA020281EA0303362D6D
:1002E00088BF30BD11F0004F4FEA01314FF4801C40
:1002F0004CEA113102D0404261EB410113F0004F52
:100300004FEA03334CEA133302D0524263EB430308
:1003100094EA050F00F0A780A4F10104D5F1200EA6
:100320000DDB02FA0EFC22FA05F2801841F1000101
:1003300003FA0EF2801843FA05F359410EE0A5F1D5
:1003400020050EF1200E012A03FA0EFC28BF4CF006
:10035000020C43FA05F3C01851EBE37101F00045BC
:1003600007D54FF0000EDCF1000C7EEB00006EEBC9
:100370000101B1F5801F1BD3B1F5001F0CD3490853
:100380005FEA30004FEA3C0C04F101044FEA4452AA
:1003900012F5800F80F09A80BCF1004F08BF5FEA31
:1003A000500C50F1000041EB045141EA050130BD11
:1003B0005FEA4C0C404141EB0101013C28BFB1F523
:1003C000801FE9D291F0000F04BF01460020B1FA6E
:1003D00081F308BF2033A3F10B03B3F120020CDA41
:1003E0000C3208DD02F1140CC2F10C0201FA0CF01F
:1003F00021FA02F10CE002F11402D8BFC2F1200C84
:1004000001FA02F120FA0CFCDCBF41EA0C01904039
:10041000E41AA2BF01EB0451294330BD6FEA040482
:100420001F3C1CDA0C340EDC04F11404C4F120026D
:1004300020FA04F001FA02F340EA030021FA04F37F
:1004400045EA030130BDC4F10C04C4F1200220FAD6
:1004500002F001FA04F340EA0300294630BD21FA14
:1004600004F0294630BD94F0000F83F4801306BFDA
:1004700081F480110134013D4EE77FEA645C18BFCE
:100480007FEA655C29D094EA050F08BF90EA020F65
:1004900005D054EA000C04BF1946104630BD91EA5D
:1004A000030F1EBF0021002030BD5FEA545C05D160
:1004B0004000494128BF41F0004130BD14F580049F
:1004C0003CBF01F5801130BD01F0004545F0FE4113
:1004D00041F470014FF0000030BD7FEA645C1ABF48
:1004E000194610467FEA655C1CBF0B46024650EA7F
:1004F000013406BF52EA033591EA030F41F40021AB
:1005000030BD00BF90F0000F04BF0021704730B530
:100510004FF4806404F132044FF000054FF0000105
:1005200050E700BF90F0000F04BF0021704730B5C6
:100530004FF4806404F1320410F0004548BF40429B
:100540004FF000013EE700BF42004FEAE2014FEAF0
:1005500031014FEA02701FBF12F07F4393F07F4FCB
:1005600081F06051704732F07F4208BF704793F0CE
:100570007F4F04BF41F40021704730B54FF46074E1
:1005800001F0004521F000411CE700BF50EA0102E4
:1005900008BF704730B54FF000050AE050EA01028D
:1005A00008BF704730B511F0004502D5404261EBFD
:1005B00041014FF4806404F132045FEA915C3FF43E
:1005C000D8AE4FF003025FEADC0C18BF03325FEADB
:1005D000DC0C18BF033202EBDC02C2F1200300FA8C
:1005E00003FC20FA02F001FA03FE40EA0E0021FAB1
:1005F00002F11444BDE600BF70B54FF0FF0C4CF49F
:10060000E06C1CEA11541DBF1CEA135594EA0C0F50
:1006100095EA0C0F00F0DEF82C4481EA030621EA8B
:100620004C5123EA4C5350EA013518BF52EA0335C6
:1006300041F4801143F4801338D0A0FB02CE4FF078
:100640000005E1FB02E506F00042E0FB03E54FF0A8
:100650000006E1FB03569CF0000F18BF4EF0010EA0
:10066000A4F1FF04B6F5007F64F5407404D25FEA9C
:100670004E0E6D4146EB060642EAC62141EA55514F
:100680004FEAC52040EA5E504FEACE2EB4F1FD0C91
:1006900088BFBCF5E06F1ED8BEF1004F08BF5FEA0F
:1006A000500E50F1000041EB045170BD06F00046C1
:1006B00046EA010140EA020081EA0301B4EB5C046E
:1006C000C2BFD4EB0C0541EA045170BD41F4801166
:1006D0004FF0000E013C00F3AB8014F1360FDEBF8B
:1006E000002001F0004170BDC4F10004203C35DA67
:1006F0000C341BDC04F11404C4F1200500FA05F3EA
:1007000020FA04F001FA05F240EA020001F000428A
:1007100021F0004110EBD37021FA04F642EB060100
:100720005EEA430E08BF20EAD37070BDC4F10C042A
:10073000C4F1200500FA04F320FA05F001FA04F2EE
:1007400040EA020001F0004110EBD37041F10001DA
:100750005EEA430E08BF20EAD37070BDC4F12005E5
:1007600000FA05F24EEA020E20FA04F301FA05F24D
:1007700043EA020321FA04F001F0004121FA04F2F5
:1007800020EA020000EBD3705EEA430E08BF20EAC5
:10079000D37070BD94F0000F0FD101F000464000FF
:1007A00041EB010111F4801F08BF013CF7D041EA81
:1007B000060195F0000F18BF704703F00046520085
:1007C00043EB030313F4801F08BF013DF7D043EA56
:1007D0000603704794EA0C0F0CEA135518BF95EA0C
:1007E0000C0F0CD050EA410618BF52EA4306D1D193
:1007F00081EA030101F000414FF0000070BD50EAB2
:10080000410606BF1046194652EA430619D094EA3B
:100810000C0F02D150EA013613D195EA0C0F05D125
:1008200052EA03361CBF104619460AD181EA030179
:1008300001F0004141F0FE4141F470014FF0000031
:1008400070BD41F0FE4141F4780170BD70B54FF0CC
:10085000FF0C4CF4E06C1CEA11541DBF1CEA13554C
:1008600094EA0C0F95EA0C0F00F0A7F8A4EB05042E
:1008700081EA030E52EA03354FEA013100F0888025
:100880004FEA03334FF0805545EA131343EA1263EE
:100890004FEA022245EA111545EA10654FEA0026A3
:1008A0000EF000419D4208BF964244F1FD0404F55C
:1008B000407402D25B084FEA3202B61A65EB0305B8
:1008C0005B084FEA32024FF480104FF4002CB6EB75
:1008D000020E75EB030E22BFB61A754640EA0C00F5
:1008E0005B084FEA3202B6EB020E75EB030E22BF35
:1008F000B61A754640EA5C005B084FEA3202B6EB76
:10090000020E75EB030E22BFB61A754640EA9C0034
:100910005B084FEA3202B6EB020E75EB030E22BF04
:10092000B61A754640EADC0055EA060E18D04FEAC2
:10093000051545EA16754FEA06164FEAC30343EA62
:1009400052734FEAC2025FEA1C1CC0D111F4801F2F
:100950000BD141EA00014FF000004FF0004CB6E728
:1009600011F4801F04BF01430020B4F1FD0C88BFC7
:10097000BCF5E06F3FF6AFAEB5EB030C04BFB6EBD2
:10098000020C5FEA500C50F1000041EB045170BDC5
:100990000EF0004E4EEA113114EB5C04C2BFD4EBF2
:1009A0000C0541EA045170BD41F480114FF0000E76
:1009B000013C90E645EA060E8DE60CEA135594EAF2
:1009C0000C0F08BF95EA0C0F3FF43BAF94EA0C0FF5
:1009D0000AD150EA01347FF434AF95EA0C0F7FF46A
:1009E00025AF104619462CE795EA0C0F06D152EABE
:1009F00003353FF4FDAE1046194622E750EA4106A2
:100A000018BF52EA43067FF4C5AE50EA41047FF4B2
:100A10000DAF52EA43057FF4EBAE12E74FF0FF3C17
:100A200006E000BF4FF0010C02E000BF4FF0010CE8
:100A30004DF804CD4FEA410C7FEA6C5C4FEA430C61
:100A400018BF7FEA6C5C1BD001B050EA410C0CBFB0
:100A500052EA430C91EA030F02BF90EA020F002012
:100A6000704710F1000F91EA030F58BF994208BF79
:100A700090422CBFD8176FEAE37040F00100704736
:100A80004FEA410C7FEA6C5C02D150EA013C07D18D
:100A90004FEA430C7FEA6C5CD6D152EA033CD3D0D8
:100AA0005DF8040B704700BF8446104662468C46D2
:100AB0001946634600E000BF01B5FFF7B7FF002805
:100AC00048BF10F1000F01BD4DF808EDFFF7F4FF2E
:100AD0000CBF012000205DF808FB00BF4DF808EDB9
:100AE000FFF7EAFF34BF012000205DF808FB00BFDC
:100AF0004DF808EDFFF7E0FF94BF012000205DF8FE
:100B000008FB00BF4DF808EDFFF7CEFF94BF0120B2
:100B100000205DF808FB00BF4DF808EDFFF7C4FFAB
:100B200034BF012000205DF808FB00BF4FEA410CF4
:100B30007FEA6C5C02D150EA013C0AD14FEA430CD7
:100B40007FEA6C5C02D152EA033C02D14FF0000014
:100B500070474FF0010070474A0011D212F50012A1
:100B600011D20DD56FF47873B3EB62520ED44FEA05
:100B7000C12343F0004343EA505323FA02F0704785
:100B80004FF00000704750EA013002D14FF0FF30C3
:100B900070474FF0000070474FEA4102B2F1E04366
:100BA00024BFB3F5001CDCF1FE5C0DD901F0004C54
:100BB0004FEAC0024CEA5070B2F1004F40EB8300A4
:100BC00008BF20F00100704711F0804F21D113F1D0
:100BD0003872BCBF01F00040704741F480114FEA09
:100BE0005252C2F11802C2F1200C10FA0CF320FA92
:100BF00002F018BF40F001004FEAC1234FEAD323AF
:100C000003FA0CFC40EA0C0023FA02F34FEA430318
:100C1000CCE77FEA625307D150EA01331EBF4FF0A1
:100C2000FE4040F44000704701F0004040F0FE40BC
:100C300040F40000704700BF80F0004002E000BFB9
:100C400081F0004142001FBF5FEA410392EA030FB7
:100C50007FEA226C7FEA236C6AD04FEA1262D2EB01
:100C60001363C1BFD218414048404140B8BF5B4206
:100C7000192B88BF704710F0004F40F4000020F09F
:100C80007F4018BF404211F0004F41F4000121F0B5
:100C90007F4118BF494292EA030F3FD0A2F10102FF
:100CA00041FA03FC10EB0C00C3F1200301FA03F13D
:100CB00000F0004302D5494260EB4000B0F5000F60
:100CC00013D3B0F1807F06D340084FEA310102F11F
:100CD0000102FE2A51D2B1F1004F40EBC25008BFD1
:100CE00020F0010040EA03007047490040EB00009B
:100CF000013A28BFB0F5000FEDD2B0FA80FCACF19C
:100D0000080CB2EB0C0200FA0CF0AABF00EBC250C8
:100D100052421843BCBFD0401843704792F0000FB6
:100D200081F4000106BF80F400000132013BB5E709
:100D30004FEA41037FEA226C18BF7FEA236C21D07F
:100D400092EA030F04D092F0000F08BF08467047E4
:100D500090EA010F1CBF0020704712F07F4F04D1B2
:100D6000400028BF40F00040704712F100723CBFC5
:100D700000F50000704700F0004343F0FE4040F4EF
:100D8000000070477FEA226216BF08467FEA2363AD
:100D90000146420206BF5FEA412390EA010F40F498
:100DA000800070474FF0000304E000BF10F00043E4
:100DB00048BF40425FEA000C08BF704743F09643CB
:100DC00001464FF000001CE050EA010208BF7047E6
:100DD0004FF000030AE000BF50EA010208BF70476D
:100DE00011F0004302D5404261EB41015FEA010C82
:100DF00002BF84460146002043F0B64308BFA3F17A
:100E00008053A3F50003BCFA8CF2083AA3EBC2535B
:100E100010DB01FA02FC634400FA02FCC2F120027A
:100E2000BCF1004F20FA02F243EB020008BF20F0B1
:100E30000100704702F1200201FA02FCC2F1200217
:100E400050EA4C0021FA02F243EB020008BF20EA0C
:100E5000DC7070477BB972B90029BEBF00204FF02B
:100E6000004106E008BF00281CBF6FF000414FF0B2
:100E7000FF3000F0D3B9ADF1080C6DE904CE0029C4
:100E800009DB002B1ADB00F04DF8DDF804E0DDE9AA
:100E9000022304B07047404261EB4101002B1BDB91
:100EA00000F040F8DDF804E0DDE9022304B0404240
:100EB00061EB4101524263EB43037047524263EBE3
:100EC000430300F02FF8DDF804E0DDE9022304B06D
:100ED000404261EB41017047524263EB430300F033
:100EE00021F8DDF804E0DDE9022304B0524263EBAF
:100EF0004303704753B94AB9002908BF00281CBFF3
:100F00004FF0FF314FF0FF3000F088B9ADF1080C21
:100F10006DE904CE00F006F8DDF804E0DDE9022317
:100F200004B070472DE9F047089D0F4604468C46F3
:100F3000002B48D18A42164661D9B2FA82F34BB1EE
:100F4000C3F1200201FA03FC20FA02F29E4042EAB9
:100F50000C0C9C404FEA164EB7B2BCFBFEF1220CC3
:100F60000EFB11CC42EA0C4201FB07F0904209D97A
:100F7000B21801F1FF3C80F0EE80904240F2EB802D
:100F800002393244121AA4B2B2FBFEF00EFB102258
:100F900044EA024400FB07F7A74209D9341900F1DB
:100FA000FF3280F0DA80A74240F2D7803444023822
:100FB00040EA0140E41B00211DB1DC400023C5E9EB
:100FC0000043BDE8F0878B4206D90DB1C5E90001A9
:100FD00000210846BDE8F087B3FA83F1002948D123
:100FE000BB4202D3824200F20781841A67EB0302FC
:100FF00001209446002DE4D0C5E9004CE1E7002A29
:1010000000F09280B2FA82F3002B40F0A8808A1A96
:101010004FEA164E1FFA86FC0121200CB2FBFEF7A8
:101020000EFB172240EA02420CFB07F0904207D960
:10103000B21807F1FF3802D2904200F2E280474630
:10104000121AA4B2B2FBFEF00EFB102244EA0244D4
:101050000CFB00FCA44507D9341900F1FF3202D281
:10106000A44500F2CB801046A4EB0C0440EA0740F4
:10107000A2E7C1F120068B4022FA06FC4CEA030CE1
:1010800007FA01F420FA06F3F7404FEA1C4923431C
:1010900000FA01F81FFA8CFEB7FBF9F01C0C09FBF3
:1010A000107744EA074400FB0EF7A74202FA01F268
:1010B0000AD91CEB040400F1FF3A80F09B80A742A0
:1010C00040F2988002386444E41B9FB2B4FBF9F309
:1010D00009FB134447EA044403FB0EFEA64509D965
:1010E0001CEB040403F1FF3780F08280A6457FD912
:1010F000023B644443EA0040A4EB0E04A0FB02E779
:10110000BC427346B94663D360D05DB1B8EB03020D
:1011100064EB090404FA06F622FA01F31E43CC40FC
:10112000C5E9006400214CE76208480842EAC17141
:101130000B0C43EA00438AB242EA0342B3FBF6F1E6
:10114000E407B4463746B6461F23B0FBF6F0D21B81
:1011500041EA004161E7614614E7104628E7C3F120
:10116000200120FA01F29E4027FA01F19F403A4304
:101170004FEA164E1FFA86FCB1FBFEF70EFB171066
:10118000110C41EA004107FB0CF8884504FA03F40E
:101190003AD9711807F1FF3001D288451FD8A1EB69
:1011A0000801B1FBFEF808FB0CF70EFB181192B218
:1011B00042EA0142BA422FD2B21808F1FF31C6D238
:1011C000BA42C4D2A8F102013244C0E7F0459CD231
:1011D000BEEB020367EB0C070138B94695E7A6EBB7
:1011E00008084144B81EB1FBFEF808FB0CF7DCE729
:1011F0003B467FE7504667E70846FBE63444023843
:1012000032E7023F32441BE7A1EB08013846B1FB4D
:10121000FEF808FB0CF7C8E7414698E7704700BFA7
:1012200080B500AF0EF0FEFB0346184680BD80B5CA
:1012300000AF0EF045FC0346184680BD80B500AFF8
:101240000EF06AFC0346184680BD000080B400AF73
:10125000024B1846BD465DF8047B7047C0D30108B9
:1012600080B400AF024B1846BD465DF8047B704762
:10127000CCD3010880B400AF024B1846BD465DF8E0
:10128000047B7047ECD3010880B487B000AF1D4BDE
:101290007B611D4A3B1D92E8030083E803000023A5
:1012A0003B6124E03B699B0018333B4453F8143CFA
:1012B000FB600CE0FB685A1CFA601B781A467B69DD
:1012C00053407B617B69114A02FB03F37B61FB683E
:1012D0001B78002BEED17B6983F0FF037B617B6978
:1012E0000A4A02FB03F37B613B6901333B613B69C3
:1012F000012BD7D97B6918461C37BD465DF8047BA6
:10130000704700BFC59D1C8104D4010893010001F2
:1013100080B582B000AF7860396000224FF4006180
:10132000044810F0A5FF04F0C9F900BF0837BD4616
:1013300080BD00BF0000024080B500AF00224FF426
:101340000061034810F094FF04F0B8F900BF80BDBD
:101350000000024080B500AF00224021024810F09A
:1013600087FF00BF80BD00BF0004024080B500AF12
:1013700001224021024810F07BFF00BF80BD00BF6A
:101380000004024080B586B000AF78603960494BF8
:101390001B78DBB2002B01D0032386E0464B0022F2
:1013A0001A70454B00225A70444B00221A70434B6E
:1013B00000225A70424B00221A603E4B01221A70E2
:1013C0003B68002B0FD03F4B5A683B681A603E4B7E
:1013D0001B685B6A9AB23B681A813B6801229A7269
:1013E0003B680122DA72FFF7B5FF0223334A324924
:1013F000364813F0D3FE0346FB75FB7D002B0BD064
:10140000FFF7B4FF2B4B00221A70FB7D032B01D199
:1014100002234AE0032348E02A4B5B683B6142F227
:10142000107000F02FFEF8601AE0264B5A683B69F6
:10143000D31AFA689A4213D81E4B04221A70234812
:1014400013F0AEFFFFF792FF3B68002B03D01D4B5C
:101450005A683B685A60174B00221A70022324E036
:10146000144B1B78DBB2012BDFD0124B1B78FB72C5
:101470003B68002B03D0124B1A683B685A600D4B37
:1014800000221A70FB7A022B01D003230DE00B4BD4
:101490001B781BB21B021AB2084B5B781BB21343BA
:1014A0001BB29AB27B681A80002318461837BD46D3
:1014B00080BD00BF820000207C0000208000002052
:1014C00084000020001000E05005002038040020B7
:1014D00080B582B000AF78607B680A4A93420DD134
:1014E000094B1B78DBB2012B08D1084B5B68084A1B
:1014F0001360FFF73BFF044B02221A7000BF08374E
:10150000BD4680BD3804002082000020001000E0AD
:101510008400002080B582B000AF78607B680A4A02
:1015200093420DD1094B1B78DBB2012B08D1084B3C
:101530005B68084A1360FFF719FF044B03221A7017
:1015400000BF0837BD4680BD38040020820000205F
:10155000001000E08400002080B500AFFFF706FF18
:1015600000F076FD00BF80BD80B400AF024B18468E
:10157000BD465DF8047B70470CD4010880B483B08D
:1015800000AF0346FB80FB8807EE903AF8EE677ADF
:101590009FED087A67EE877A9FED077AC7EE876A34
:1015A000F0EE667AB0EE670A0C37BD465DF8047B54
:1015B000704700BF0000B4430000804780B584B08E
:1015C00000AF78607B68002B01D100232CE007F18D
:1015D0000F0319461A2000F061F80346002B01D0D2
:1015E000002321E0FB7B5BB2DBB2DB09DAB27B6874
:1015F0001A70FB7B03F00403002B14BF01230023AC
:10160000DAB27B685A70FB7B03F00203002B14BF35
:1016100001230023DAB27B689A70FB7B03F001039D
:10162000DAB27B68DA70012318461037BD4680BDF8
:1016300080B586B000AF786039603B68002B04D07D
:101640000C22002138681AF007F87B68002B01D1C2
:1016500001231BE000233B820023BB810D4B5B6811
:101660007B610D4B1B685B6A7B823B68002B08D05B
:101670003B687A691A603B687A8A1A813B68012262
:101680009A7239687868FFF77DFE03461846183766
:10169000BD4680BD001000E05005002080B584B03C
:1016A00000AF03463960FB713B68002B01D1012379
:1016B00037E000233B81FFF74DFED2233B73FB79DC
:1016C0007B7307F10C010A230222184813F077F903
:1016D0000346FB73FFF74AFEFB7B002B06D0FB7B28
:1016E000032B01D102231CE003231AE0FFF732FE93
:1016F00007F108010A2302220C4813F09CFA034662
:10170000BB73FFF733FEBB7B002B06D0BB7B032BE9
:1017100001D1022305E0032303E07A7A3B681A70C3
:10172000002318461037BD4680BD00BF3804002096
:1017300080B584B002AFD723BB8000233B80FFF786
:1017400009FE3A46391D0A2300930223084813F084
:1017500083FB0346FB71FFF709FEFB79002B0CBFEF
:1017600001230023DBB218460837BD4680BD00BF09
:101770003804002080B584B000AF78600023FB609F
:1017800007F10C031846FFF719FF034683F0010326
:10179000DBB2002B0AD07B68002B05D07B681A4691
:1017A00007F10C0318681060002347E07B7B002BD7
:1017B00005D1BB7B002B02D1FB7B002B17D0FFF7A1
:1017C000B7FF07F10C031846FFF7F8FE034683F056
:1017D0000103DBB2002B0AD07B68002B05D07B68AD
:1017E0001A4607F10C0318681060002326E07B6896
:1017F000002B05D07B681A4607F10C0318681060AF
:101800003B7B83F00103DBB2002B13D07B7B83F0A7
:101810000103DBB2002B0DD0BB7B83F00103DBB2F5
:10182000002B07D0FB7B83F00103DBB2002B01D040
:10183000012300E0002303F00103DBB21846103758
:10184000BD4680BD80B483B000AF78607B68002B5C
:1018500016D07B6800221A707B6800225A80796853
:101860004FF000024FF00003C1E902237B68002221
:101870001A617B6800225A617B6800229A6100E04D
:1018800000BF0C37BD465DF8047B70472DE9B00FF3
:1018900089B000AFF8607A603B600B467B81FB68E3
:1018A000002B05D03B6C002B02D03B68002B01DAEB
:1018B00001236CE0FB681B7883F00103DBB2002B93
:1018C0001CD0FB6801221A70FB687A895A807B89D8
:1018D00000229A469346FB68C3E902ABFB687A682C
:1018E0001A61FB685B695A1CFB685A61FB68D3E9A3
:1018F0000223396CC1E90023002348E07B89FA68A0
:1019000052889B1AFB61FB69B3F5004F04DDFB694C
:10191000A3F58033FB6107E0FB6913F5004F03DAA1
:10192000FB6903F58033FB61FB69002BB8BF5B42A9
:10193000BB61BA693B689A4206DDFB689B695A1C29
:10194000FB689A61042322E0FB68D3E90223F9696A
:10195000C8170C46054612EB040843EB0509C7E916
:101960000489FB687A895A80F968D7E90423C1E9B8
:101970000223FB687A681A61FB685B695A1CFB6882
:101980005A61396CD7E90423C1E9002300231846C2
:101990002437BD46BDE8B00F7047000080B487B063
:1019A00000AF786039604FF0FF337B6100233B610B
:1019B0001DE07A683B6913441B781A467B695340E3
:1019C0007B610023FB600CE07B6903F001035A425A
:1019D0000D4B13407A69520853407B61FB68013319
:1019E000FB60FB68072BEFDD3B6901333B613A6924
:1019F0003B689A42DDD37B69DB4318461C37BD4602
:101A00005DF8047B704700BF2083B8ED80B586B0D9
:101A100000AF78607B68002B01D10123F8E034220D
:101A20000021786819F018FE0023FB730023BB73B4
:101A300000237B730123FB75FB7D002B0AD007F18C
:101A40000F0319460020FFF729FE0346002B01D1A2
:101A5000012300E00023FB75FB7D03F00103FB7510
:101A6000FB7D002B0AD007F10E0319460120FFF77A
:101A700015FE0346002B01D1012300E00023FB7576
:101A8000FB7D03F00103FB75FB7D002B0AD07B6817
:101A9000043319460920FFF701FE0346002B01D14C
:101AA000012300E00023FB75FB7D03F00103FB75C0
:101AB000FB7D002B0AD07B68053319460D20FFF70C
:101AC000EDFD0346002B01D1012300E00023FB754F
:101AD000FB7D03F00103FB75FB7D002B0AD007F1B2
:101AE0000D0319461A20FFF7D9FD0346002B01D13B
:101AF000012300E00023FB75FB7D03F00103FB7570
:101B0000FB7D002B0AD07B68073319461C20FFF7AA
:101B1000C5FD0346002B01D1012300E00023FB7526
:101B2000FB7D03F00103FB75FB7D002B0AD07B6876
:101B3000083319461F20FFF7B1FD0346002B01D1E2
:101B4000012300E00023FB75FB7D03F00103FB751F
:101B5000FB7B1AB2BB7B1BB21B021BB213431BB233
:101B60009AB27B685A807A7B7B689A717B68002284
:101B70005A8500233B6125E000233B733B69DBB2C0
:101B80002033DBB207F10C0211461846FFF786FD41
:101B90000346002B03D00023FB7500233B73397BE6
:101BA0007A683B69134409330A461A703B7B002B61
:101BB00005D07B685B8D01339AB27B685A853B699F
:101BC00001333B613B691F2BD6DD7B680933202144
:101BD0001846FFF7E3FE02467B68DA627B68FA7D0F
:101BE0001A70FB7D83F00103DBB2002B05D07B680C
:101BF000002283F8302005230AE07B685B8D002BF0
:101C000001D1012200E002227B6883F8302000230A
:101C100018461837BD4680BD80B483B000AF7860E9
:101C20007B68002B0BD07B681B7883F00103DBB251
:101C3000002B04D17B6893F83030002B01D10123B5
:101C400013E07B689B7903F08703002B01D002230C
:101C50000BE07B6893F83030012B03D17B685B8D00
:101C6000002B01D0032300E0002318460C37BD46AB
:101C70005DF8047B704780B584B000AF7860396050
:101C80007868FFF7C9FF0346FB73FB7B002B01D08D
:101C9000FB7B3DE03B68002B01D1042338E07B68EF
:101CA0005A883B681B889A4201D0052330E07B6844
:101CB0001A793B689B789A4201D0062328E07B681A
:101CC0005A793B68DB789A4201D0072320E07B6891
:101CD0009A793B681B799A4201D0082318E07B6807
:101CE000DA793B685B799A4201D0092310E07B687E
:101CF0001A7A3B689B799A4201D00A2308E07B68F4
:101D0000DA6A3B689B689A4201D00B2300E000230B
:101D100018461037BD4680BD80B483B000AF03467F
:101D2000FB71FB790B2B33D801A252F823F000BFD3
:101D3000611D0008651D0008691D00086D1D000873
:101D4000711D0008751D0008791D00087D1D000823
:101D5000811D0008851D0008891D00088D1D0008D3
:101D60000F4B16E00F4B14E00F4B12E00F4B10E03F
:101D70000F4B0EE00F4B0CE00F4B0AE00F4B08E04F
:101D80000F4B06E00F4B04E00F4B02E00F4B00E05F
:101D90000F4B18460C37BD465DF8047B704700BFFB
:101DA00028D4010830D4010844D4010858D40108CB
:101DB0007CD401089CD40108ACD40108BCD401082F
:101DC000CCD40108DCD40108ECD40108FCD401080F
:101DD00014D5010880B594B000AF07F10C0334228C
:101DE0000021184619F038FC01233B73012387F8C2
:101DF0003C3005237B74954B1B68BB6307F10C03D8
:101E00001846FFF709FF0346002B0CBF01230023F0
:101E100087F84F308023BB7407F10C031846FFF797
:101E2000FBFE0346022B0CBF0123002387F84E3034
:101E30000023BB740123FB86022387F83C3007F1A3
:101E40000C031846FFF7E8FE0346032B0CBF0123E3
:101E5000002387F84D300023FB86012387F83C30B0
:101E600000233B7307F10C031846FFF7D5FE03462A
:101E7000012B0CBF0123002387F84C3001233B7357
:101E800000233B800023BB700523FB7000233B71C4
:101E900000237B710023BB716C4B1B68BB603A460F
:101EA00007F10C0311461846FFF7E5FE0346002B29
:101EB0000CBF0123002387F84B3007F10C030021EE
:101EC0001846FFF7D8FE0346042B0CBF012300235E
:101ED00087F84A300123FB813A4607F10C0311468B
:101EE0001846FFF7C8FE0346052B0CBF012300234D
:101EF00087F849303B88FB8101233B743A4607F160
:101F00000C0311461846FFF7B6FE0346062B0CBF1E
:101F10000123002387F84830BB783B7404237B748B
:101F20003A4607F10C0311461846FFF7A4FE034694
:101F3000072B0CBF0123002387F84730FB787B7405
:101F40000823BB743A4607F10C0311461846FFF705
:101F500092FE0346082B0CBF0123002387F846306E
:101F60003B79BB740123FB743A4607F10C0311461D
:101F70001846FFF780FE0346092B0CBF0123002300
:101F800087F845307B79FB7401233B753A4607F1AE
:101F90000C0311461846FFF76EFE03460A2B0CBFD2
:101FA0000123002387F84430BB793B75BB6B83F07A
:101FB0000103BB633A4607F10C0311461846FFF7CD
:101FC0005AFE03460B2B0CBF0123002387F8433036
:101FD00097F84F30002B31D097F84E30002B2DD092
:101FE00097F84D30002B29D097F84C30002B25D096
:101FF00097F84B30002B21D097F84A30002B1DD09A
:1020000097F84930002B19D097F84830002B15D09D
:1020100097F84730002B11D097F84630002B0DD0A1
:1020200097F84530002B09D097F84430002B05D0A5
:1020300097F84330002B01D0012300E0002303F088
:102040000103DBB218465037BD4680BD4C0F020875
:1020500080B400AF094BDB68084A43F08073D3605B
:10206000074B00225A60064B1B68054A43F00103E8
:10207000136000BFBD465DF8047B7047F0ED00E0E3
:10208000001000E080B483B000AF7860074B1B689D
:10209000074AA2FB03239B0C7A6802FB03F3184652
:1020A0000C37BD465DF8047B704700BF0000002080
:1020B00083DE1B4380B582B000AF78607B68002B65
:1020C00009D038220021786819F0C6FA7B681846D2
:1020D000FFF7B8FB00E000BF0837BD4680BD80B504
:1020E0008CB002AFF860B9603B601346FB71FB68CF
:1020F000002B08D03B68002B05D0FB79002B02D0C9
:10210000BB68002B01DA0123A5E0202200213868FA
:1021100019F0A2FA3B6801221A77012387F82730C9
:1021200085E00023BB8407F1180300221A605A607F
:102130009A60FB681B6A5A1CFB681A623B6897F836
:1021400027205A7797F82730012B0BD9FB689B6A19
:102150005A1CFB689A623B689B7F43F00103DAB22A
:102160003B689A7707F1180207F1240311461846D5
:10217000FFF75EFA034687F826303B68103307F115
:10218000180207CA83E8070097F82630002B10D002
:10219000FB68DB6A5A1CFB68DA623B689B7F43F092
:1021A0000203DAB23B689A773B6897F826201A77E1
:1021B00038E04FF000024FF00003C7E90423F8684D
:1021C000B98CBA6907F110030093BB68FFF75EFB97
:1021D000034687F8263097F82630002B10D0FB688E
:1021E0001B6B5A1CFB681A633B689B7F43F004031C
:1021F000DAB23B689A773B6897F826201A7711E0A5
:10220000BA8C3B681A80D7E904233968C1E90223F4
:102210003B6800221A77FB685B6A5A1CFB685A62AB
:10222000002318E097F82730013387F8273097F814
:102230002720FB799A427FF674AF3B689B7F43F07F
:102240000803DAB23B689A77FB685B6B5A1CFB6841
:102250005A633B681B7F18462837BD4680BD000087
:1022600080B582B000AFC7E90001D7E90001FEF7F1
:10227000B3FD07EE100ADFED077A67EE277A9FEDD0
:10228000067AC7EE876AF0EE667AB0EE670A08371C
:10229000BD4680BD0000B443000080472DE9B00F6B
:1022A00085B000AFC7E90201C7E900233B6B002BF3
:1022B00023D0D7E90023012A73F100030DDBD7E90E
:1022C00000236FF00041D2F1FF3861EB0309D7E939
:1022D0000223904579EB03030FDBD7E90023002BA2
:1022E0000DDAD7E900234FF00041544261EB0305BA
:1022F000D7E90223A242AB4101DA00230BE0D7E980
:102300000201D7E9002310EB020A41EB030B3B6B00
:10231000C3E900AB012318461437BD46BDE8B00F32
:1023200070472DE9B00F85B000AFC7E90201C7E9DA
:1023300000233B6B002B1FD0D7E90023002B0ADAC8
:10234000D7E90023541E63F10045D7E902239442E4
:1023500075EB030310DBD7E90023012A73F10003B7
:102360000CDBD7E9002303F100499046D7E90223AB
:10237000424573EB090301DA00230BE0D7E90201C0
:10238000D7E90023B0EB020A61EB030B3B6BC3E917
:1023900000AB012318461437BD46BDE8B00F7047A7
:1023A00080B485B000AFC7E902017A607B68002B7A
:1023B00009D0D7E90223B3F5004F04DAD7E90223A5
:1023C00013F5004F01DA00230DE0D7E902014FF0C9
:1023D00000024FF000030B0443EA10430204796843
:1023E000C1E90023012318461437BD465DF8047B7C
:1023F00070472DE9B04F90B000AFC7E90A01C7E9B7
:1024000008233B6E002B0CD0D7E90823012A73F177
:10241000000306DBD7E90A2303F1004152EA010376
:1024200001D1002376E0D7E908234FF000004FF0F8
:102430000001D80F0021841841EB03054FF0000282
:102440004FF00003620842EAC5726B10C7E90E2321
:10245000D7E90A23002B24DBD7E90E236FF00041D4
:10246000D2F1FF3A61EB030BD7E90A2392457BEBEC
:10247000030301DA00234DE0D7E90A01D7E90E236F
:102480008418BC6141EB0303FB61D7E90823D7E95A
:102490000601FEF7DFFC02460B46396EC1E9002358
:1024A00037E0D7E90A2300215042386061EB03038B
:1024B0007B60D7E90034C7E90C34D7E90E236FF00D
:1024C0000041D2F1FF3861EB0309D7E90C239045B5
:1024D00079EB030301DA00231CE0D7E90C01D7E90B
:1024E0000E2384183C6141EB03037B61D7E9082389
:1024F000D7E90401FEF7AEFC02460B46002150422C
:10250000B86061EB0303FB603B6ED7E90212C3E9DD
:102510000012012318464037BD46BDE8B08FB0B564
:102520008EB002AFC7E90201C7E900233B6C002B64
:1025300005D07B6C002B02D0BB6C002B01D100239B
:1025400060E04FF000024FF00003C7E90A234FF0AC
:1025500000024FF00003C7E908234FF000024FF0DC
:102560000003C7E906234FF000024FF00003C7E95C
:10257000042307F128031A46D7E90001FFF710FFEB
:10258000034683F00103DBB2002B2ED107F12003B9
:102590001A46D7E90201FFF703FF034683F0010360
:1025A000DBB2002B21D1D7E90A013B6C00221C468B
:1025B000154607F11803009322462B46FFF719FF33
:1025C000034683F00103DBB2002B0ED1D7E90801EB
:1025D000D7E9062307F110040094FFF75FFE0346D6
:1025E00083F00103DBB2002B01D000230AE0D7E91E
:1025F0000623796CC1E90023D7E90423B96CC1E94A
:102600000023012318463037BD46B0BD90B58BB0CE
:1026100002AFC7E90201C7E90023BB6B002B01D160
:10262000002338E04FF000024FF00003C7E9062313
:102630004FF000024FF00003C7E9042307F118032D
:102640001A46D7E90C01FFF7ABFE034683F00103FE
:10265000DBB2002B1CD107F110030093D7E9002354
:10266000D7E90201FFF75DFE034683F00103DBB209
:10267000002B0DD1D7E90401D7E90623BC6B0094E8
:10268000FFF74FFE034683F00103DBB2002B01D0BE
:10269000002300E0012318462437BD4690BD2DE9F4
:1026A000B04F90B004AFC7E90801C7E906233B6DFE
:1026B000012B03D03B6DB3F1FF3F19D1BB6D002B54
:1026C00016D07B6D00223B617A61BB6D0022BB603E
:1026D000FA60D7E902234FF0FF306FF00041FEF7B8
:1026E00009FC02460B4639698A4279698B4101D25D
:1026F00000232EE07B6D00229A469346BB6D00229C
:102700009846914608FB0BF20AFB09F31344AAFB17
:1027100008452B441D46C7E90A453B6D002B0BDAE3
:10272000D7E90A2300215042386061EB03037B6044
:10273000D7E90034C7E90A34FB6D0293D7E90A23CD
:10274000CDE90023D7E90623D7E90801FFF75EFFAB
:10275000034618463037BD46BDE8B08FB0B588B0E7
:1027600002AFC7E90201C7E900234FF000024FF0B2
:102770000003C7E9042307F110030093D7E90023FE
:10278000D7E90201FFF7CDFD034683F00103DBB279
:10279000002B04D04FF0FF326FF0004309E0D7E97F
:1027A0000423002B05DA0021544261EB0305224685
:1027B0002B46104619461837BD46B0BD80B487B0C9
:1027C00000AF7860396001237B6139E07B69DB0011
:1027D0007A681344D3E90023C7E902237B693B618C
:1027E00011E03B6903F10053013BDB007A681344BD
:1027F0003A69D20079681144D3E90023C1E9002382
:102800003B69013B3B613B69002B0ED03B6903F107
:102810000053013BDB007A681344D3E90023D7E976
:102820000201904271EB0303DBDB3B69DB007A685A
:10283000D118D7E90223C1E900237B6901337B6109
:102840007A693B689A42C1D300BF00BF1C37BD46BE
:102850005DF8047B704790B589B002AFF860B9604D
:102860007A60BB68002B02D07B68002B01D100236B
:102870003FE0BB6803F00103002B0BD0BB685B0893
:10288000DB00FA681344D3E900237968C1E9002327
:1028900001232EE04FF000024FF00003C7E90423AC
:1028A000BB685B0803F10053013BDB00FA6813448B
:1028B000D3E90001BB685B08DB00FA681344D3E985
:1028C000002307F110040094FFF7E8FC034683F0AF
:1028D0000103DBB2002B01D000230AE0D7E9040199
:1028E0007B6800934FF002024FF00003FFF781FD79
:1028F000034618461C37BD4690BD00002DE9B04F79
:1029000086B002AFC7E902017A607B68002B0AD06B
:10291000D7E90223002B06DBD7E902231B498A42B1
:102920001B498B4101DB00232BE0D7E90201024662
:102930000B464FF000084FF000094FEA831949EAAF
:1029400092694FEA821842464B46141843EB010540
:102950004FF000024FF00003EB0043EA5473E20033
:1029600014461D46B4EB000A65EB010B7B6800932F
:102970004FF064024FF0000350465946FFF739FD0F
:10298000034618461037BD46BDE8B08F5F77026D2D
:1029900005233F0090B59BB004AFC7E902017A6000
:1029A0003B603B6F3A68C3F884203B68002B00F023
:1029B000D7803B68402B00F2D38039687868FFF7F6
:1029C000FDFE4FF000024FF00003C7E90C2307F1B2
:1029D00030031A4639687868FFF73DFF034683F0F5
:1029E0000103DBB2002B40F0BD8000237B6514E0C7
:1029F0007B6DDB007A681344D3E90001D7E90C232F
:102A0000FFF7ACFE02460B465C48796DC9000144F5
:102A1000C1E900237B6D01337B657A6D3B689A4287
:102A2000E6D339685548FFF7C9FE4FF000024FF072
:102A30000003C7E90A2307F128031A4639684F48FB
:102A4000FFF709FF034683F00103DBB2002B40F0E0
:102A50008B804FF000024FF00003C7E90823D7E94D
:102A60000A0107F120031A46FFF748FF034683F0E7
:102A70000103DBB2002B79D1D7E90801D7E91A238A
:102A8000824273EB010401DA02460B46C7E91023C8
:102A90004FF000024FF00003C7E9062300233B6517
:102AA0000023FB640023BB6430E0BB6CDB007A686E
:102AB0001344D3E90001D7E90C23FFF74FFEC7E920
:102AC0000E01D7E90E23D7E91001904271EB030301
:102AD00016DBD7E90601BB6CDB007A681344D3E947
:102AE000002307F118040094FFF7D8FB034683F096
:102AF0000103DBB2002B3BD13B6D01333B6502E0B0
:102B0000FB6C0133FB64BB6C0133BB64BA6C3B6888
:102B10009A42CAD33B6FFA6CC3F888203B6F3A6D78
:102B2000C3F88C203B6D002B24D04FF000024FF0F7
:102B30000003C7E90423D7E90623396F383102912E
:102B400007F110010191396D0091D7E90201FFF7FA
:102B5000E6FC0346002B0ED03B6F01229A700AE080
:102B600000BF08E000BF06E000BF04E000BF02E0D5
:102B700000BF00E000BF5C37BD4690BD880000206C
:102B800080B483B000AF786039607A683B68D31A4C
:102B9000DB43DB0FDBB218460C37BD465DF8047B28
:102BA0007047000080B483B000AF7860034B5B686F
:102BB00018460C37BD465DF8047B7047001000E0F6
:102BC00080B582B000AF7860396000E000BF084B8C
:102BD0005B6839681846FFF7D3FF034683F00103AB
:102BE000DBB2002BF2D100BF00BF0837BD4680BD6D
:102BF000001000E080B584B000AFF860B9607A6082
:102C00007968B868FEF714FD034618461037BD46CC
:102C100080BD80B483B000AF78600B46FB707B68EA
:102C200000221A707B68FA78DA70FB7818460C3745
:102C3000BD465DF8047B704790B59DB004AFF86069
:102C4000C7E90023D7F88830002B0DD0902200214F
:102C5000D7F8880018F000FDD7F888300122DA7024
:102C6000D7F8883000221A71FB68002B4FD03B6FD9
:102C7000002B4CD07B6F002B49D0D7F88830002B2D
:102C800045D07B6F1B68002B41D07B6F5B68002BAE
:102C90003DD03B6F9B68002B39D03B6FDA683B6FB0
:102CA0009B689A4233D33B6F5B69002B2FD03B6FFD
:102CB0005B69002B2BDB3B6F9B69002B27DB3B6F9A
:102CC0001B78002B03D03B6F1B78012B1FD13B6F70
:102CD0001B78012B0BD13B6F5B68002B17D03B6F30
:102CE0005B68002B13DB7B6F9B68002B0FD0BB6FE7
:102CF000002B0ED03B6F9B68FA6F9A4207D33B6F55
:102D00009B68402B03D8D7E92023002B01DA01234D
:102D100050E2D7F88810D7E90023C1E902233B6FBE
:102D20009A68D7F888301A65D7F8883000229A70E8
:102D3000D7F888104FF0FF326FF00043C1E9062347
:102D4000D7F888104FF000024FF00043C1E9082384
:102D50000023FB650023BB65E5E1D7F888309A6D59
:102D60003B6FDB689A4206D30721D7F88800FFF74C
:102D700050FF03461EE2002387F8573000233B65CF
:102D80003B6F1B78012B20D1D7F888305B78002B64
:102D90001BD0FB6D3B65D7F888309B6F3A6DD21A1C
:102DA0003B6F5B699A4206D90821D7F88800FFF784
:102DB00030FF0346FEE17B6F9B687A6FD268396D06
:102DC00010469847012387F857300023FB8607F108
:102DD000280300221A605A609A607B6F1B687A6F22
:102DE000D06807F1280207F136019847034687F8B3
:102DF0004E30D7F888309B6D5A1CD7F888309A65CA
:102E000097F8323083F00103DBB2002B0DD0D7F8F6
:102E100088305B6E5A1CD7F888305A660621D7F87E
:102E20008800FFF7F6FE0346C4E1BA6AD7F8883097
:102E3000DA67D7F888309B6D012B11D1BA6AD7F8C1
:102E400088309A673B6F1B78012B32D1D7F88830D6
:102E500001225A70BA6A3B6F5B681344FB6528E035
:102E600097F85730002B24D0BA6A3B6DD31ABB6455
:102E7000BB6C002B02DABB6C5B4200E0BB6C7B647A
:102E8000BB6C002B06DDD7F888301B6F5A1CD7F8B7
:102E900088301A67D7F888305B6F7A6C9A4203D90A
:102EA000D7F888307A6C5A673B6F5B683A6D134489
:102EB000FB657B6F5B687A6FD26810469847386411
:102EC000D7F888309B6F3A6CD21AD7F88830C3F89D
:102ED0008020D7F88830D3F880203B6F5B699A4216
:102EE00006D90821D7F88800FFF793FE034661E171
:102EF00097F84E3087F84F304FF000024FF0000344
:102F0000C7E9082397F84E30002B0FD097F84E30C2
:102F1000022B03D097F84E30032B20D1D7F88830FE
:102F2000DB6D5A1CD7F88830DA6518E0F98EBA6A7A
:102F30003B6F986907F1200300930346F868FEF79A
:102F4000A5FC034687F84F3097F84F30042B06D185
:102F5000D7F888301B6E5A1CD7F888301A6697F855
:102F60004F30002B1ED0D7F8883097F84F201A71B9
:102F7000BB6D0133BB65D7F888309B6EBA6D9A4242
:102F800003D9D7F88830BA6D9A663B6F1B69BA6D62
:102F90009A4240F28D800721D7F88800FFF739FE6A
:102FA000034607E10023BB654FF000024FF000032A
:102FB000C7E906234FF000024FF00003C7E90423DE
:102FC000D7E9080107F118030093D7E90023FFF7B9
:102FD000A8F9034683F00103DBB2002B10D1D7F828
:102FE0008830D3E90401D7E9062307F110040094DF
:102FF000FFF754F9034683F00103DBB2002B06D040
:103000000921D7F88800FFF704FE0346D2E0D7E98C
:103010000423D7F88810C1E90423BB6F002B0FD01D
:10302000D7F888305B6DFA6F9A4209D9D7F88830A3
:103030005B6DDB00BA6FD118D7E90623C1E9002325
:10304000D7F88830D3E90623D7E90601904271EB1F
:10305000030305DAD7E90623D7F88810C1E9062368
:10306000D7F88830D3E90801D7E90623904271EBFD
:10307000030305DAD7E90623D7F88810C1E9082346
:10308000D7F888305B6D002B05D1D7E90823D7F836
:103090008810C1E91023D7E90823D7F88810C1E9BF
:1030A0001223D7F888305B6D5A1CD7F888305A65E0
:1030B000D7F888305A6D3B6F9B689A423CD23B6F81
:1030C0001B78012B2FD1F96D386CFFF759FD0346A2
:1030D000002B28D03A6CFB6DD31AFB633B6F5B6807
:1030E000FA6BB2FBF3F30133BB63D7F88830DB6EC6
:1030F000DB43BA6B9A4206D90721D7F88800FFF75D
:1031000088FD034656E0D7F88830DA6EBB6B1A4468
:10311000D7F88830DA663B6F5B68BA6B02FB03F363
:10312000FA6D1344FB65D7F888305A6D3B6F9B6886
:103130009A42FFF412AE00E000BFD7F88830D3E91E
:103140000423D7F88810496DD7F888002830D7F8BD
:1031500088403034029401900091D7E90001FFF7D4
:10316000DEF9034683F00103DBB2002B06D0092110
:10317000D7F88800FFF74DFD03461BE0BB6F002B1F
:103180000FD0D7F88830596DD7F888300293D7E937
:103190002023CDE900230B46BA6FD7E90001FFF7E2
:1031A000F9FBD7F8883001221A70D7F8883000224E
:1031B000DA70002318466437BD4690BD90B591B0D3
:1031C00008AFF860C7E900230F4B07F110040FCBDD
:1031D00084E80F00BB6C0693D7E91023CDE90423E4
:1031E000BB6B03937B6B029307F1100301933B6B63
:1031F0000093D7E90023F868FFF71EFD0346184641
:103200002437BD4690BD00BF30D5010880B586B0DB
:1032100000AFF860B9607A60FB687B617B69002B66
:103220000BD0BB68002B08D07B68002B05D07B69D6
:103230005A6E7B691B6E9A4201D301232AE07B6997
:103240005B6E591C7A6951663B610C2200217868DB
:1032500018F002FA7B693A69063253F822207B683B
:103260001A607A693B69134458331A787B689A72FA
:103270007B693A6933F81220BB681A807B693A6926
:103280000E3253F822207B699A667A693B691344AF
:1032900010331B7818461837BD4680BD80B483B004
:1032A00000AF78607B689B6E18460C37BD465DF8B2
:1032B000047B704780B584B000AF786039607B686C
:1032C000FB60FB68D3F88C30072B0CD8FB68D3F875
:1032D0008C30591CFA68C2F88C10FA681A339B00BB
:1032E00013443A685A60FB689B6E39681846FFF7CA
:1032F00047FC034683F00103DBB2002B02D0FB68DE
:103300003A689A6600BF1037BD4680BDB0B48DB034
:1033100000AFF860B9607A603B6001233B757B6861
:10332000BB61BB68FB613B683B623B687B62094BEE
:10333000BB621423FB62FB681D4607F114040FCC2B
:103340000FC594E8070085E80700F8683437BD46E4
:10335000B0BC7047A086010080B584B000AF786033
:10336000396090220021786818F076F97B683A6815
:103370001A660023FB600EE07A68FB681344103382
:1033800000221A707A68FB681344583301221A70BD
:10339000FB680133FB60FA683B689A42ECD300BFDC
:1033A00000BF1037BD4680BD2DE9B04FADF53C7D67
:1033B00008AF4FF000024FF00003C7E99E2307F566
:1033C0001E7300934FF002024FF000034FF0010014
:1033D0004FF00001FFF70DF80346002B4BD0D7E963
:1033E0009E23511E0B4346D107F51E7300934FF0E9
:1033F00002024FF000034FF0FF304FF0FF31FEF7B5
:10340000F8FF0346002B36D0D7E99E23B3F1FF3FE8
:1034100008BFB2F1FF3F2ED107F51E7300934FF0A6
:1034200002024FF000034FF003004FF00001FEF7DF
:10343000E0FF0346002B1ED0D7E99E23911E0B43CD
:1034400019D107F51E7300934FF002024FF00003ED
:103450006FF002004FF0FF31FEF7CBFF0346002B69
:1034600009D0D7E99E23B3F1FF3F08BF12F1020F45
:1034700001D1012300E0002387F8BB3297F8BB326B
:1034800003F0010387F8BB324FF000024FF0000356
:10349000C7E99C234FF000024FF00003C7E99A23CD
:1034A00007F51A73029307F51C7301930223009327
:1034B0004FF001024FF000034FF064004FF00001A5
:1034C000FFF72DF80346002B0DD0D7E99C23A2F57A
:1034D00000410B4307D1D7E99A23A2F5C9010B4359
:1034E00001D1012300E0002387F8BA3297F8BA32FD
:1034F00003F0010387F8BA3207F51A73029307F550
:103500001C730193022300934FF0FF324FF0FF33FF
:103510006FF063004FF0FF31FFF701F80346002B17
:1035200011D0D7E99C23B3F1FF3F08BF12F5004F3C
:1035300009D1D7E99A23B3F1FF3F08BF12F5C90FAC
:1035400001D1012300E0002387F8B93297F8B9329E
:1035500003F0010387F8B9324FF4C8024FF00003BB
:10356000C7E9AC23D7E9AC235D1C1446C7E9AA45DB
:103570004FF001024FF00003C7E9982307F51873D5
:1035800003934FF48073029300230193012300936C
:10359000D7E9AC23D7E9AC01FFF781F80346002B4C
:1035A0001DD0D7E99823134319D107F51873039356
:1035B0004FF4807302934FF48073019301230093BF
:1035C000D7E9AC23D7E9AA01FFF769F80346002B36
:1035D00005D0D7E99823134301D1012300E000234C
:1035E00087F8A73297F8A73203F0010387F8A732CC
:1035F000D54B07F514740FCB84E80F0007F58873DB
:1036000002211846FFF7A8FE07F53473A3F5E0730F
:1036100064221A8007F53473A3F5E07365225A809B
:1036200007F53473A3F5E0734FF47A729A6107F5E6
:103630003473A3F5E0734FF48262DA6107F53473F3
:10364000A3F5E07340F2ED329A6307F53473A3F506
:10365000E07340F21542DA6307F53473A3F5E073C3
:1036600040F2E3329A6607F58873C7F85C3207F5D3
:103670000C731846FEF7E6F807F53473A3F5EE7001
:10368000022328220221FFF741FE07F50C7107F5FE
:10369000D07306934FF000024FF00003CDE90423EE
:1036A000002303930023029307F51473019307F19A
:1036B000F40300934FF064024FF000030846FFF755
:1036C000BBFA0346002B5CD107F53473A3F598735E
:1036D0001B78002B55D007F53473A3F598739B6DB9
:1036E000022B4ED107F53473A3F598735B6D022B53
:1036F00047D107F53473A3F59873DB6E002B40D1E7
:1037000007F53473A3F59873D3E91023A2F164018C
:103710000B4336D107F53473A3F59873D3E912231D
:10372000A2F165010B432CD107F53473A3F598730F
:10373000D3E90623134324D107F53473A3F5987313
:10374000D3E90823511E0B431BD107F53473A3F5AE
:103750009873D3E90C23A2F5C9010B4311D107F5E6
:103760003473A3F5E073D3F88C30012B09D107F53E
:103770003473A3F5E073DB6EB3F5826F01D10123DF
:1037800000E0002387F8A63297F8A63203F0010381
:1037900087F8A63207F5887304211846FFF7DCFD89
:1037A00007F53473A3F5E07364221A8007F53473C8
:1037B000A3F5E07368225A8007F53473A3F5E0732C
:1037C00060229A8007F53473A3F5E0736422DA80EF
:1037D00007F53473A3F5E0734FF47A729A6107F535
:1037E0003473A3F5E0734FF48262DA6107F5347342
:1037F000A3F5E0734FF487621A6207F53473A3F5FB
:10380000E0734FF48C625A6207F53473A3F5E073EA
:1038100040F2ED329A6307F53473A3F5E07340F29A
:103820001542DA6307F53473A3F5E07340F23D42C5
:103830001A6407F53473A3F5E07340F265425A64E5
:1038400007F53473A3F5E07340F2E3329A6607F5A7
:103850008873C7F85C3207F50C731846FDF7F2FF62
:1038600007F53473A3F5EE7407F10800042328224A
:103870000421FFF74BFD07F53473A3F532731D46A2
:103880000FCD0FC495E8070084E8070007F50C7119
:1038900007F5D07306934FF000024FF00003CDE917
:1038A0000423002303930023029307F51473019369
:1038B00007F1F40300934FF064024FF00003084651
:1038C000FFF7BAF90346002B40D107F53473A3F58F
:1038D0009873D3E90623B3F1FF3F08BF12F1040F39
:1038E00034D107F53473A3F59873D3E90823111F76
:1038F0000B432BD107F53473A3F59873D3E9080173
:1039000007F53473A3F59873D3E90623841A3C6052
:1039100061EB03037B60D7E900120B46083B1343BE
:1039200014D107F53473A3F59873D3E9120107F5A1
:103930003473A3F59873D3E91023994208BF9042DA
:1039400004D1012303E000BF40D50108002387F81C
:10395000A53297F8A53203F0010387F8A53207F5E1
:10396000887304211846FFF7F7FC07F53473A3F5B5
:10397000E07364221A8007F53473A3F5E0736522BF
:103980005A8007F53473A3F5E07366229A8007F531
:103990003473A3F5E0736722DA8007F53473A3F577
:1039A000E0734FF47A729A6107F53473A3F5E0730C
:1039B0004FF48262DA6107F53473A3F5E0734FF4D4
:1039C00087621A6207F53473A3F5E0734FF48C62D3
:1039D0005A6207F53473A3F5E07340F2ED329A634F
:1039E00007F53473A3F5E07340F21542DA6307F587
:1039F0003473A3F5E07340F23D421A6407F5347363
:103A0000A3F5E07340F265425A6407F53473A3F5F9
:103A1000E07340F2E3329A6607F58873C7F85C32C8
:103A200007F50C731846FDF70DFF07F53473A3F582
:103A3000EE7407F10800042328220421FFF766FC36
:103A400007F53473A3F532731D460FCD0FC495E807
:103A5000070084E8070007F50C7107F5D07306939B
:103A60004FF000024FF00003CDE90423002303933D
:103A70000023029307F51473019307F1F4030093F5
:103A80004FF064024FF000030846FFF7D5F80346F5
:103A9000002B3CD107F53473A3F59873D3E90623C3
:103AA000134334D107F53473A3F59873D3E908238E
:103AB000D11E0B432BD107F53473A3F59873D3E9CB
:103AC000080107F53473A3F59873D3E90623B0EB27
:103AD000020A61EB030BAAF1030353EA0B0316D1AD
:103AE00007F53473A3F59873D3E9120107F534731E
:103AF000A3F59873D3E91023B0EB020861EB030937
:103B0000A8F1030353EA090301D1012300E00023D4
:103B100087F8A43297F8A43203F0010387F8A4329F
:103B200007F5887303211846FFF716FC07F5347371
:103B3000A3F5E07302221A7407F53473A3F5E0735A
:103B400064225A8007F53473A3F5E07366229A80E5
:103B500007F53473A3F5E0734FF47A729A6107F5B1
:103B60003473A3F5E0734FF48262DA6107F53473BE
:103B7000A3F5E0734FF487621A6207F53473A3F577
:103B8000E07340F2ED329A6307F53473A3F5E07306
:103B900040F21542DA6307F53473A3F5E07340F29F
:103BA0003D421A6407F53473A3F5E07340F2E33243
:103BB0009A6607F58873C7F85C3207F50C731846E8
:103BC000FDF740FE07F53473A3F5EE7407F1080026
:103BD000032328220221FFF799FB07F53473A3F58D
:103BE00032731D460FCD0FC495E8070084E8070027
:103BF00007F50C7107F5D07306934FF000024FF0F4
:103C00000003CDE90423002303930023029307F567
:103C10001473019307F1F40300934FF064024FF023
:103C200000030846FFF708F80346002B3CD107F5D0
:103C30003473A3F598735B78002B35D007F5347394
:103C4000A3F598739B6D032B2ED107F53473A3F561
:103C500098735B6D022B27D107F53473A3F5987326
:103C6000DB6D012B20D107F53473A3F598731B7915
:103C7000022B19D107F53473A3F5E073D3F88C3018
:103C8000022B11D107F53473A3F5E073DB6EB3F5A6
:103C9000826F09D107F53473A3F5E0731B6FB3F599
:103CA000876F01D1012300E0002387F8A33297F842
:103CB000A33203F0010387F8A33207F588730321C9
:103CC0001846FFF749FB07F53473A3F5E073642248
:103CD0001A8007F53473A3F5E07365225A8007F55F
:103CE0003473A3F5E07366229A8007F53473A3F565
:103CF000E0734FF47A729A6107F53473A3F5E073B9
:103D000040F26542DA6107F53473A3F5E0734FF4CE
:103D100091621A6207F53473A3F5E07340F2ED3255
:103D20009A6307F53473A3F5E07340F26A42DA63ED
:103D300007F53473A3F5E07340F28D421A6407F57A
:103D40003473A3F5E07340F2E3329A6607F58873A3
:103D5000C7F85C3207F50C731846FDF773FD07F5DD
:103D60003473A3F5EE7407F108000323282203211E
:103D7000FFF7CCFA07F53473A3F532731D460FCD68
:103D80000FC495E8070084E8070007F50C7107F5F4
:103D9000D07306934FF000024FF00003CDE90423E7
:103DA000002303930023029307F51473019307F193
:103DB000F40300934FF064024FF000030846FEF74F
:103DC0003BFF0346002B2ED107F53473A3F5987300
:103DD000DB6E022B27D107F53473A3F598731B6FA5
:103DE000012B20D107F53473A3F598735B6F552B26
:103DF00019D107F53473A3F5E073D3F88C30022B97
:103E000011D107F53473A3F5E073DB6EB3F5826F60
:103E100009D107F53473A3F5E0731B6FB3F5916F08
:103E200001D1012300E0002387F8A23297F8A232E3
:103E300003F0010387F8A23207F5887302211846C0
:103E4000FFF78AFA07F53473A3F5E0734FF6FE72B5
:103E50001A8007F53473A3F5E07301225A8007F541
:103E60003473A3F5E0736FF00F029A6107F53473B2
:103E7000A3F5E0731022DA6107F53473A3F5E0735C
:103E80006FF00A029A6307F53473A3F5E073152205
:103E9000DA6307F53473A3F5E0736FF01F029A66D7
:103EA00007F58873C7F85C3207F50C731846FDF701
:103EB000C9FC07F53473A3F5EE7407F1080002237B
:103EC00020220221FFF722FA07F53473A3F532739B
:103ED0001D460FCD0FC495E8070084E8070007F5DD
:103EE0000C7107F5D07306934FF000024FF00003FA
:103EF000CDE90423002303930023029307F51473F1
:103F0000019307F1F40300934FF6FE724FF00003A4
:103F10000846FEF791FE0346002B24D107F53473C3
:103F2000A3F59873D3F88030252B1CD107F5347393
:103F3000A3F59873DB6E002B15D107F53473A3F549
:103F40009873D3E91023DB4911440B430BD107F5D8
:103F50003473A3F59873D3E91223A2F101110B4333
:103F600001D1012300E0002387F8A13297F8A132A4
:103F700003F0010387F8A13207F58873082118467A
:103F8000FFF7EAF907F53473A3F5E07364221A80AA
:103F900007F53473A3F5E07365225A8007F534738F
:103FA000A3F5E07363229A8007F53473A3F5E073F9
:103FB0006522DA8007F53473A3F5E07364221A8171
:103FC00007F53473A3F5E07363225A8107F5347360
:103FD000A3F5E07364229A8107F53473A3F5E073C7
:103FE0007322DA810023C7F8CC3228E0D7F8CC223C
:103FF00013469B001344DB0003F57A7107F5347315
:10400000A3F5E073D7F8CC22063243F8221007F567
:104010003473A3F5E073D7F8CC22063253F822307C
:10402000591D07F53473A3F5E073D7F8CC220E328F
:1040300043F82210D7F8CC320133C7F8CC32D7F886
:10404000CC32072BD2D907F53473A3F5E07340F2D5
:10405000E3329A6607F58873C7F85C3207F50C738C
:104060001846FDF7EFFB07F53473A3F5EE7407F17F
:104070000800082328220821FFF748F907F53473C0
:10408000A3F532731D460FCD0FC495E8070084E8F1
:10409000070007F50C7107F5D07306934FF0000287
:1040A0004FF00003CDE904230823039307F1B00385
:1040B000029307F51473019307F1F40300934FF093
:1040C00064024FF000030846FEF7B6FD0346002BDE
:1040D00034D107F53473A3F598739B78002B2DD05A
:1040E00007F53473A3F59873D3F88430082B25D1E2
:1040F00007F53473A3F59873D3F88830012B1DD1DD
:1041000007F53473A3F59873D3F88C30072B15D1CA
:1041100007F53473A3F59873D3E90E23A2F5C8010C
:104120000B430BD107F53473A3F59873D3E90C2334
:10413000614911440B4301D1012300E0002387F8BA
:10414000A03297F8A03203F0010387F8A03207F5F8
:10415000887308211846FFF7FFF80023C7F8C83214
:104160000DE007F53473A3F5E073D7F8C822642196
:1041700023F81210D7F8C8320133C7F8C832D7F87D
:10418000C832062BEDD907F53473A3F5E073652229
:10419000DA810023C7F8C43228E0D7F8C4221346D6
:1041A0009B001344DB0003F57A7107F53473A3F524
:1041B000E073D7F8C422063243F8221007F53473AF
:1041C000A3F5E073D7F8C422063253F82230591D04
:1041D00007F53473A3F5E073D7F8C4220E3243F821
:1041E0002210D7F8C4320133C7F8C432D7F8C4322A
:1041F000072BD2D907F53473A3F5E07340F2E3320D
:104200009A6607F58873C7F85C3207F50C73184691
:10421000FDF718FB07F53473A3F5EE7407F10800FA
:10422000082328220821FFF771F807F53473A3F556
:1042300032731D460FCD0FC495E8070084E80700D0
:1042400007F50C7107F5D07306934FF000024FF09D
:104250000003CDE904230823039307F170030293BD
:1042600007F51473019307F1F40300934FF0640210
:104270004FF000030846FEF7DFFC0346002B1DD17C
:1042800007F53473A3F598739B78002B16D007F5C8
:104290003473A3F59873D3F88830012B0ED107F54A
:1042A0003473A3F59873D3F88C30072B06D1012310
:1042B00005E000BF0200FFFF00209AFF002387F8FF
:1042C0009F3297F89F3203F0010387F89F3207F57A
:1042D000887308211846FFF73FF80023C7F8C0325B
:1042E0000DE007F53473A3F5E073D7F8C02264211D
:1042F00023F81210D7F8C0320133C7F8C032D7F80C
:10430000C032062BEDD907F53473A3F5E0736522AF
:10431000DA810023C7F8BC3228E0D7F8BC22134664
:104320009B001344DB0003F57A7107F53473A3F5A2
:10433000E073D7F8BC22063243F8221007F5347335
:10434000A3F5E073D7F8BC22063253F82230591D8A
:1043500007F53473A3F5E073D7F8BC220E3243F8A7
:104360002210D7F8BC320133C7F8BC32D7F8BC32C0
:10437000072BD2D907F53473A3F5E07340F2E3328B
:104380009A6607F58873C7F85C3207F50C73184610
:10439000FDF758FA07F53473A3F5EE7407F108003A
:1043A000082328220821FEF7B1FF07F53473A3F58F
:1043B00032731D460FCD0FC495E8070084E807004F
:1043C00007F50C7107F5D07306934FF009024FF013
:1043D0000003CDE904230823039307F1300302937C
:1043E00007F51473019307F1F40300934FF064028F
:1043F0004FF000030846FEF71FFC0346002B18D1C0
:1044000007F53473A3F598739B78002B11D007F54B
:104410003473A3F59873D3F88830002B09D107F5CE
:104420003473A3F59873D3F88C30082B01D1012392
:1044300000E0002387F89E3297F89E3203F00103D4
:1044400087F89E3297F89F32002B05D097F89E325E
:10445000002B01D0012300E0002387F89D3297F85C
:104460009D3203F0010387F89D3207F50C7318465F
:10447000FDF7E8F94FF000024FF00003C7E90A2307
:1044800007F50C7007F1280300930A230A22642120
:10449000FDF7FCF90346002B0CBF0123002387F82E
:1044A0009C32B7F83232A7F89A32D7E98E23C7E99F
:1044B000A423D7F84032C7F88C32D7F84432C7F873
:1044C000883207F50C7007F1280300930A231422A1
:1044D000C821FDF7DBF90346042B1FD1B7F83232B0
:1044E000B7F89A229A4219D1D7E98E23D7E9A401C5
:1044F000994208BF904211D1D7F84032D7F88C22A8
:104500009A420BD1D7F84432D7F888229A4205D183
:10451000D7F84832012B01D1012300E0002387F8AE
:10452000873297F8873203F0010387F8873297F8CC
:10453000BB32002B35D097F8BA32002B31D097F828
:10454000B932002B2DD097F8A732002B29D097F83D
:10455000A632002B25D097F8A532002B21D097F852
:10456000A432002B1DD097F8A332002B19D097F856
:10457000A232002B15D097F8A132002B11D097F85A
:10458000A032002B0DD097F89D32002B09D097F860
:104590009C32002B05D097F88732002B01D00123E5
:1045A00000E0002303F00103DBB2184607F534777F
:1045B000BD46BDE8B08F00BF80B500AF0CF0D6FBA4
:1045C00000F056F800F024FC00F0BCFB00F0BAF854
:1045D00000F0AAF900F060FA00F042F900F088FB60
:1045E00000F010F900F06AF900F0D4FA00F056FB80
:1045F000FCF7B2FFFDF7EEFB034683F00103DBB2ED
:10460000002B01D001F05AF8FEF7CEFE034683F0EE
:104610000103DBB2002B01D001F050F801F068F883
:1046200001F07AF8034683F00103DBB2002B01D0DE
:1046300001F044F813F03CFE0A4A00210A4813F046
:1046400096FE0346094A1360FCF7EAFD034683F031
:104650000103DBB2002B01D001F030F813F04CFE67
:1046600000BFFDE7500F0208414F0008300800204E
:1046700080B594B000AF07F1200330220021184626
:1046800016F0EAFF07F10C0300221A605A609A60E4
:10469000DA601A610023BB60284B1B6C274A43F089
:1046A00080531364254B1B6C03F08053BB60BB68C5
:1046B00000237B60224B1B68214A43F48043136034
:1046C0001F4B1B6803F480437B607B6801233B62C4
:1046D0004FF480337B620223BB634FF48003FB63A0
:1046E00004233B64A8237B640223BB640423FB6490
:1046F00007F1200318460FF00FFC0346002B01D0F2
:1047000000F0DCFF0F23FB6002233B6100237B6191
:104710004FF4A053BB614FF48053FB6107F10C03CE
:10472000052118460FF070FE0346002B01D000F063
:10473000C5FF00BF5037BD4680BD00BF00380240F6
:104740000070004080B584B000AF3B4600221A6084
:104750005A609A60DA60284B284A1A60264B4FF458
:1047600080325A60244B00229A60234B01221A6146
:10477000214B01221A76204B002283F820201E4B69
:104780000022DA621C4B1E4A9A621B4B0022DA603E
:10479000194B0222DA61184B012283F83020164BA4
:1047A00001225A6114480CF023FB0346002B01D070
:1047B00000F084FF01233B6001237B600523BB6085
:1047C0003B4619460C480CF085FC0346002B01D0F3
:1047D00000F074FF04233B6002237B603B461946D4
:1047E00005480CF077FC0346002B01D000F066FF73
:1047F00000BF1037BD4680BD880200200020014068
:104800000100000F80B500AF124B134A1A60114B24
:10481000124A5A600F4B00229A600E4B0022DA6057
:104820000C4B4FF480421A610A4B00225A61094B2B
:1048300000229A61074B0022DA61064B00221A62BD
:1048400004480DF049FD0346002B01D000F036FF6F
:1048500000BF80BD3003002000540040801A0600D5
:1048600080B500AF124B134A1A60114B124A5A60BE
:104870000F4B00229A600E4B0022DA600C4B4FF473
:1048800080421A610A4B00225A61094B00229A6148
:10489000074B0022DA61064B00221A6204480DF031
:1048A0001BFD0346002B01D000F008FF00BF80BDB8
:1048B0008403002000580040A086010080B500AFAE
:1048C000174B184A1A60164B4FF482725A60144BF9
:1048D00000229A60124B0022DA60114B02221A6108
:1048E0000F4B01225A610E4B4FF400729A610C4B30
:1048F0001822DA610A4B00221A62094B00225A621E
:10490000074B00229A62064B0A22DA6204480FF033
:10491000CDFF0346002B01D000F0D0FE00BF80BDCC
:10492000380400200030014080B596B000AF07F198
:10493000480300221A605A609A60DA6007F1400367
:1049400000221A605A6007F1240300221A605A609C
:104950009A60DA601A615A619A613B1D2022002137
:10496000184616F079FE4A4B4A4A1A60484B002214
:104970005A60474B00229A60454B40F66A02DA6063
:10498000434B00221A61424B00225A61404B0022E5
:104990009A613F4811F090F90346002B01D000F0D6
:1049A0008DFE4FF48053BB6407F148031946384825
:1049B00011F01AFE0346002B01D000F07FFE3448B0
:1049C00011F03AFA0346002B01D000F077FE0023E5
:1049D0003B6400237B6407F1400319462C4812F026
:1049E0002DFB0346002B01D000F068FE70237B6294
:1049F0000023BB620023FB6200233B6300237B6335
:104A00000023BB630023FB6307F124030022194644
:104A10001F4811F027FD0346002B01D000F04EFE89
:104A200007F1240304221946194811F01BFD03461F
:104A3000002B01D000F042FE07F1240308221946A2
:104A4000134811F00FFD0346002B01D000F036FE95
:104A500000237B600023BB600023FB6000233B61DD
:104A600000237B614FF40053BB6100233B623B1D7D
:104A70001946074812F05EFB0346002B01D000F0F8
:104A80001DFE03480BF008FE00BF5837BD4680BD31
:104A9000500500200000014080B58AB000AF07F14A
:104AA000180300221A605A609A60DA6007F1100356
:104AB00000221A605A603B4600221A605A609A60CF
:104AC000DA60334B4FF080421A60314B00225A605B
:104AD0002F4B00229A602E4B4FF0FF32DA602C4BA6
:104AE00000221A612A4B00229A61294811F0E4F849
:104AF0000346002B01D000F0E1FD4FF48053BB6171
:104B000007F118031946224811F06EFD0346002BE9
:104B100001D000F0D3FD1E4811F0A6FA0346002B89
:104B200001D000F0CBFD00233B6100237B6107F146
:104B300010031946164812F081FA0346002B01D0E3
:104B400000F0BCFD00233B6001237B600023BB60C1
:104B50000023FB603B46002219460D4811F0E5FB9F
:104B60000346002B01D000F0A9FD02233B60022385
:104B70007B603B4604221946054811F0D6FB0346EC
:104B8000002B01D000F09AFD00BF2837BD4680BD44
:104B90009805002080B592B000AF07F140030022D5
:104BA0001A605A6007F1240300221A605A609A6062
:104BB000DA601A615A619A613B1D20220021184671
:104BC00016F04AFD334B344A1A60324B53225A6076
:104BD000304B00229A602F4B40F2E732DA602D4BC7
:104BE00000221A612B4B00225A612A4B00229A6143
:104BF000284811F021F90346002B01D000F05EFD9A
:104C000000233B6400237B6407F1400319462148DD
:104C100012F014FA0346002B01D000F04FFD602380
:104C20007B620023BB620023FB6200233B63002303
:104C30007B630023BB630023FB6307F12403002293
:104C40001946144811F00EFC0346002B01D000F069
:104C500035FD00237B600023BB600023FB60002345
:104C60003B6100237B614FF40053BB6100233B6237
:104C70003B1D1946074812F05DFA0346002B01D090
:104C800000F01CFD03480BF007FD00BF4837BD4690
:104C900080BD00BFE00500200004014080B500AFEA
:104CA000114B124A1A60104B4FF461225A600E4B9E
:104CB00000229A600C4B0022DA600B4B00221A6132
:104CC000094B0C225A61084B00229A61064B0022C4
:104CD000DA61054812F094FA0346002B01D000F087
:104CE000EDFC00BF80BD00BF28060020004400404E
:104CF00080B500AF114B124A1A60104B4FF461227D
:104D00005A600E4B00229A600C4B0022DA600B4B6B
:104D100000221A61094B0C225A61084B00229A6149
:104D2000064B0022DA61054812F06AFA0346002BAE
:104D300001D000F0C3FC00BF80BD00BF6C060020A6
:104D40000048004080B582B000AF00237B602F4B4D
:104D50001B6B2E4A43F4001313632C4B1B6B03F4A1
:104D600000137B607B6800233B60284B1B6B274A4A
:104D700043F480031363254B1B6B03F480033B60F8
:104D80003B68002205210C200CF084FC0C200CF068
:104D90009DFC002205210E200CF07CFC0E200CF066
:104DA00095FC0022052110200CF074FC10200CF062
:104DB0008DFC0022052111200CF06CFC11200CF060
:104DC00085FC002205212F200CF064FC2F200CF024
:104DD0007DFC0022052138200CF05CFC38200CF012
:104DE00075FC002205213A200CF054FC3A200CF00E
:104DF0006DFC002205213B200CF04CFC3B200CF00C
:104E000065FC00BF0837BD4680BD00BF00380240CA
:104E100080B58AB000AF07F1140300221A605A600F
:104E20009A60DA601A6100233B61414B1B6B404A78
:104E300043F0040313633E4B1B6B03F004033B611D
:104E40003B690023FB603A4B1B6B394A43F08003FC
:104E50001363374B1B6B03F08003FB60FB6800237D
:104E6000BB60334B1B6B324A43F001031363304B7F
:104E70001B6B03F00103BB60BB6800237B602C4B02
:104E80001B6B2B4A43F002031363294B1B6B03F08C
:104E900002037B607B6800224EF2070125480DF07B
:104EA000E7F900224FF4006123480DF0E1F90022F8
:104EB000402122480DF0DCF94EF207037B6101230B
:104EC000BB610023FB6100233B6207F11403194619
:104ED00018480DF019F801237B610023BB61012301
:104EE000FB6107F11403194613480DF00DF84FF458
:104EF00000637B610123BB610023FB6100233B62F4
:104F000007F1140319460C480CF0FEFF40237B61A7
:104F10000123BB610023FB6100233B6207F1140303
:104F2000194606480CF0F0FF00BF2837BD4680BD8B
:104F30000038024000080240000002400004024025
:104F40002DE9F041ADF53C7D0CAF07F53073A3F5CD
:104F50002B73186007F508731846FDF7ABF8FCF7DC
:104F600003FB034607F5E070BA4A602116F002FB26
:104F7000C7F8BC02D7F8BC325F2B02DD5F23C7F84D
:104F8000BC32D7F8BC329AB207F5E0713223B2488E
:104F900012F083F9FCF75AF98046FCF761F90546EF
:104FA000FCF768F90646FCF76FF93861AB4B1C68F3
:104FB000FCF7DAFA034607F1C000049303943B6957
:104FC0000293019600954346A54A4FF4807116F06E
:104FD000D1FAC7F8B802D7F8B832FF2B02DDFF23A9
:104FE000C7F8B832D7F8B8329AB207F1C001322305
:104FF000994812F052F901219A480DF021F903461F
:10500000002B0CBF0123002387F8AF3297F8AF3293
:10501000002B08D0944B1B7883F00103DBB2002BEC
:1050200001D0FCF704F9904A97F8AF3213704FF4AF
:1050300080418E480DF035F9FCF700F90346002B4E
:1050400003D0C82013F026FA17E307F1180307F579
:10505000087003224FF40041FDF741F8034687F83A
:10506000AE3297F8AE32002B2BD097F8AE2207F570
:105070003073A3F52A735B7F194607F53073A3F5E8
:105080002A739B7F07F13C00019300911346784AF5
:10509000602116F06FFAC7F8B402D7F8B4325F2B6C
:1050A00002DD5F23C7F8B432D7F8B4329AB207F101
:1050B0003C013223684812F0F0F8C82013F0EAF9F6
:1050C000DBE207F53073A3F52A731B88A7F8AC322F
:1050D000B7F8AC321846FCF751FAF0EE407A9FED83
:1050E000657A67EE877AB6EE007A77EE877AFCEE1D
:1050F000E77A17EE903AC7F8A83207F53073A3F5B0
:10510000017300221A6007F1BC031846FCF756FA37
:10511000034687F8A73297F8A73283F00103DBB282
:10512000002B1BD107F53073A3F501731B78002BFF
:1051300014D107F53073A3F501735B78002B0DD103
:1051400007F53073A3F501739B78002B06D107F5A3
:105150003073A3F50173DB78002B4ED0B7F8AC4267
:10516000D7F8A832444AA2FB03235909D7F8A8224A
:10517000414BA3FB02035B09642000FB03F3D31A3A
:1051800097F8A7223A6107F53070A0F50170007812
:10519000054607F53070A0F501704078064607F522
:1051A0003070A0F501708078F86007F53070A0F5D8
:1051B0000170C078024607F13C000692FA68059239
:1051C000049603953A6902920193009123462B4A73
:1051D000802116F0CFF9C7F8B002D7F8B0327F2B94
:1051E00002DD7F23C7F8B032D7F8B0329AB207F1A8
:1051F0003C013223184812F050F8214B1B7883F001
:105200000103DBB2002B4DD01D4B01221A701D4A49
:10521000B7F8AC3213801C4B00221A601B4B0022E3
:105220001A601A4B1B681A4A13601A4B00221A6044
:1052300019494FF000024FF00003C1E9002317495C
:105240004FF000024FF00003C1E90023144B00228D
:105250001A604CE05CD501086C06002000000020BC
:1052600078D5010800000240340800200008024000
:10527000FCD501080000C8421F85EB5140D601084B
:105280003508002036080020380800203C0800209F
:105290004008002044080020480800205008002052
:1052A00058080020A24B1B88B7F8AC22D31A9BB237
:1052B0001BB2C7F8A0329E4AB7F8AC3213809D4BA0
:1052C0001A68D7F8A03213449A4A1360D7F8A0326C
:1052D000002BB8BF5B42C7F89C32974B1B68D7F8CE
:1052E0009C229A4203DD944AD7F89C321360914B7A
:1052F0001A68924B1B689A4203DA8E4B1B688F4ADE
:1053000013608C4B1A688E4B1B689A4203DD894BE5
:105310001B688B4A1360874B1B681846FBF702F922
:10532000884BD3E90023FAF7B1FF02460B468549C3
:10533000C1E900237F4B1B681846FBF7F3F80446CE
:105340000D467C4B1B681846FBF7ECF802460B46F3
:1053500020462946FBF750F902460B4610461946EF
:10536000794BD3E90023FAF791FF02460B467649C1
:10537000C1E90023754B1B680133744A1360734BFA
:105380001B68182B40F276816E4BD3E900456F4BBA
:105390001B681846FBF7B6F802460B46204629461E
:1053A000FBF754FA02460B46C7E9A423664BD3E940
:1053B0000045664B1B681846FBF7A4F802460B46EF
:1053C00020462946FBF742FA02460B4614461D4684
:1053D000D7E9A423D7E9A401FBF70EF902460B464F
:1053E00020462946FAF750FF02460B46C7E9A2239A
:1053F0004FF000024FF00003D7E9A201FBF78CFB4E
:105400000346002B08D097EDA20B16F009FEB0EE74
:10541000407AF0EE607A01E09FED437B87EDA07B60
:10542000474B1A68454B1B68D31AC7F87C32414B6F
:105430001B68C7F87832404B1B6840F2DA2293426F
:105440000CDCD7F87832424A934207DBD7F878323F
:1054500040F63962934201DC012300E0002387F823
:10546000773297F8773203F0010387F87732D7F86D
:105470007C329BB21846FCF781F8F0EE407A9FED43
:10548000367A67EE877AB6EE007A77EE877AFCEEA8
:10549000E77A17EE903AC7F870324FF000022D4BC2
:1054A000D7E9A001FAF7F2FE02460B46104619466C
:1054B000FBF752FB03469BB21846FCF75FF8F0EE91
:1054C000407A9FED257A67EE877AB6EE007A77EE1E
:1054D000877AFCEEE77A17EE903AC7F86C32164BF3
:1054E0001B689BB21846FCF749F8F0EE407A9FED36
:1054F0001A7A67EE877AB6EE007A77EE877AFCEE54
:10550000E77A17EE903AC7F86832D7F87832DB0FAF
:1055100087F8673297F86732002B1FD0D7F87832B8
:105520009BB25B429BB21CE0000000000000000048
:1055300036080020380800204408002040080020D9
:105540003C0800204808002050080020580800208F
:10555000C7F1FFFF0000E03F0000C842D7F87832F3
:105560009BB21846FCF70AF8F0EE407A1FED067A77
:1055700067EE877AB6EE007A77EE877AFCEEE77A06
:1055800017EE903AC7F86032D7F870323B4AA2FB68
:1055900003235D09D7F87022384BA3FB02135B0984
:1055A000642101FB03F3D31AD7F86C223349A1FB22
:1055B00002125609D7F86C12304AA2FB01025209B6
:1055C000642000FB02F28A1A97F86712002902D0C1
:1055D0002B49396101E02B493961D7F8601227481E
:1055E000A0FB01014909F960D7F860022349A1FB3A
:1055F00000414909642404FB01F1411AD7F868020B
:105600001E4CA4FB00404009B860D7F868421B4814
:10561000A0FB04C040094FF0640C0CFB00F0201A02
:10562000194C24687C6097F8774207F13C0C0A9487
:105630007C6809940890B86807900691F96805910C
:1056400039690491039202960193009505230F4A4C
:105650008021604615F08EFFC7F85C02D7F85C32F7
:105660009AB207F13C013223094811F016FE094BAA
:1056700000221A70C82012F00DFFBCE41F85EB5108
:1056800098D601089CD6010858080020A0D6010829
:105690006C0600203508002080B582B000AF78602D
:1056A0007B681B68044A934201D10BF081FB00BF69
:1056B0000837BD4680BD00BF0020004080B582B0E5
:1056C00000AF72B600BF4FF4005107480CF0E9FD7F
:1056D00000237B6002E07B6801337B607B68034AC8
:1056E0009342F8D9EFE700BF000802401FA107006E
:1056F00080B500AF00F002FA044905480AF018FA34
:105700000448FCF7D7FC00BF80BD00BF740F02083F
:105710005C0800209008002080B58CB000AF0AF033
:105720005FFB034683F00103DBB2002B01D00023B3
:105730005FE0B0EE000A31480AF039FA304B01223E
:105740001A702F4B01225A62B6EE000A7B2000F03D
:1057500021FA00F083F83B1D184600F087F8D7EDDA
:10576000017AF5EE407AF1EE10FA37D1D7ED027AF0
:10577000F5EE407AF1EE10FA30D1D7ED037AF5EE7E
:10578000407AF1EE10FA29D1D7ED047AF5EE407A9D
:10579000F1EE10FA22D1D7ED057AF5EE407AF1EE6E
:1057A00010FA1BD13B7E83F00103DBB2002B15D036
:1057B000FB69002B12D13B8C002B0FD1D7ED097A5E
:1057C000F5EE407AF1EE10FA08D197F8283083F020
:1057D0000103DBB2002B01D0012300E0002387F896
:1057E0002F3097F82F3003F0010387F82F3097F808
:1057F0002F3018463037BD4680BD00BF5C08002002
:105800009008002080B500AF00F0A0F900BF80BD77
:1058100080B500AF00F0ACF900BF80BD80B582B0AC
:1058200000AF034687ED000AFB80FB8897ED000A76
:10583000184600F0AFF900BF0837BD4680BD000034
:1058400080B500AF03480AF090F90348FCF732FC3A
:1058500000BF80BD5C0800209008002080B500AF2C
:10586000FFF7EEFF00F0F2F900BF80BD80B586B013
:1058700000AF78607B68002B2BD0184BDA697B680F
:105880001A60164B1A6A7B685A60144B5A6A7B6816
:105890009A60124B9A6A7B68DA60104BDA6A7B680E
:1058A0001A610F4B1A787B681A750D4B5A6A7B6820
:1058B0009A6107F10C03184600F0D4F9BA897B68A5
:1058C0009A833A697B681A623A7D7B6883F8242060
:1058D00000E000BF1837BD4680BD00BF5C08002057
:1058E0009008002080B58EB000AF87ED010A3860C7
:1058F0003B68002B01D101235AE007F10803032282
:105900004FF400512C48FCF7EAFB034687F833308C
:1059100097F83330002B02D097F8333048E0D7E9BE
:10592000042310461946FCF79BFCB0EE407AD7EDF5
:10593000017A77EE677AC7ED0D7A07E0D7ED0D7A39
:105940009FED1E7A77EEC77AC7ED0D7AD7ED0D7A07
:105950009FED1B7AF4EEC77AF1EE10FAEEDC07E069
:10596000D7ED0D7A9FED157A77EE877AC7ED0D7A30
:10597000D7ED0D7A9FED137AF4EEC77AF1EE10FAB7
:10598000EED43B687A6B1A6097ED0D0A0E480AF068
:105990000EF987ED0B0AD7ED0B7AFDEEE77A17EEDD
:1059A000903A9BB2B7EE000A184600F0F3F80023D5
:1059B00018463837BD4680BD900800200000B4432B
:1059C00000003443000034C35C08002080B483B07E
:1059D00000AF0346FB80FB88074AA2FB0312520B71
:1059E00042F6AB2101FB02F29B1A9BB218460C3720
:1059F000BD465DF8047B70470380FEBF80B400AFF6
:105A000006231846BD465DF8047B704780B400AF9E
:105A10000C231846BD465DF8047B704780B500AF87
:105A200005480AF0C8F9F0EE407AFDEEE77A17EE85
:105A3000903A184680BD00BF5C08002080B400AFDB
:105A4000024B1846BD465DF8047B704718D7010825
:105A500080B586B000AF786087ED000A7B6807EEFE
:105A6000903AF8EE677A9FED227A27EE877ADFED9B
:105A7000216AC7EE267AC7ED047A97ED040A16F07C
:105A80005FFB87ED030AD7ED037AB6EE007A67EE87
:105A9000877AB6EE007A77EE877A97ED007A67EE2E
:105AA000277AC7ED057AD7ED057AF5EEC07AF1EEE3
:105AB00010FA02D54FF000037B61D7ED057AB7EEFF
:105AC000007AF4EEC77AF1EE10FA02DD4FF07E5361
:105AD0007B61D7ED057A9FED087A67EE877AFCEE59
