:020000040800F2
:10000000000002202DCD000859CB000861CB00086C
:1000100069CB000871CB000879CB00080000000014
:100020000000000000000000000000002162010844
:1000300081CB00080000000071640108C938010884
:100040007DCD00087DCD00087DCD00087DCD000868
:100050007DCD00087DCD00087DCD00087DCD000858
:100060007DCD00087DCD00087DCD00087DCD000848
:1000700091CB00087DCD0008A5CB00087DCD000800
:10008000B9CB0008CDCB0008E1CB00087DCD00083E
:100090007DCD00087DCD00087DCD00087DCD000818
:1000A0007DCD00087DCD00087DCD00087DCD000808
:1000B000F5CB00087DCD00087DCD00087DCD000882
:1000C0007DCD000809CC00081DCC00087DCD0008BE
:1000D0007DCD00087DCD000831CC000845CC00085E
:1000E0007DCD00087DCD00087DCD00087DCD0008C8
:1000F0007DCD000859CC00087DCD000875CC0008E6
:100100007DCD00087DCD00087DCD00087DCD0008A7
:100110007DCD00087DCD00087DCD00087DCD000897
:1001200089CC00087DCD00087DCD00087DCD00087C
:100130007DCD000800000000000000007DCD00081B
:100140007DCD00087DCD00087DCD00087DCD000867
:100150007DCD00087DCD00087DCD00087DCD000857
:100160007DCD00087DCD00087DCD00087DCD000847
:100170007DCD00087DCD00080000000000000000DB
:080180007DCD00087DCD0008D3
:1001900010B5054C237833B9044B13B10448AFF3C1
:1001A00000800123237010BD6000002000000000CB
:1001B000DC87010808B5034B1BB103490348AFF3C3
:1001C000008008BD0000000064000020DC870108FA
:1001D000034613F8012B002AFBD1181A0138704787
:1001E00001F0FF01102A2BDB10F0070F08D010F8E8
:1001F000013B013A8B422DD010F0070F42B3F6D1EC
:10020000F0B441EA012141EA014122F007047FF004
:1002100000070023F0E80256083C85EA010586EA5B
:10022000010685FA47F5A3FA87F586FA47F6A5FA97
:1002300087F68EB9EED1F0BC01F0FF0102F00702A3
:1002400032B110F8013B013A83EA010313B1F8D14E
:100250000020704701387047002D06BF354603382F
:10026000073815F0010F07D1013015F4807F02BF68
:10027000013015F4C03F0130F0BC0138704700BFB9
:1002800081F0004102E000BF83F0004330B54FEA47
:1002900041044FEA430594EA050F08BF90EA020FB4
:1002A0001FBF54EA000C55EA020C7FEA645C7FEA47
:1002B000655C00F0E2804FEA5454D4EB5555B8BF6A
:1002C0006D420CDD2C4480EA020281EA030382EADB
:1002D000000083EA010180EA020281EA0303362D6D
:1002E00088BF30BD11F0004F4FEA01314FF4801C40
:1002F0004CEA113102D0404261EB410113F0004F52
:100300004FEA03334CEA133302D0524263EB430308
:1003100094EA050F00F0A780A4F10104D5F1200EA6
:100320000DDB02FA0EFC22FA05F2801841F1000101
:1003300003FA0EF2801843FA05F359410EE0A5F1D5
:1003400020050EF1200E012A03FA0EFC28BF4CF006
:10035000020C43FA05F3C01851EBE37101F00045BC
:1003600007D54FF0000EDCF1000C7EEB00006EEBC9
:100370000101B1F5801F1BD3B1F5001F0CD3490853
:100380005FEA30004FEA3C0C04F101044FEA4452AA
:1003900012F5800F80F09A80BCF1004F08BF5FEA31
:1003A000500C50F1000041EB045141EA050130BD11
:1003B0005FEA4C0C404141EB0101013C28BFB1F523
:1003C000801FE9D291F0000F04BF01460020B1FA6E
:1003D00081F308BF2033A3F10B03B3F120020CDA41
:1003E0000C3208DD02F1140CC2F10C0201FA0CF01F
:1003F00021FA02F10CE002F11402D8BFC2F1200C84
:1004000001FA02F120FA0CFCDCBF41EA0C01904039
:10041000E41AA2BF01EB0451294330BD6FEA040482
:100420001F3C1CDA0C340EDC04F11404C4F120026D
:1004300020FA04F001FA02F340EA030021FA04F37F
:1004400045EA030130BDC4F10C04C4F1200220FAD6
:1004500002F001FA04F340EA0300294630BD21FA14
:1004600004F0294630BD94F0000F83F4801306BFDA
:1004700081F480110134013D4EE77FEA645C18BFCE
:100480007FEA655C29D094EA050F08BF90EA020F65
:1004900005D054EA000C04BF1946104630BD91EA5D
:1004A000030F1EBF0021002030BD5FEA545C05D160
:1004B0004000494128BF41F0004130BD14F580049F
:1004C0003CBF01F5801130BD01F0004545F0FE4113
:1004D00041F470014FF0000030BD7FEA645C1ABF48
:1004E000194610467FEA655C1CBF0B46024650EA7F
:1004F000013406BF52EA033591EA030F41F40021AB
:1005000030BD00BF90F0000F04BF0021704730B530
:100510004FF4806404F132044FF000054FF0000105
:1005200050E700BF90F0000F04BF0021704730B5C6
:100530004FF4806404F1320410F0004548BF40429B
:100540004FF000013EE700BF42004FEAE2014FEAF0
:1005500031014FEA02701FBF12F07F4393F07F4FCB
:1005600081F06051704732F07F4208BF704793F0CE
:100570007F4F04BF41F40021704730B54FF46074E1
:1005800001F0004521F000411CE700BF50EA0102E4
:1005900008BF704730B54FF000050AE050EA01028D
:1005A00008BF704730B511F0004502D5404261EBFD
:1005B00041014FF4806404F132045FEA915C3FF43E
:1005C000D8AE4FF003025FEADC0C18BF03325FEADB
:1005D000DC0C18BF033202EBDC02C2F1200300FA8C
:1005E00003FC20FA02F001FA03FE40EA0E0021FAB1
:1005F00002F11444BDE600BF70B54FF0FF0C4CF49F
:10060000E06C1CEA11541DBF1CEA135594EA0C0F50
:1006100095EA0C0F00F0DEF82C4481EA030621EA8B
:100620004C5123EA4C5350EA013518BF52EA0335C6
:1006300041F4801143F4801338D0A0FB02CE4FF078
:100640000005E1FB02E506F00042E0FB03E54FF0A8
:100650000006E1FB03569CF0000F18BF4EF0010EA0
:10066000A4F1FF04B6F5007F64F5407404D25FEA9C
:100670004E0E6D4146EB060642EAC62141EA55514F
:100680004FEAC52040EA5E504FEACE2EB4F1FD0C91
:1006900088BFBCF5E06F1ED8BEF1004F08BF5FEA0F
:1006A000500E50F1000041EB045170BD06F00046C1
:1006B00046EA010140EA020081EA0301B4EB5C046E
:1006C000C2BFD4EB0C0541EA045170BD41F4801166
:1006D0004FF0000E013C00F3AB8014F1360FDEBF8B
:1006E000002001F0004170BDC4F10004203C35DA67
:1006F0000C341BDC04F11404C4F1200500FA05F3EA
:1007000020FA04F001FA05F240EA020001F000428A
:1007100021F0004110EBD37021FA04F642EB060100
:100720005EEA430E08BF20EAD37070BDC4F10C042A
:10073000C4F1200500FA04F320FA05F001FA04F2EE
:1007400040EA020001F0004110EBD37041F10001DA
:100750005EEA430E08BF20EAD37070BDC4F12005E5
:1007600000FA05F24EEA020E20FA04F301FA05F24D
:1007700043EA020321FA04F001F0004121FA04F2F5
:1007800020EA020000EBD3705EEA430E08BF20EAC5
:10079000D37070BD94F0000F0FD101F000464000FF
:1007A00041EB010111F4801F08BF013CF7D041EA81
:1007B000060195F0000F18BF704703F00046520085
:1007C00043EB030313F4801F08BF013DF7D043EA56
:1007D0000603704794EA0C0F0CEA135518BF95EA0C
:1007E0000C0F0CD050EA410618BF52EA4306D1D193
:1007F00081EA030101F000414FF0000070BD50EAB2
:10080000410606BF1046194652EA430619D094EA3B
:100810000C0F02D150EA013613D195EA0C0F05D125
:1008200052EA03361CBF104619460AD181EA030179
:1008300001F0004141F0FE4141F470014FF0000031
:1008400070BD41F0FE4141F4780170BD70B54FF0CC
:10085000FF0C4CF4E06C1CEA11541DBF1CEA13554C
:1008600094EA0C0F95EA0C0F00F0A7F8A4EB05042E
:1008700081EA030E52EA03354FEA013100F0888025
:100880004FEA03334FF0805545EA131343EA1263EE
:100890004FEA022245EA111545EA10654FEA0026A3
:1008A0000EF000419D4208BF964244F1FD0404F55C
:1008B000407402D25B084FEA3202B61A65EB0305B8
:1008C0005B084FEA32024FF480104FF4002CB6EB75
:1008D000020E75EB030E22BFB61A754640EA0C00F5
:1008E0005B084FEA3202B6EB020E75EB030E22BF35
:1008F000B61A754640EA5C005B084FEA3202B6EB76
:10090000020E75EB030E22BFB61A754640EA9C0034
:100910005B084FEA3202B6EB020E75EB030E22BF04
:10092000B61A754640EADC0055EA060E18D04FEAC2
:10093000051545EA16754FEA06164FEAC30343EA62
:1009400052734FEAC2025FEA1C1CC0D111F4801F2F
:100950000BD141EA00014FF000004FF0004CB6E728
:1009600011F4801F04BF01430020B4F1FD0C88BFC7
:10097000BCF5E06F3FF6AFAEB5EB030C04BFB6EBD2
:10098000020C5FEA500C50F1000041EB045170BDC5
:100990000EF0004E4EEA113114EB5C04C2BFD4EBF2
:1009A0000C0541EA045170BD41F480114FF0000E76
:1009B000013C90E645EA060E8DE60CEA135594EAF2
:1009C0000C0F08BF95EA0C0F3FF43BAF94EA0C0FF5
:1009D0000AD150EA01347FF434AF95EA0C0F7FF46A
:1009E00025AF104619462CE795EA0C0F06D152EABE
:1009F00003353FF4FDAE1046194622E750EA4106A2
:100A000018BF52EA43067FF4C5AE50EA41047FF4B2
:100A10000DAF52EA43057FF4EBAE12E74FF0FF3C17
:100A200006E000BF4FF0010C02E000BF4FF0010CE8
:100A30004DF804CD4FEA410C7FEA6C5C4FEA430C61
:100A400018BF7FEA6C5C1BD001B050EA410C0CBFB0
:100A500052EA430C91EA030F02BF90EA020F002012
:100A6000704710F1000F91EA030F58BF994208BF79
:100A700090422CBFD8176FEAE37040F00100704736
:100A80004FEA410C7FEA6C5C02D150EA013C07D18D
:100A90004FEA430C7FEA6C5CD6D152EA033CD3D0D8
:100AA0005DF8040B704700BF8446104662468C46D2
:100AB0001946634600E000BF01B5FFF7B7FF002805
:100AC00048BF10F1000F01BD4DF808EDFFF7F4FF2E
:100AD0000CBF012000205DF808FB00BF4DF808EDB9
:100AE000FFF7EAFF34BF012000205DF808FB00BFDC
:100AF0004DF808EDFFF7E0FF94BF012000205DF8FE
:100B000008FB00BF4DF808EDFFF7CEFF94BF0120B2
:100B100000205DF808FB00BF4DF808EDFFF7C4FFAB
:100B200034BF012000205DF808FB00BF4FEA410CF4
:100B30007FEA6C5C02D150EA013C0AD14FEA430CD7
:100B40007FEA6C5C02D152EA033C02D14FF0000014
:100B500070474FF0010070474A0011D212F50012A1
:100B600011D20DD56FF47873B3EB62520ED44FEA05
:100B7000C12343F0004343EA505323FA02F0704785
:100B80004FF00000704750EA013002D14FF0FF30C3
:100B900070474FF0000070474FEA4102B2F1E04366
:100BA00024BFB3F5001CDCF1FE5C0DD901F0004C54
:100BB0004FEAC0024CEA5070B2F1004F40EB8300A4
:100BC00008BF20F00100704711F0804F21D113F1D0
:100BD0003872BCBF01F00040704741F480114FEA09
:100BE0005252C2F11802C2F1200C10FA0CF320FA92
:100BF00002F018BF40F001004FEAC1234FEAD323AF
:100C000003FA0CFC40EA0C0023FA02F34FEA430318
:100C1000CCE77FEA625307D150EA01331EBF4FF0A1
:100C2000FE4040F44000704701F0004040F0FE40BC
:100C300040F40000704700BF80F0004002E000BFB9
:100C400081F0004142001FBF5FEA410392EA030FB7
:100C50007FEA226C7FEA236C6AD04FEA1262D2EB01
:100C60001363C1BFD218414048404140B8BF5B4206
:100C7000192B88BF704710F0004F40F4000020F09F
:100C80007F4018BF404211F0004F41F4000121F0B5
:100C90007F4118BF494292EA030F3FD0A2F10102FF
:100CA00041FA03FC10EB0C00C3F1200301FA03F13D
:100CB00000F0004302D5494260EB4000B0F5000F60
:100CC00013D3B0F1807F06D340084FEA310102F11F
:100CD0000102FE2A51D2B1F1004F40EBC25008BFD1
:100CE00020F0010040EA03007047490040EB00009B
:100CF000013A28BFB0F5000FEDD2B0FA80FCACF19C
:100D0000080CB2EB0C0200FA0CF0AABF00EBC250C8
:100D100052421843BCBFD0401843704792F0000FB6
:100D200081F4000106BF80F400000132013BB5E709
:100D30004FEA41037FEA226C18BF7FEA236C21D07F
:100D400092EA030F04D092F0000F08BF08467047E4
:100D500090EA010F1CBF0020704712F07F4F04D1B2
:100D6000400028BF40F00040704712F100723CBFC5
:100D700000F50000704700F0004343F0FE4040F4EF
:100D8000000070477FEA226216BF08467FEA2363AD
:100D90000146420206BF5FEA412390EA010F40F498
:100DA000800070474FF0000304E000BF10F00043E4
:100DB00048BF40425FEA000C08BF704743F09643CB
:100DC00001464FF000001CE050EA010208BF7047E6
:100DD0004FF000030AE000BF50EA010208BF70476D
:100DE00011F0004302D5404261EB41015FEA010C82
:100DF00002BF84460146002043F0B64308BFA3F17A
:100E00008053A3F50003BCFA8CF2083AA3EBC2535B
:100E100010DB01FA02FC634400FA02FCC2F120027A
:100E2000BCF1004F20FA02F243EB020008BF20F0B1
:100E30000100704702F1200201FA02FCC2F1200217
:100E400050EA4C0021FA02F243EB020008BF20EA0C
:100E5000DC7070477BB972B90029BEBF00204FF02B
:100E6000004106E008BF00281CBF6FF000414FF0B2
:100E7000FF3000F0D3B9ADF1080C6DE904CE0029C4
:100E800009DB002B1ADB00F04DF8DDF804E0DDE9AA
:100E9000022304B07047404261EB4101002B1BDB91
:100EA00000F040F8DDF804E0DDE9022304B0404240
:100EB00061EB4101524263EB43037047524263EBE3
:100EC000430300F02FF8DDF804E0DDE9022304B06D
:100ED000404261EB41017047524263EB430300F033
:100EE00021F8DDF804E0DDE9022304B0524263EBAF
:100EF0004303704753B94AB9002908BF00281CBFF3
:100F00004FF0FF314FF0FF3000F088B9ADF1080C21
:100F10006DE904CE00F006F8DDF804E0DDE9022317
:100F200004B070472DE9F047089D0F4604468C46F3
:100F3000002B48D18A42164661D9B2FA82F34BB1EE
:100F4000C3F1200201FA03FC20FA02F29E4042EAB9
:100F50000C0C9C404FEA164EB7B2BCFBFEF1220CC3
:100F60000EFB11CC42EA0C4201FB07F0904209D97A
:100F7000B21801F1FF3C80F0EE80904240F2EB802D
:100F800002393244121AA4B2B2FBFEF00EFB102258
:100F900044EA024400FB07F7A74209D9341900F1DB
:100FA000FF3280F0DA80A74240F2D7803444023822
:100FB00040EA0140E41B00211DB1DC400023C5E9EB
:100FC0000043BDE8F0878B4206D90DB1C5E90001A9
:100FD00000210846BDE8F087B3FA83F1002948D123
:100FE000BB4202D3824200F20781841A67EB0302FC
:100FF00001209446002DE4D0C5E9004CE1E7002A29
:1010000000F09280B2FA82F3002B40F0A8808A1A96
:101010004FEA164E1FFA86FC0121200CB2FBFEF7A8
:101020000EFB172240EA02420CFB07F0904207D960
:10103000B21807F1FF3802D2904200F2E280474630
:10104000121AA4B2B2FBFEF00EFB102244EA0244D4
:101050000CFB00FCA44507D9341900F1FF3202D281
:10106000A44500F2CB801046A4EB0C0440EA0740F4
:10107000A2E7C1F120068B4022FA06FC4CEA030CE1
:1010800007FA01F420FA06F3F7404FEA1C4923431C
:1010900000FA01F81FFA8CFEB7FBF9F01C0C09FBF3
:1010A000107744EA074400FB0EF7A74202FA01F268
:1010B0000AD91CEB040400F1FF3A80F09B80A742A0
:1010C00040F2988002386444E41B9FB2B4FBF9F309
:1010D00009FB134447EA044403FB0EFEA64509D965
:1010E0001CEB040403F1FF3780F08280A6457FD912
:1010F000023B644443EA0040A4EB0E04A0FB02E779
:10110000BC427346B94663D360D05DB1B8EB03020D
:1011100064EB090404FA06F622FA01F31E43CC40FC
:10112000C5E9006400214CE76208480842EAC17141
:101130000B0C43EA00438AB242EA0342B3FBF6F1E6
:10114000E407B4463746B6461F23B0FBF6F0D21B81
:1011500041EA004161E7614614E7104628E7C3F120
:10116000200120FA01F29E4027FA01F19F403A4304
:101170004FEA164E1FFA86FCB1FBFEF70EFB171066
:10118000110C41EA004107FB0CF8884504FA03F40E
:101190003AD9711807F1FF3001D288451FD8A1EB69
:1011A0000801B1FBFEF808FB0CF70EFB181192B218
:1011B00042EA0142BA422FD2B21808F1FF31C6D238
:1011C000BA42C4D2A8F102013244C0E7F0459CD231
:1011D000BEEB020367EB0C070138B94695E7A6EBB7
:1011E00008084144B81EB1FBFEF808FB0CF7DCE729
:1011F0003B467FE7504667E70846FBE63444023843
:1012000032E7023F32441BE7A1EB08013846B1FB4D
:10121000FEF808FB0CF7C8E7414698E7704700BFA7
:1012200080B582B000AF7860396000224FF4006171
:1012300004480CF0A1FF03F015FB00BF0837BD46C2
:1012400080BD00BF0000024080B500AF00224FF417
:10125000006103480CF090FF03F004FB00BF80BD69
:101260000000024080B500AF0022402102480CF08F
:1012700083FF00BF80BD00BF0004024080B500AF07
:101280000122402102480CF077FF00BF80BD00BF63
:101290000004024080B500AFFFF7F0FF00F090FDC2
:1012A00000BF80BD80B483B000AF0346FB80FB88E5
:1012B00007EE903AF8EE677A9FED087A67EE877A44
:1012C0009FED077AC7EE876AF0EE667AB0EE670A9E
:1012D0000C37BD465DF8047B704700BF0000B44387
:1012E0000000804780B584B000AF78607B68002B39
:1012F00001D100232CE007F10F0319461A2000F05A
:1013000085F80346002B01D0002321E0FB7B5BB274
:10131000DBB2DB09DAB27B681A70FB7B03F00403F3
:10132000002B14BF01230023DAB27B685A70FB7BC9
:1013300003F00203002B14BF01230023DAB27B6801
:101340009A70FB7B03F00103DAB27B68DA70012349
:1013500018461037BD4680BD80B588B002AF7860B2
:1013600039603B68002B04D008220021386815F052
:10137000C3FB7B68002B01D101233CE00023BB8130
:1013800000233B811E4B5B687B611E4B1B685B6AC5
:101390007B823B68002B08D03B687A691A603B6807
:1013A0007A8A9A803B6801229A71FFF75BFF07F106
:1013B000080207F10C010A230093022312480FF0E0
:1013C000CFFC03467B74FFF759FF7B7C032B01D1D5
:1013D000022310E07B7C002B01D003230BE03B7A3F
:1013E0001BB21B021AB27B7A1BB213431BB29AB216
:1013F0007B681A80002318461837BD4680BD00BFA1
:10140000001000E0840200202C02002080B584B08F
:1014100000AF03463960FB713B68002B01D101230B
:1014200037E000233B81FFF71DFFD2233B73FB799D
:101430007B7307F10C010A23022218480FF043FACC
:101440000346FB73FFF71AFFFB7B002B06D0FB7BE9
:10145000032B01D102231CE003231AE0FFF702FF54
:1014600007F108010A2302220C480FF068FB03462B
:10147000BB73FFF703FFBB7B002B06D0BB7B032BAB
:1014800001D1022305E0032303E07A7A3B681A7056
:10149000002318461037BD4680BD00BF2C02002037
:1014A00080B584B002AFD723BB8000233B80FFF719
:1014B000D9FE3A46391D0A230093022308480FF04B
:1014C0004FFC0346FB71FFF7D9FEFB79002B0CBFE5
:1014D00001230023DBB218460837BD4680BD00BF9C
:1014E0002C02002080B584B000AF78600023FB6040
:1014F00007F10C031846FFF7F5FE034683F00103DE
:10150000DBB2002B0AD07B68002B05D07B681A4623
:1015100007F10C0318681060002347E07B7B002B69
:1015200005D1BB7B002B02D1FB7B002B17D0FFF733
:10153000B7FF07F10C031846FFF7D4FE034683F00C
:101540000103DBB2002B0AD07B68002B05D07B683F
:101550001A4607F10C0318681060002326E07B6828
:10156000002B05D07B681A4607F10C031868106041
:101570003B7B83F00103DBB2002B13D07B7B83F03A
:101580000103DBB2002B0DD0BB7B83F00103DBB288
:10159000002B07D0FB7B83F00103DBB2002B01D0D3
:1015A000012300E0002303F00103DBB218461037EB
:1015B000BD4680BD80B483B000AF78607B68002BEF
:1015C00016D07B6800221A707B6800225A807968E6
:1015D0004FF000024FF00003C1E902237B680022B4
:1015E0001A617B6800225A617B6800229A6100E0E0
:1015F00000BF0C37BD465DF8047B70472DE9B00F86
:1016000089B000AFF8607A603B600B467B81FB6875
:10161000002B05D03B6C002B02D03B68002B01DA7D
:1016200001236CE0FB681B7883F00103DBB2002B25
:101630001CD0FB6801221A70FB687A895A807B896A
:1016400000229A469346FB68C3E902ABFB687A68BE
:101650001A61FB685B695A1CFB685A61FB68D3E935
:101660000223396CC1E90023002348E07B89FA6832
:1016700052889B1AFB61FB69B3F5004F04DDFB69DF
:10168000A3F58033FB6107E0FB6913F5004F03DA34
:10169000FB6903F58033FB61FB69002BB8BF5B423C
:1016A000BB61BA693B689A4206DDFB689B695A1CBC
:1016B000FB689A61042322E0FB68D3E90223F969FD
:1016C000C8170C46054612EB040843EB0509C7E9A9
:1016D0000489FB687A895A80F968D7E90423C1E94B
:1016E0000223FB687A681A61FB685B695A1CFB6815
:1016F0005A61396CD7E90423C1E900230023184655
:101700002437BD46BDE8B00F7047000080B487B0F5
:1017100000AF786039604FF0FF337B6100233B619D
:101720001DE07A683B6913441B781A467B69534075
:101730007B610023FB600CE07B6903F001035A42EC
:101740000D4B13407A69520853407B61FB680133AB
:10175000FB60FB68072BEFDD3B6901333B613A69B6
:101760003B689A42DDD37B69DB4318461C37BD4694
:101770005DF8047B704700BF2083B8ED80B586B06C
:1017800000AF78607B68002B01D10123F8E03422A0
:101790000021786815F0B0F90023FB730023BB73B8
:1017A00000237B730123FB75FB7D002B0AD007F11F
:1017B0000F0319460020FFF729FE0346002B01D135
:1017C000012300E00023FB75FB7D03F00103FB75A3
:1017D000FB7D002B0AD007F10E0319460120FFF70D
:1017E00015FE0346002B01D1012300E00023FB7509
:1017F000FB7D03F00103FB75FB7D002B0AD07B68AA
:10180000043319460920FFF701FE0346002B01D1DE
:10181000012300E00023FB75FB7D03F00103FB7552
:10182000FB7D002B0AD07B68053319460D20FFF79E
:10183000EDFD0346002B01D1012300E00023FB75E1
:10184000FB7D03F00103FB75FB7D002B0AD007F144
:101850000D0319461A20FFF7D9FD0346002B01D1CD
:10186000012300E00023FB75FB7D03F00103FB7502
:10187000FB7D002B0AD07B68073319461C20FFF73D
:10188000C5FD0346002B01D1012300E00023FB75B9
:10189000FB7D03F00103FB75FB7D002B0AD07B6809
:1018A000083319461F20FFF7B1FD0346002B01D175
:1018B000012300E00023FB75FB7D03F00103FB75B2
:1018C000FB7B1AB2BB7B1BB21B021BB213431BB2C6
:1018D0009AB27B685A807A7B7B689A717B68002217
:1018E0005A8500233B6125E000233B733B69DBB253
:1018F0002033DBB207F10C0211461846FFF786FDD4
:101900000346002B03D00023FB7500233B73397B78
:101910007A683B69134409330A461A703B7B002BF3
:1019200005D07B685B8D01339AB27B685A853B6931
:1019300001333B613B691F2BD6DD7B6809332021D6
:101940001846FFF7E3FE02467B68DA627B68FA7DA1
:101950001A70FB7D83F00103DBB2002B05D07B689E
:10196000002283F8302005230AE07B685B8D002B82
:1019700001D1012200E002227B6883F8302000239D
:1019800018461837BD4680BD80B483B000AF78607C
:101990007B68002B0BD07B681B7883F00103DBB2E4
:1019A000002B04D17B6893F83030002B01D1012348
:1019B00013E07B689B7903F08703002B01D002239F
:1019C0000BE07B6893F83030012B03D17B685B8D93
:1019D000002B01D0032300E0002318460C37BD463E
:1019E0005DF8047B704780B584B000AF78603960E3
:1019F0007868FFF7C9FF0346FB73FB7B002B01D020
:101A0000FB7B3DE03B68002B01D1042338E07B6881
:101A10005A883B681B889A4201D0052330E07B68D6
:101A20001A793B689B789A4201D0062328E07B68AC
:101A30005A793B68DB789A4201D0072320E07B6823
:101A40009A793B681B799A4201D0082318E07B6899
:101A5000DA793B685B799A4201D0092310E07B6810
:101A60001A7A3B689B799A4201D00A2308E07B6886
:101A7000DA6A3B689B689A4201D00B2300E000239E
:101A800018461037BD4680BD80B483B000AF034612
:101A9000FB71FB790B2B33D801A252F823F000BF66
:101AA000D11A0008D51A0008D91A0008DD1A000852
:101AB000E11A0008E51A0008E91A0008ED1A000802
:101AC000F11A0008F51A0008F91A0008FD1A0008B2
:101AD0000F4B16E00F4B14E00F4B12E00F4B10E0D2
:101AE0000F4B0EE00F4B0CE00F4B0AE00F4B08E0E2
:101AF0000F4B06E00F4B04E00F4B02E00F4B00E0F2
:101B00000F4B18460C37BD465DF8047B704700BF8D
:101B1000F88701080088010814880108288801084E
:101B20004C8801086C8801087C8801088C880108B1
:101B30009C880108AC880108BC880108CC88010891
:101B4000E488010880B594B000AF07F10C0334229B
:101B50000021184614F0D0FF01233B73012387F8BE
:101B60003C3005237B74954B1B68BB6307F10C036A
:101B70001846FFF709FF0346002B0CBF0123002383
:101B800087F84F308023BB7407F10C031846FFF72A
:101B9000FBFE0346022B0CBF0123002387F84E30C7
:101BA0000023BB740123FB86022387F83C3007F136
:101BB0000C031846FFF7E8FE0346032B0CBF012376
:101BC000002387F84D300023FB86012387F83C3043
:101BD00000233B7307F10C031846FFF7D5FE0346BD
:101BE000012B0CBF0123002387F84C3001233B73EA
:101BF00000233B800023BB700523FB7000233B7157
:101C000000237B710023BB716C4B1B68BB603A46A1
:101C100007F10C0311461846FFF7E5FE0346002BBB
:101C20000CBF0123002387F84B3007F10C03002180
:101C30001846FFF7D8FE0346042B0CBF01230023F0
:101C400087F84A300123FB813A4607F10C0311461D
:101C50001846FFF7C8FE0346052B0CBF01230023DF
:101C600087F849303B88FB8101233B743A4607F1F2
:101C70000C0311461846FFF7B6FE0346062B0CBFB1
:101C80000123002387F84830BB783B7404237B741E
:101C90003A4607F10C0311461846FFF7A4FE034627
:101CA000072B0CBF0123002387F84730FB787B7498
:101CB0000823BB743A4607F10C0311461846FFF798
:101CC00092FE0346082B0CBF0123002387F8463001
:101CD0003B79BB740123FB743A4607F10C031146B0
:101CE0001846FFF780FE0346092B0CBF0123002393
:101CF00087F845307B79FB7401233B753A4607F141
:101D00000C0311461846FFF76EFE03460A2B0CBF64
:101D10000123002387F84430BB793B75BB6B83F00C
:101D20000103BB633A4607F10C0311461846FFF75F
:101D30005AFE03460B2B0CBF0123002387F84330C8
:101D400097F84F30002B31D097F84E30002B2DD024
:101D500097F84D30002B29D097F84C30002B25D028
:101D600097F84B30002B21D097F84A30002B1DD02C
:101D700097F84930002B19D097F84830002B15D030
:101D800097F84730002B11D097F84630002B0DD034
:101D900097F84530002B09D097F84430002B05D038
:101DA00097F84330002B01D0012300E0002303F01B
:101DB0000103DBB218465037BD4680BD34B501087B
:101DC00080B400AF094BDB68084A43F08073D360EE
:101DD000074B00225A60064B1B68054A43F001037B
:101DE000136000BFBD465DF8047B7047F0ED00E076
:101DF000001000E080B483B000AF7860074B1B6830
:101E0000074AA2FB03239B0C7A6802FB03F31846E4
:101E10000C37BD465DF8047B704700BF0000002012
:101E200083DE1B4380B582B000AF78607B68002BF7
:101E300009D038220021786814F05EFE7B681846CD
:101E4000FFF7B8FB00E000BF0837BD4680BD80B596
:101E50008CB002AFF860B9603B601346FB71FB6861
:101E6000002B08D03B68002B05D0FB79002B02D05B
:101E7000BB68002B01DA0123A5E02022002138688D
:101E800014F03AFE3B6801221A76012387F82730C6
:101E900085E00023BB8407F11C0300221A605A600E
:101EA000FB681B6A5A1CFB681A623B6897F827207C
:101EB0005A7697F82730012B0BD9FB689B6A5A1C7E
:101EC000FB689A623B689B7E43F00103DAB23B6891
:101ED0009A7607F11C0207F1240311461846FFF712
:101EE0003BFA034687F826303B68103307F11C02A3
:101EF00092E8030083E8030097F82630002B10D007
:101F0000FB68DB6A5A1CFB68DA623B689B7E43F025
:101F10000203DAB23B689A763B6897F826201A7675
:101F200038E04FF000024FF00003C7E90423F868DF
:101F3000B98CFA6907F110030093BB68FFF75EFBE9
:101F4000034687F8263097F82630002B10D0FB6820
:101F50001B6B5A1CFB681A633B689B7E43F00403AF
:101F6000DAB23B689A763B6897F826201A7611E039
:101F7000BA8C3B681A80D7E904233968C1E9022387
:101F80003B6800221A76FB685B6A5A1CFB685A623F
:101F9000002318E097F82730013387F8273097F8A7
:101FA0002720FB799A427FF674AF3B689B7E43F013
:101FB0000803DAB23B689A76FB685B6B5A1CFB68D5
:101FC0005A633B681B7E18462837BD4680BD00001B
:101FD00080B582B000AFC7E90001D7E90001FEF784
:101FE000FBFE07EE100ADFED077A67EE277A9FED1A
:101FF000067AC7EE876AF0EE667AB0EE670A0837AF
:10200000BD4680BD0000B443000080472DE9B00FFD
:1020100085B000AFC7E90201C7E900233B6B002B85
:1020200023D0D7E90023012A73F100030DDBD7E9A0
:1020300000236FF00041D2F1FF3861EB0309D7E9CB
:102040000223904579EB03030FDBD7E90023002B34
:102050000DDAD7E900234FF00041544261EB03054C
:10206000D7E90223A242AB4101DA00230BE0D7E912
:102070000201D7E9002310EB020A41EB030B3B6B93
:10208000C3E900AB012318461437BD46BDE8B00FC5
:1020900070472DE9B00F85B000AFC7E90201C7E96D
:1020A00000233B6B002B1FD0D7E90023002B0ADA5B
:1020B000D7E90023541E63F10045D7E90223944277
:1020C00075EB030310DBD7E90023012A73F100034A
:1020D0000CDBD7E9002303F100499046D7E902233E
:1020E000424573EB090301DA00230BE0D7E9020153
:1020F000D7E90023B0EB020A61EB030B3B6BC3E9AA
:1021000000AB012318461437BD46BDE8B00F704739
:1021100080B485B000AFC7E902017A607B68002B0C
:1021200009D0D7E90223B3F5004F04DAD7E9022337
:1021300013F5004F01DA00230DE0D7E902014FF05B
:1021400000024FF000030B0443EA104302047968D5
:10215000C1E90023012318461437BD465DF8047B0E
:1021600070472DE9B04F90B000AFC7E90A01C7E949
:1021700008233B6E002B0CD0D7E90823012A73F10A
:10218000000306DBD7E90A2303F1004152EA010309
:1021900001D1002376E0D7E908234FF000004FF08B
:1021A0000001D80F0021841841EB03054FF0000215
:1021B0004FF00003620842EAC5726B10C7E90E23B4
:1021C000D7E90A23002B24DBD7E90E236FF0004167
:1021D000D2F1FF3A61EB030BD7E90A2392457BEB7F
:1021E000030301DA00234DE0D7E90A01D7E90E2302
:1021F0008418BC6141EB0303FB61D7E90823D7E9ED
:102200000601FEF727FE02460B46396EC1E90023A0
:1022100037E0D7E90A2300215042386061EB03031D
:102220007B60D7E90034C7E90C34D7E90E236FF09F
:102230000041D2F1FF3861EB0309D7E90C23904547
:1022400079EB030301DA00231CE0D7E90C01D7E99D
:102250000E2384183C6141EB03037B61D7E908231B
:10226000D7E90401FEF7F6FD02460B460021504275
:10227000B86061EB0303FB603B6ED7E90212C3E970
:102280000012012318464037BD46BDE8B08FB0B5F7
:102290008EB002AFC7E90201C7E900233B6C002BF7
:1022A00005D07B6C002B02D0BB6C002B01D100232E
:1022B00060E04FF000024FF00003C7E90A234FF03F
:1022C00000024FF00003C7E908234FF000024FF06F
:1022D0000003C7E906234FF000024FF00003C7E9EF
:1022E000042307F128031A46D7E90001FFF710FF7E
:1022F000034683F00103DBB2002B2ED107F120034C
:102300001A46D7E90201FFF703FF034683F00103F2
:10231000DBB2002B21D1D7E90A013B6C00221C461D
:10232000154607F11803009322462B46FFF719FFC5
:10233000034683F00103DBB2002B0ED1D7E908017D
:10234000D7E9062307F110040094FFF75FFE034668
:1023500083F00103DBB2002B01D000230AE0D7E9B0
:102360000623796CC1E90023D7E90423B96CC1E9DC
:102370000023012318463037BD46B0BD2DE9B04FCC
:1023800092B002AFC7E90801C7E90623FB6E002B34
:1023900009D03B6E012B03D03B6EB3F1FF3F02D15E
:1023A000BB6E002B01D1002373E07B6E00223B61EA
:1023B0007A61BB6E0022BB60FA60D7E902234FF05E
:1023C000FF306FF00041FEF795FD02460B4639697C
:1023D0008A4279698B4101D200235AE07B6E002248
:1023E0009A469346BB6E00229846914608FB0BF234
:1023F0000AFB09F31344AAFB08452B441D46C7E911
:102400000E453B6E002B0BDAD7E90E23002150421C
:10241000386061EB03037B60D7E90034C7E90E3411
:102420004FF000024FF00003C7E90C234FF0000209
:102430004FF00003C7E90A2307F130031A46D7E932
:102440000E01FFF765FE034683F00103DBB2002BAC
:102450001CD107F128030093D7E90623D7E9080127
:10246000FFF717FE034683F00103DBB2002B0DD10B
:10247000D7E90A01D7E90C23FC6E0094FFF709FEA7
:10248000034683F00103DBB2002B01D0002300E000
:10249000012318464037BD46BDE8B08F80B483B0F5
:1024A00000AF786039607A683B68D31ADB43DB0F92
:1024B000DBB218460C37BD465DF8047B7047000060
:1024C00080B483B000AF7860034B5B6818460C376C
:1024D000BD465DF8047B7047001000E080B582B017
:1024E00000AF7860396000E000BF084B5B68396876
:1024F0001846FFF7D3FF034683F00103DBB2002B3E
:10250000F2D100BF00BF0837BD4680BD001000E01B
:1025100080B584B000AFF860B9607A607968B86857
:10252000FEF71AFF034618461037BD4680BD80B43B
:1025300083B000AF78600B46FB707B6800221A7096
:102540007B68FA78DA70FB7818460C37BD465DF880
:10255000047B704790B59DB004AFF860C7E90023D5
:10256000BB6F002B0AD088220021B86F14F0C4FA88
:10257000BB6F0122DA70BB6F00221A71FB68002B5F
:102580003ED03B6F002B3BD07B6F002B38D0BB6F16
:10259000002B35D07B6F1B68002B31D07B6F5B68C5
:1025A000002B2DD03B6F9B68002B29D03B6FDA6846
:1025B0003B6F9B689A4223D33B6F5B69002B1FD014
:1025C0003B6F5B69002B1BDB3B6F9B69002B17DBB1
:1025D0003B6F1B78002B03D03B6F1B78012B0FD177
:1025E0003B6F1B78012B0DD13B6F5B68002B07D035
:1025F0003B6F5B68002B03DB7B6F9B68002B01D17B
:102600000123EAE1B96FD7E90023C1E902233B6F57
:102610009A68BB6F9A64BB6F00229A70B96F4FF0D3
:10262000FF326FF00043C1E90623B96F4FF000029B
:102630004FF00043C1E908230023FB650023BB657D
:102640009FE1BB6F1A6D3B6FDB689A4205D3072190
:10265000B86FFFF76CFF0346BFE1002387F85730E0
:1026600000233B653B6F1B78012B1DD1BB6F5B7853
:10267000002B19D0FB6D3B65BB6F1B6F3A6DD21AF7
:102680003B6F5B699A4205D90821B86FFFF74FFF8E
:102690000346A2E17B6F9B687A6FD268396D104662
:1026A0009847012387F857300023FB8607F12C0356
:1026B00000221A605A607B6F1B687A6FD06807F13E
:1026C0002C0207F136019847034687F84E30BB6F5E
:1026D0001B6D5A1CBB6F1A6597F8323083F00103EB
:1026E000DBB2002B0AD0BB6FDB6D5A1CBB6FDA6507
:1026F0000621B86FFFF71BFF03466EE1FA6ABB6F56
:102700005A67BB6F1B6D012B0FD1FA6ABB6F1A673B
:102710003B6F1B78012B2DD1BB6F01225A70FA6AD7
:102720003B6F5B681344FB6524E097F85730002B40
:1027300020D0FA6A3B6DD31ABB64BB6C002B02DA63
:10274000BB6C5B4200E0BB6C7B64BB6C002B04DDAC
:10275000BB6F9B6E5A1CBB6F9A66BB6FDB6E7A6C4D
:102760009A4202D9BB6F7A6CDA663B6F5B683A6D4E
:102770001344FB657B6F5B687A6FD268104698479D
:102780003864BB6F1B6F3A6CD21ABB6F9A67BB6F12
:102790009A6F3B6F5B699A4205D90821B86FFFF7C2
:1027A000C6FE034619E197F84E3087F84F304FF0D8
:1027B00000024FF00003C7E9082397F84E30002BC2
:1027C0000DD097F84E30022B03D097F84E30032BE4
:1027D0001CD1BB6F5B6D5A1CBB6F5A6516E0F98E3E
:1027E000FA6A3B6F986907F1200300930346F86883
:1027F000FEF704FF034687F84F3097F84F30042B5D
:1028000004D1BB6F9B6D5A1CBB6F9A6597F84F3014
:10281000002B19D0BB6F97F84F201A71BB6D013395
:10282000BB65BB6F1B6EBA6D9A4202D9BB6FBA6DA6
:102830001A663B6F1B69BA6D9A426CD90721B86F53
:10284000FFF775FE0346C8E00023BB654FF00002AA
:102850004FF00003C7E906234FF000024FF00003DA
:10286000C7E90423D7E9080107F118030093D7E962
:102870000023FFF70EFC034683F00103DBB2002BBD
:102880000FD1BB6FD3E90401D7E9062307F1100488
:102890000094FFF7BBFB034683F00103DBB2002B80
:1028A00005D00921B86FFFF742FE034695E0D7E94E
:1028B0000423B96FC1E90423BB6FD3E90623D7E929
:1028C0000601904271EB030304DAD7E90623B96FDE
:1028D000C1E90623BB6FD3E90801D7E9062390427B
:1028E00071EB030304DAD7E90623B96FC1E90823C2
:1028F000BB6FDB6C002B04D1D7E90823B96FC1E9AA
:102900000E23D7E90823B96FC1E91023BB6FDB6C35
:102910005A1CBB6FDA64BB6FDA6C3B6F9B689A42E0
:1029200037D23B6F1B78012B2BD1F96D386CFFF739
:10293000B5FD0346002B24D03A6CFB6DD31AFB6324
:102940003B6F5B68FA6BB2FBF3F30133BB63BB6FA6
:102950005B6EDB43BA6B9A4205D90721B86FFFF76C
:10296000E6FD034639E0BB6F5A6EBB6B1A44BB6F82
:102970005A663B6F5B68BA6B02FB03F3FA6D134454
:10298000FB65BB6FDA6C3B6F9B689A42FFF459AEF4
:1029900000E000BFBB6FD3E90423B96FC96CB86F07
:1029A0002830BC6F3034029401900091D7E90001C7
:1029B000FFF76DFC034683F00103DBB2002B05D06B
:1029C0000921B86FFFF7B3FD034606E0BB6F012294
:1029D0001A70BB6F0022DA70002318466437BD46B8
:1029E00090BD000090B58DB004AFF860C7E900233A
:1029F0000B4B07F110040FCB84E80F007B6B0293A5
:102A000007F1100301933B6B0093D7E90023F868AB
:102A1000FFF7A0FD034618462437BD4690BD00BF12
:102A20000089010880B586B000AFF860B9607A60AF
:102A3000FB687B617B69002B0BD0BB68002B08D047
:102A40007B68002B05D07B695A6E7B691B6E9A42AE
:102A500001D301232AE07B695B6E591C7A695166B8
:102A60003B6108220021786814F046F87B693A69D6
:102A7000063253F822207B681A607A693B69134456
:102A800058331A787B689A717B693A6933F8122057
:102A9000BB681A807B693A690E3253F822207B6941
:102AA0009A667A693B69134410331B7818461837C5
:102AB000BD4680BD80B483B000AF78607B689B6EFC
:102AC00018460C37BD465DF8047B704780B584B06E
:102AD00000AF786039607B68FB60FB68D3F88C30AE
:102AE000072B0CD8FB68D3F88C30591CFA68C2F855
:102AF0008C10FA681A339B0013443A685A60FB68DA
:102B00009B6E39681846FFF7C9FC034683F0010342
:102B1000DBB2002B02D0FB683A689A6600BF103720
:102B2000BD4680BDB0B48DB000AFF860B9607A60CA
:102B30003B6001233B757B68BB61BB68FB613B6805
:102B40003B623B687B62094BBB621423FB62FB6800
:102B50001D4607F114040FCC0FC594E8070085E863
:102B60000700F8683437BD46B0BC7047A086010046
:102B700080B584B000AF7860396090220021786819
:102B800013F0BAFF7B683A681A660023FB600EE018
:102B90007A68FB681344103300221A707A68FB6865
:102BA0001344583301221A70FB680133FB60FA6842
:102BB0003B689A42ECD300BF00BF1037BD4680BDD2
:102BC0002DE9B04FADF5027D04AF4FF000024FF09C
:102BD0000003C7E96C2307F5D87300934FF0020296
:102BE0004FF000034FF001004FF00001FFF7B9FA7A
:102BF0000346002B4BD0D7E96C23511E0B4346D123
:102C000007F5D87300934FF002024FF000034FF026
:102C1000FF304FF0FF31FFF7A4FA0346002B36D008
:102C2000D7E96C23B3F1FF3F08BFB2F1FF3F2ED1CC
:102C300007F5D87300934FF002024FF000034FF0F6
:102C400003004FF00001FFF78CFA0346002B1ED063
:102C5000D7E96C23911E0B4319D107F5D873009364
:102C60004FF002024FF000036FF002004FF0FF310F
:102C7000FFF777FA0346002B09D0D7E96C23B3F1AD
:102C8000FF3F08BF12F1020F01D1012300E0002332
:102C900087F8F73197F8F73103F0010387F8F73138
:102CA0004FF000024FF00003C7E96A234FF0000223
:102CB0004FF00003C7E9682307F5D073029307F5C7
:102CC000D4730193022300934FF001024FF00003ED
:102CD0004FF064004FF00001FFF7D9FA0346002BD4
:102CE0000DD0D7E96A23A2F500410B4307D1D7E9FC
:102CF0006823A2F5C9010B4301D1012300E00023A1
:102D000087F8F63197F8F63103F0010387F8F631CA
:102D100007F5D073029307F5D47301930223009350
:102D20004FF0FF324FF0FF336FF063004FF0FF3191
:102D3000FFF7ADFA0346002B11D0D7E96A23B3F1B0
:102D4000FF3F08BF12F5004F09D1D7E96823B3F15F
:102D5000FF3F08BF12F5C90F01D1012300E0002396
:102D600087F8F53197F8F53103F0010387F8F5316D
:102D70004FF4C8024FF00003C7E97A23D7E97A235A
:102D80005D1C1446C7E978454FF001024FF000037F
:102D9000C7E9662307F5CC7303934FF4807302935E
:102DA0000023019301230093D7E97A23D7E97A011D
:102DB000FFF7E4FA0346002B1DD0D7E9662313433F
:102DC00019D107F5CC7303934FF4807302934FF43A
:102DD0008073019301230093D7E97A23D7E978011F
:102DE000FFF7CCFA0346002B05D0D7E9662313433F
:102DF00001D1012300E0002387F8DF3197F8DF31AC
:102E000003F0010387F8DF31CB4B07F5C4740FCB18
:102E100084E80F0007F1500302211846FFF7A8FECF
:102E200007F5FC73A3F5D47364221A8007F5FC73CD
:102E3000A3F5D47365225A8007F5FC73A3F5D47308
:102E40004FF47A729A6107F5FC73A3F5D4734FF4CB
:102E50008262DA6107F5FC73A3F5D47340F2ED32B8
:102E60009A6307F5FC73A3F5D47340F21542DA6355
:102E700007F5FC73A3F5D47340F2E3329A6607F1C9
:102E80005003C7F8943107F5B4731846FEF792FB68
:102E900007F5FC73A3F5E270022328220221FFF755
:102EA00041FE07F5B47107F1E003029307F5C4731F
:102EB000019307F1340300934FF064024FF00003D5
:102EC0000846FFF747FB0346002B5CD107F5FC7370
:102ED000A3F58C731B78002B55D007F5FC73A3F575
:102EE0008C731B6D022B4ED107F5FC73A3F58C730D
:102EF000DB6C022B47D107F5FC73A3F58C735B6E7B
:102F0000002B40D107F5FC73A3F58C73D3E90E2396
:102F1000A2F164010B4336D107F5FC73A3F58C7362
:102F2000D3E91023A2F165010B432CD107F5FC7303
:102F3000A3F58C73D3E90623134324D107F5FC735F
:102F4000A3F58C73D3E90823511E0B431BD107F55E
:102F5000FC73A3F58C73D3E90C23A2F5C9010B43D1
:102F600011D107F5FC73A3F5D473D3F88C30012B82
:102F700009D107F5FC73A3F5D473DB6EB3F5826F4B
:102F800001D1012300E0002387F8DE3197F8DE311C
:102F900003F0010387F8DE3107F1500304211846DE
:102FA000FFF7E6FD07F5FC73A3F5D47364221A80DE
:102FB00007F5FC73A3F5D47368225A8007F5FC73F8
:102FC000A3F5D47360229A8007F5FC73A3F5D4733C
:102FD0006422DA8007F5FC73A3F5D4734FF47A7298
:102FE0009A6107F5FC73A3F5D4734FF48262DA613A
:102FF00007F5FC73A3F5D4734FF487621A6207F5E3
:10300000FC73A3F5D4734FF48C625A6207F5FC731A
:10301000A3F5D47340F2ED329A6307F5FC73A3F580
:10302000D47340F21542DA6307F5FC73A3F5D47349
:1030300040F23D421A6407F5FC73A3F5D47340F2E5
:1030400065425A6407F5FC73A3F5D47340F2E3328A
:103050009A6607F15003C7F8943107F5B473184620
:10306000FEF7A8FA07F5FC73A3F5E27407F1080070
:10307000042328220421FFF755FD07F5FC73A3F56F
:10308000F8731D460FCD0FC495E8070084E80700CC
:1030900007F5B47107F1E003029307F5C4730193D8
:1030A00007F1340300934FF064024FF00003084629
:1030B000FFF750FA0346002B40D107F5FC73A3F548
:1030C0008C73D3E90623B3F1FF3F08BF12F1040F5D
:1030D00034D107F5FC73A3F58C73D3E90823111FD2
:1030E0000B432BD107F5FC73A3F58C73D3E90801CF
:1030F00007F5FC73A3F58C73D3E90623841A3C60AF
:1031000061EB03037B60D7E900120B46083B1343D6
:1031100014D107F5FC73A3F58C73D3E9100107F5FF
:10312000FC73A3F58C73D3E90E23994208BF904238
:1031300004D1012303E000BF10890108002387F8B0
:10314000DD3197F8DD3103F0010387F8DD3107F158
:10315000500304211846FFF70BFD07F5FC73A3F598
:10316000D47364221A8007F5FC73A3F5D473652227
:103170005A8007F5FC73A3F5D47366229A8007F58D
:10318000FC73A3F5D4736722DA8007F5FC73A3F50B
:10319000D4734FF47A729A6107F5FC73A3F5D47374
:1031A0004FF48262DA6107F5FC73A3F5D4734FF430
:1031B00087621A6207F5FC73A3F5D4734FF48C622F
:1031C0005A6207F5FC73A3F5D47340F2ED329A63AB
:1031D00007F5FC73A3F5D47340F21542DA6307F5E3
:1031E000FC73A3F5D47340F23D421A6407F5FC73F7
:1031F000A3F5D47340F265425A6407F5FC73A3F556
:10320000D47340F2E3329A6607F15003C7F8943161
:1032100007F5B4731846FEF7CDF907F5FC73A3F56F
:10322000E27407F10800042328220421FFF77AFC46
:1032300007F5FC73A3F5F8731D460FCD0FC495E891
:10324000070084E8070007F5B47107F1E003029373
:1032500007F5C473019307F1340300934FF0640240
:103260004FF000030846FFF775F90346002B3CD1E9
:1032700007F5FC73A3F58C73D3E90623134334D10C
:1032800007F5FC73A3F58C73D3E90823D11E0B4318
:103290002BD107F5FC73A3F58C73D3E9080107F56F
:1032A000FC73A3F58C73D3E90623B0EB020A61EB40
:1032B000030BAAF1030353EA0B0316D107F5FC73C2
:1032C000A3F58C73D3E9100107F5FC73A3F58C7398
:1032D000D3E90E23B0EB020861EB0309A8F1030365
:1032E00053EA090301D1012300E0002387F8DC3110
:1032F00097F8DC3103F0010387F8DC3107F1500364
:1033000003211846FFF734FC07F5FC73A3F5D473CB
:1033100002221A7407F5FC73A3F5D47364225A8051
:1033200007F5FC73A3F5D47366229A8007F5FC7346
:10333000A3F5D4734FF47A729A6107F5FC73A3F581
:10334000D4734FF48262DA6107F5FC73A3F5D4738A
:103350004FF487621A6207F5FC73A3F5D47340F249
:10336000ED329A6307F5FC73A3F5D47340F215426E
:10337000DA6307F5FC73A3F5D47340F23D421A6497
:1033800007F5FC73A3F5D47340F2E3329A6607F1B4
:103390005003C7F8943107F5B4731846FEF70AF9DD
:1033A00007F5FC73A3F5E27407F108000323282254
:1033B0000221FFF7B7FB07F5FC73A3F5F8731D4671
:1033C0000FCD0FC495E8070084E8070007F5B47136
:1033D00007F1E003029307F5C473019307F1340387
:1033E00000934FF064024FF000030846FFF7B2F875
:1033F0000346002B3CD107F5FC73A3F58C735B7877
:10340000002B35D007F5FC73A3F58C731B6D032BD4
:103410002ED107F5FC73A3F58C73DB6C022B27D13F
:1034200007F5FC73A3F58C735B6D012B20D107F5B9
:10343000FC73A3F58C731B79022B19D107F5FC7370
:10344000A3F5D473D3F88C30022B11D107F5FC739C
:10345000A3F5D473DB6EB3F5826F09D107F5FC7366
:10346000A3F5D4731B6FB3F5876F01D1012300E07F
:10347000002387F8DB3197F8DB3103F0010387F88D
:10348000DB3107F1500303211846FFF771FB07F505
:10349000FC73A3F5D47364221A8007F5FC73A3F5BB
:1034A000D47365225A8007F5FC73A3F5D4736622A2
:1034B0009A8007F5FC73A3F5D4734FF47A729A617E
:1034C00007F5FC73A3F5D47340F26542DA6107F5A2
:1034D000FC73A3F5D4734FF491621A6207F5FC7381
:1034E000A3F5D47340F2ED329A6307F5FC73A3F5AC
:1034F000D47340F26A42DA6307F5FC73A3F5D47320
:1035000040F28D421A6407F5FC73A3F5D47340F2C0
:10351000E3329A6607F15003C7F8943107F5B473A4
:103520001846FEF747F807F5FC73A3F5E27407F1B8
:103530000800032328220321FFF7F4FA07F5FC73A0
:10354000A3F5F8731D460FCD0FC495E8070084E876
:10355000070007F5B47107F1E003029307F5C473A0
:10356000019307F1340300934FF064024FF000031E
:103570000846FEF7EFFF0346002B2ED107F5FC733C
:10358000A3F58C735B6E022B27D107F5FC73A3F5B3
:103590008C739B6E012B20D107F5FC73A3F58C7304
:1035A000DB6E552B19D107F5FC73A3F5D473D3F853
:1035B0008C30022B11D107F5FC73A3F5D473DB6EAD
:1035C000B3F5826F09D107F5FC73A3F5D4731B6FB4
:1035D000B3F5916F01D1012300E0002387F8DA31C0
:1035E00097F8DA3103F0010387F8DA3107F1500375
:1035F00002211846FFF7BCFA07F5FC73A3F5D47354
:103600004FF6FE721A8007F5FC73A3F5D4730122FE
:103610005A8007F5FC73A3F5D4736FF00F029A611B
:1036200007F5FC73A3F5D4731022DA6107F5FC7378
:10363000A3F5D4736FF00A029A6307F5FC73A3F540
:10364000D4731522DA6307F5FC73A3F5D4736FF016
:103650001F029A6607F15003C7F8943107F5B47357
:103660001846FDF7A7FF07F5FC73A3F5E27407F111
:103670000800022320220221FFF754FA07F5FC7309
:10368000A3F5F8731D460FCD0FC495E8070084E835
:10369000070007F5B47107F1E003029307F5C4735F
:1036A000019307F1340300934FF6FE724FF00003CD
:1036B0000846FEF74FFF0346002B23D107F5FC73A6
:1036C000A3F58C739B6F252B1CD107F5FC73A3F519
:1036D0008C735B6E002B15D107F5FC73A3F58C730F
:1036E000D3E90E235B4911440B430BD107F5FC735F
:1036F000A3F58C73D3E91023A2F101110B4301D17F
:10370000012300E0002387F8D93197F8D93103F07D
:10371000010387F8D93107F5B4731846FDF74AFF5E
:103720004FF000024FF00003C7E90A2307F5B47019
:1037300007F1280300930A230A226421FDF75EFFA4
:103740000346002B0CBF0123002387F8D831B7F8BC
:103750006A31A7F8D631D7E95C23C7E97223D7F8D5
:103760007831C7F8C431D7F87C31C7F8C03107F5D4
:10377000B47007F1280300930A231422C821FDF72F
:103780003DFF0346042B1FD1B7F86A31B7F8D621A5
:103790009A4219D1D7E95C23D7E97201994208BF4F
:1037A000904211D1D7F87831D7F8C4219A420BD181
:1037B000D7F87C31D7F8C0219A4205D1D7F88031AB
:1037C000012B01D1012300E0002387F8BF3197F8D6
:1037D000BF3103F0010387F8BF3197F8F731002BB1
:1037E0002DD097F8F631002B29D097F8F531002B22
:1037F00025D097F8DF31002B21D097F8DE31002B50
:103800001DD097F8DD31002B19D097F8DC31002B53
:1038100015D097F8DB31002B11D097F8DA31002B57
:103820000DD097F8D931002B09D097F8D831002B5B
:1038300005D097F8BF31002B01D0012300E0002311
:1038400003F00103DBB2184607F5FC77BD46BDE87F
:10385000B08F00BF0200FFFF80B500AF09F090FA03
:1038600000F056F800F014FC00F0BCFB00F0BAF8D1
:1038700000F0AAF900F060FA00F042F900F088FBCD
:1038800000F010F900F06AF900F0D4FA00F056FBED
:10389000FDF700FDFEF756F9034683F00103DBB2A6
:1038A000002B01D000F0DEFFFFF78AF9034683F01A
:1038B0000103DBB2002B01D000F0D4FF00F0ECFFDD
:1038C00000F0FEFF034683F00103DBB2002B01D0C2
:1038D00000F0C8FF10F012F80A4A00210A4810F060
:1038E00057F80346094A136008F0F2FA034683F0DA
:1038F0000103DBB2002B01D000F0B4FF10F022F87E
:1039000000BFFDE738B50108C1410008640500208B
:1039100080B594B000AF07F1200330220021184693
:1039200013F0EAF807F10C0300221A605A609A605B
:10393000DA601A610023BB60284B1B6C274A43F0F6
:1039400080531364254B1B6C03F08053BB60BB6832
:1039500000237B60224B1B68214A43F480431360A1
:103960001F4B1B6803F480437B607B6801233B6231
:103970004FF480337B620223BB634FF48003FB630D
:1039800004233B64A8237B640223BB640423FB64FD
:1039900007F1200318460CF043FA0346002B01D030
:1039A00000F060FF0F23FB6002233B6100237B617B
:1039B0004FF4A053BB614FF48053FB6107F10C033C
:1039C000052118460CF0A4FC0346002B01D000F0A2
:1039D00049FF00BF5037BD4680BD00BF00380240E0
:1039E0000070004080B584B000AF3B4600221A60F2
:1039F0005A609A60DA60284B284A1A60264B4FF4C6
:103A000080325A60244B00229A60234B01221A61B3
:103A1000214B01221A76204B002283F820201E4BD6
:103A20000022DA621C4B1E4A9A621B4B0022DA60AB
:103A3000194B0222DA61184B012283F83020164B11
:103A400001225A61144809F0DDF90346002B01D028
:103A500000F008FF01233B6001237B600523BB606E
:103A60003B4619460C4809F03FFB0346002B01D0AA
:103A700000F0F8FE04233B6002237B603B461946BE
:103A8000054809F031FB0346002B01D000F0EAFEA7
:103A900000BF1037BD4680BD7C00002000200140E3
:103AA0000100000F80B500AF124B134A1A60114B92
:103AB000124A5A600F4B00229A600E4B0022DA60C5
:103AC0000C4B4FF480421A610A4B00225A61094B99
:103AD00000229A61074B0022DA61064B00221A622B
:103AE00004480AF07DFB0346002B01D000F0BAFE2B
:103AF00000BF80BD2401002000540040801A060051
:103B000080B500AF124B134A1A60114B124A5A602B
:103B10000F4B00229A600E4B0022DA600C4B4FF4E0
:103B200080421A610A4B00225A61094B00229A61B5
:103B3000074B0022DA61064B00221A6204480AF0A1
:103B40004FFB0346002B01D000F08CFE00BF80BD70
:103B50007801002000580040A086010080B500AF29
:103B6000174B184A1A60164B4FF482725A60144B66
:103B700000229A60124B0022DA60114B02221A6175
:103B80000F4B01225A610E4B4FF400729A610C4B9D
:103B90001822DA610A4B00221A62094B00225A628B
:103BA000074B00229A62064B0A22DA6204480CF0A4
:103BB00001FE0346002B01D000F054FE00BF80BD83
:103BC0002C0200200030014080B596B000AF07F114
:103BD000480300221A605A609A60DA6007F14003D5
:103BE00000221A605A6007F1240300221A605A600A
:103BF0009A60DA601A615A619A613B1D20220021A5
:103C0000184612F079FF4A4B4A4A1A60484B002284
:103C10005A60474B00229A60454B40F66A02DA60D0
:103C2000434B00221A61424B00225A61404B002252
:103C30009A613F480DF066FB0346002B01D000F06F
:103C400011FE4FF48053BB6407F14803194638480E
:103C50000DF0F0FF0346002B01D000F003FE3448C6
:103C60000DF010FC0346002B01D000F0FBFD0023FB
:103C70003B6400237B6407F1400319462C480EF097
:103C800003FD0346002B01D000F0ECFD70237B62A6
:103C90000023BB620023FB6200233B6300237B63A2
:103CA0000023BB630023FB6307F1240300221946B2
:103CB0001F480DF0FDFE0346002B01D000F0D2FDA1
:103CC00007F124030422194619480DF0F1FE0346BA
:103CD000002B01D000F0C6FD07F12403082219468D
:103CE00013480DF0E5FE0346002B01D000F0BAFDAD
:103CF00000237B600023BB600023FB6000233B614B
:103D000000237B614FF40053BB6100233B623B1DEA
:103D1000194607480EF034FD0346002B01D000F091
:103D2000A1FD034808F0E0FC00BF5837BD4680BD48
:103D3000840200200000014080B58AB000AF07F186
:103D4000180300221A605A609A60DA6007F11003C3
:103D500000221A605A603B4600221A605A609A603C
:103D6000DA60334B4FF080421A60314B00225A60C8
:103D70002F4B00229A602E4B4FF0FF32DA602C4B13
:103D800000221A612A4B00229A6129480DF0BAFAE2
:103D90000346002B01D000F065FD4FF48053BB615A
:103DA00007F11803194622480DF044FF0346002B83
:103DB00001D000F057FD1E480DF07CFC0346002B9F
:103DC00001D000F04FFD00233B6100237B6107F130
:103DD0001003194616480EF057FC0346002B01D07D
:103DE00000F040FD00233B6001237B600023BB60AB
:103DF0000023FB603B46002219460D480DF0BBFD39
:103E00000346002B01D000F02DFD02233B6002236E
:103E10007B603B460422194605480DF0ACFD034685
:103E2000002B01D000F01EFD00BF2837BD4680BD2D
:103E3000CC02002080B592B000AF07F14003002211
:103E40001A605A6007F1240300221A605A609A60CF
:103E5000DA601A615A619A613B1D202200211846DE
:103E600012F04AFE334B344A1A60324B53225A60E6
:103E7000304B00229A602F4B40F2E732DA602D4B34
:103E800000221A612B4B00225A612A4B00229A61B0
:103E900028480DF0F7FA0346002B01D000F0E2FCB1
:103EA00000233B6400237B6407F14003194621484B
:103EB0000EF0EAFB0346002B01D000F0D3FC602398
:103EC0007B620023BB620023FB6200233B63002371
:103ED0007B630023BB630023FB6307F12403002201
:103EE000194614480DF0E4FD0346002B01D000F004
:103EF000B9FC00237B600023BB600023FB60002330
:103F00003B6100237B614FF40053BB6100233B62A4
:103F10003B1D194607480EF033FC0346002B01D029
:103F200000F0A0FC034808F0DFFB00BF4837BD46A7
:103F300080BD00BF140300200004014080B500AF25
:103F4000114B124A1A60104B4FF461225A600E4B0B
:103F500000229A600C4B0022DA600B4B00221A619F
:103F6000094B0C225A61084B00229A61064B002231
:103F7000DA6105480EF06AFC0346002B01D000F020
:103F800071FC00BF80BD00BF5C0300200044004006
:103F900080B500AF114B124A1A60104B4FF46122EA
:103FA0005A600E4B00229A600C4B0022DA600B4BD9
:103FB00000221A61094B0C225A61084B00229A61B7
:103FC000064B0022DA6105480EF040FC0346002B48
:103FD00001D000F047FC00BF80BD00BFA00300205F
:103FE0000048004080B582B000AF00237B60274BC3
:103FF0001B6B264A43F400131363244B1B6B03F41F
:1040000000137B607B6800233B60204B1B6B1F4AC7
:1040100043F4800313631D4B1B6B03F480033B606D
:104020003B68002205210C2009F03EFB0C2009F022
:1040300057FB002205210E2009F036FB0E2009F067
:104040004FFB00220521102009F02EFB102009F063
:1040500047FB00220521112009F026FB112009F061
:104060003FFB002205212F2009F01EFB2F2009F025
:1040700037FB00220521382009F016FB382009F013
:104080002FFB00BF0837BD4680BD00BF003802408F
:1040900080B58AB000AF07F1140300221A605A609D
:1040A0009A60DA601A6100233B61414B1B6B404A06
:1040B00043F0040313633E4B1B6B03F004033B61AB
:1040C0003B690023FB603A4B1B6B394A43F080038A
:1040D0001363374B1B6B03F08003FB60FB6800230B
:1040E000BB60334B1B6B324A43F001031363304B0D
:1040F0001B6B03F00103BB60BB6800237B602C4B90
:104100001B6B2B4A43F002031363294B1B6B03F019
:1041100002037B607B6800224EF2070125480AF00B
:104120002BF800224FF4006123480AF025F8002202
:10413000402122480AF020F84EF207037B61012358
:10414000BB610023FB6100233B6207F114031946A6
:10415000184809F05DFE01237B610023BB61012348
:10416000FB6107F114031946134809F051FE4FF49F
:1041700000637B610123BB610023FB6100233B6281
:1041800007F1140319460C4809F042FE40237B61F5
:104190000123BB610023FB6100233B6207F1140391
:1041A0001946064809F034FE00BF2837BD4680BDD9
:1041B00000380240000802400000024000040240B3
:1041C000F0B5E3B00CAF07F5AC73A3F5A2731860BC
:1041D00007F1C0031846FDF725FE0121894809F0C3
:1041E000B3FF0346002B0CBF0123002387F84F3198
:1041F00097F84F31002B08D0834B1B7883F00103D5
:10420000DBB2002B01D007F0A7FE7F4A97F84F31B1
:1042100013704FF480417D4809F0C7FF07F0C8FED6
:104220000346002B03D0C8200FF045FCF9E207F14C
:10423000180307F1C00003224FF40041FDF707FE09
:10424000034687F84E3197F84E31002B2BD097F864
:104250004E2107F5AC73A3F5A0735B7E194607F5F5
:10426000AC73A3F5A0739B7E07F13C000193009112
:104270001346674A602112F0CDFBC7F85401D7F806
:1042800054315F2B02DD5F23C7F85431D7F8543126
:104290009AB207F13C0132235E480EF024FBC8209D
:1042A0000FF009FCBDE207F5AC73A3F5A0731B8802
:1042B000A7F84C31B7F84C311846FCF7F3FFF0EE95
:1042C000407A9FED557A67EE877AB6EE007A77EE00
:1042D000877AFCEEE77A17EE903AC7F84831002368
:1042E000C7F8BC3007F1BC031846FCF7FBFF0346D8
:1042F00087F8473197F8473183F00103DBB2002B91
:104300000FD197F8BC30002B0BD197F8BD30002BA4
:1043100007D197F8BE30002B03D197F8BF30002BA0
:1043200042D0B7F84C41D7F848313C4AA2FB0323AE
:104330005909D7F84821394BA3FB02035B096420D4
:1043400000FB03F3D31A97F847213A6197F8BC00B2
:10435000054697F8BD00064697F8BE00F86097F846
:10436000BF00024607F13C000692FA6805920496E7
:1043700003953A690292019300912346284A8021CD
:1043800012F048FBC7F85001D7F850317F2B02DDFF
:104390007F23C7F85031D7F850319AB207F13C016A
:1043A00032231C480EF09FFA1E4B1B7883F001034A
:1043B000DBB2002B48D01B4B01221A701A4AB7F807
:1043C0004C311380194B00221A60194B00221A60DD
:1043D000174B1B68174A1360174B00221A601749C6
:1043E0004FF000024FF00003C1E9002314494FF0E1
:1043F00000024FF00003C1E90023124B00221A60B3
:1044000047E000BF000002406805002000080240AD
:104410002C890108A00300200000C8421F85EB5131
:1044200070890108690500206A0500206C050020DC
:10443000700500207405002078050020800500200C
:104440008805002090050020A34B1B88B7F84C215D
:10445000D31A9BB21BB2C7F840319F4AB7F84C3110
:1044600013809E4B1A68D7F8403113449B4A13605F
:10447000D7F84031002BB8BF5B42C7F83C31984BAE
:104480001B68D7F83C219A4203DD954AD7F83C31A6
:104490001360924B1A68934B1B689A4203DA8F4B56
:1044A0001B68904A13608D4B1A688F4B1B689A42A9
:1044B00003DD8A4B1B688C4A1360884B1B681846C7
:1044C000FCF730F8894BD3E90023FBF7DFFE024607
:1044D0000B468649C1E90023804B1B681846FCF750
:1044E00021F804460D467D4B1B681846FCF71AF868
:1044F00002460B4620462946FCF77EF802460B464C
:10450000104619467A4BD3E90023FBF7BFFE02465B
:104510000B467749C1E90023764B1B680133754A86
:104520001360744B1B68182B40F278816F4BD3E9F2
:104530000045704B1B681846FBF7E4FF02460B462C
:1045400020462946FCF782F902460B46C7E94C2370
:10455000674BD3E90045674B1B681846FBF7D2FF52
:1045600002460B4620462946FCF770F902460B46E8
:1045700014461D46D7E94C23D7E94C01FCF73CF81B
:1045800002460B4620462946FBF77EFE02460B46B6
:10459000C7E94A234FF000024FF00003D7E94A0170
:1045A000FCF7BAFA0346002B08D097ED4A0B12F03D
:1045B00087FFB0EE407AF0EE607A01E09FED447B39
:1045C00087ED487B484B1A68464B1B68D31AC7F8DF
:1045D0001C31424B1B68C7F81831414B1B6840F235
:1045E000DA2293420CDCD7F81831434A934207DBB6
:1045F000D7F8183140F63962934201DC012300E01C
:10460000002387F8173197F8173103F0010387F873
:104610001731D7F81C319BB21846FCF743FEF0EE79
:10462000407A9FED377A67EE877AB6EE007A77EEBA
:10463000877AFCEEE77A17EE903AC7F810314FF020
:1046400000022E4BD7E94801FBF720FE02460B463D
:1046500010461946FCF780FA03469BB21846FCF751
:1046600021FEF0EE407A9FED267A67EE877AB6EE6D
:10467000007A77EE877AFCEEE77A17EE903AC7F881
:104680000C31174B1B689BB21846FCF70BFEF0EE83
:10469000407A9FED1B7A67EE877AB6EE007A77EE66
:1046A000877AFCEEE77A17EE903AC7F80831D7F828
:1046B0001831DB0F87F8073197F80731002B21D02D
:1046C000D7F818319BB25B429BB21EE0AFF300807B
:1046D00000000000000000006A0500206C050020BA
:1046E000780500207405002070050020800500205A
:1046F0008805002090050020C7F1FFFF0000E03F83
:104700000000C842D7F818319BB21846FCF7CAFD22
:10471000F0EE407A1FED067A67EE877AB6EE007A01
:1047200077EE877AFCEEE77A17EE903AC7F8003119
:10473000D7F810313B4AA2FB03235D09D7F81021BB
:10474000384BA3FB02135B09642101FB03F3D31A6B
:10475000D7F80C213349A1FB02125609D7F80C11E6
:10476000304AA2FB01025209642000FB02F28A1ABD
:1047700097F80711002902D02B49396101E02B4934
:104780003961D7F800112748A0FB01014909F960F8
:10479000D7F800012349A1FB00414909642404FB27
:1047A00001F1411AD7F808011E4CA4FB0040400952
:1047B000B860D7F808411B48A0FB04C040094FF07F
:1047C000640C0CFB00F0201A194C24687C6097F8EC
:1047D000174107F13C0C0A947C6809940890B8686A
:1047E00007900691F9680591396904910392029640
:1047F0000193009505230F4A8021604612F00AF9C3
:10480000C7F8FC00D7F8FC309AB207F13C0132231C
:1048100009480EF068F8094B00221A70C8200FF002
:104820004AF9DAE41F85EB51C8890108CC890108EF
:1048300090050020D0890108A00300206905002010
:1048400080B582B000AF78607B681B68044A9342F1
:1048500001D108F0B7FA00BF0837BD4680BD00BFE0
:104860000020004080B582B000AF72B600BF4FF4A8
:104870000051074809F099FC00237B6002E07B6847
:1048800001337B607B68034A9342F8D9EFE700BFAE
:10489000000802401FA1070080B500AF00F0ACF98E
:1048A0000449054807F090FB0448FDF7BBFA00BF38
:1048B00080BD00BF5CB5010894050020B80500204C
:1048C00080B588B000AF07F051FC034683F00103C8
:1048D000DBB2002B01D0002349E0B0EE000A2648ED
:1048E00007F0A7FB254B01221A70244B01225A62C4
:1048F000B6EE000A7B2000F0CBF900F06DF83B46E5
:10490000184600F071F8D7ED007AF5EE407AF1EE36
:1049100010FA28D1D7ED017AF5EE407AF1EE10FACF
:1049200021D1D7ED027AF5EE407AF1EE10FA1AD1E4
:104930003B7B83F00103DBB2002B14D03B69002BDF
:1049400011D1BB8A002B0ED1D7ED067AF5EE407A55
:10495000F1EE10FA07D13B7F83F00103DBB2002BAD
:1049600001D0012300E0002303F00103DBB218466D
:104970002037BD4680BD00BF94050020B80500204B
:1049800080B500AF00F060F900BF80BD80B500AF1A
:1049900000F06CF900BF80BD80B582B000AF034667
:1049A00087ED000AFB80FB8897ED000A184600F0AF
:1049B0006FF900BF0837BD4680BD000080B500AF6D
:1049C000034807F01CFB0348FDF72CFA00BF80BD2D
:1049D00094050020B805002080B500AFFFF7EEFF7A
:1049E00000F0B2F900BF80BD80B586B000AF78603E
:1049F0007B68002B22D0134B5A697B681A60114BDD
:104A00009A697B685A600F4BDA697B689A600E4B33
:104A10001A787B681A730C4B5A6A7B681A6107F123
:104A20000C03184600F09CF9BA897B689A823A69AF
:104A30007B689A613A7D7B681A7700E000BF18377F
:104A4000BD4680BD94050020B805002080B58EB01D
:104A500000AF87ED010A38603B68002B01D10123CC
:104A600036E007F1080303224FF400511A48FDF71E
:104A7000EEF9034687F8373097F83730002B02D02D
:104A800097F8373024E0D7E9042310461946FDF79C
:104A90009FFAB0EE407AD7ED017A77EE677AC7EDEC
:104AA0000C7A3B683A6B1A6097ED0C0A0B4807F0DA
:104AB000C0FA87ED0B0AD7ED0B7AFDEEE77A17EE19
:104AC000903A9BB2B7EE000A184600F0E1F80023D6
:104AD00018463837BD4680BDB80500209405002033
:104AE00080B483B000AF0346FB80FB88074AA2FB7B
:104AF0000312520B42F6AB2101FB02F29B1A9BB24E
:104B000018460C37BD465DF8047B70470380FEBF36
:104B100080B400AF06231846BD465DF8047B70479D
:104B200080B400AF0C231846BD465DF8047B704787
:104B300080B500AF054807F004FBF0EE407AFDEECB
:104B4000E77A17EE903A184680BD00BF9405002022
:104B500080B584B000AF786087ED000A7B6807EE0F
:104B6000903AF8EE677A9FED217A27EE877ADFEDAB
:104B7000206AC7EE267AC7ED027A97ED020A12F094
:104B80002FFDF0EE407AB6EE007A67EE877AB6EE49
:104B9000007A77EE877A97ED007A67EE277AC7ED8D
:104BA000037AD7ED037AF5EEC07AF1EE10FA02D56A
:104BB0004FF00003FB60D7ED037AB7EE007AF4EE16
:104BC000C77AF1EE10FA02DD4FF07E53FB60D7EDAD
:104BD000037A9FED087A67EE877AFCEEE77A17EEA4
:104BE000903A9BB218461037BD4680BDDB0FC940D6
:104BF00000AC2A4600A0064580B500AF00F036F8AC
:104C0000012201210E4809F0B7FA002202210C48C6
:104C100009F0B2FA00220421094809F0ADFA002196
:104C200008480CF07FFC042106480CF07BFC0821AE
:104C300004480CF077FC00F087F800BF80BD00BF8F
:104C4000000802408402002080B500AF01224FF42A
:104C50000061044809F090FA034B01221A7200BF68
:104C600080BD00BF00000240F005002080B500AF0D
:104C700000224FF40061044809F07EFA034B002241
:104C80001A7200BF80BD00BF00000240F005002086
:104C900080B586B000AF034687ED000AFB80FB8835
:104CA000264AA2FB0312520B42F6AB2101FB02F291
:104CB0009B1A9BB27B61FB8803F639631F4AA2FBF8
:104CC0000312520B42F6AB2101FB02F29B1A3B612D
:104CD000FB8803F5E3531233184AA2FB0312520B6D
:104CE00042F6AB2101FB02F29B1AFB6097ED000A32
:104CF0007869FFF72DFF03461A46114B1B685A636C
:104D000097ED000A3869FFF723FF03461A460C4B5C
:104D10001B689A6397ED000AF868FFF719FF0346CE
:104D20001A46074B1B68DA63064AFB881380054A5C
:104D30003B68536000BF1837BD4680BD0380FEBF8F
:104D400084020020F005002080B500AF9FED030A2B
:104D50000020FFF79DFF00BF80BD00BF00000000E6
:104D600080B483B000AF78607B68002B04D07B6890
:104D7000044A07CA83E8070000BF0C37BD465DF848
:104D8000047B7047F005002080B483B000AF034679
:104D9000FB71044AFB79137000BF0C37BD465DF808
:104DA000047B70470506002080B485B000AF224B1D
:104DB0001B68BB60214B1B687B60214B1B683B6001
:104DC0000023FB602DE01F49FA681346DB009B1AA5
:104DD0009B000B441B68BA689A421FD11949FA68B4
:104DE0001346DB009B1A9B000B4404331B687A6854
:104DF0009A4213D11349FA681346DB009B1A9B00B1
:104E00000B4408331B683A689A4207D1FA68134684
:104E1000DB009B1A9B000B4A134406E0FB6801333E
:104E2000FB60FB68022BCED9002318461437BD4621
:104E30005DF8047B704700BF107AFF1F147AFF1FD4
:104E4000187AFF1F70B5010880B584B000AF786094
:104E5000FFF7AAFFF860FB68002B05D07B680122F2
:104E60001A70FB68DB6803E07B6800221A70024B53
:104E700018461037BD4680BD608A01080FB480B562
:104E8000A2B000AF07F194033B60381D3B68D7F830
:104E90009020802111F022FEC7F88400D7F88430DA
:104EA000002B0EDDD7F884307F2B02D97F23C7F883
:104EB0008430D7F884309AB2391D642304480DF049
:104EC00012FD00BF8837BD46BDE8804004B0704782
:104ED000A00300200FB480B5ADF5EF6D00AF07F271
:104EE000847207F5EF63A3F274731A6007F5EF633A
:104EF000A3F2747307F108001B68D7F8802740F20B
:104F00006C7111F0EBFDC7F87407D7F87437002BFC
:104F100012DDD7F8743740F26B72934203D940F236
:104F20006B73C7F87437D7F874379AB207F1080172
:104F3000C82305480DF0D7FC00BF07F5EF67BD4655
:104F4000BDE8804004B07047A003002080B58CB05D
:104F500002AF87ED030AB8607960D7ED037AF5EE0A
:104F6000C07AF1EE10FA4CBF0123002387F82730F6
:104F700097F82730002B04D0D7ED037AF1EE677A4B
:104F800001E0D7ED037AC7ED087AD7ED087A9FEDF7
:104F9000207A67EE877AB6EE007A77EE877AFDEEB2
:104FA000E77A17EE903AFB61FB691A4A82FB03121B
:104FB0005211DB17D31ABB61FB69164A82FB03123D
:104FC0005111DA178A1A642101FB02F29B1A7B61E4
:104FD00097F82730002B0ED0BB69002B02D17B69DC
:104FE000002B08D07B690093BB690B4A7968B868CD
:104FF00011F010FD08E07B690093BB69074A7968EE
:10500000B86811F007FD00BF00BF2837BD4680BD5E
:105010000000C8421F85EB516C8A0108788A01089C
:1050200080B58EB002AF87ED030AB86079603A6050
:105030000123FB620023BB6208E0FA6A13469B006F
:1050400013445B00FB62BB6A0133BB62BA6ABB6894
:105050009A42F2DBD7ED037AF5EEC07AF1EE10FA60
:105060004CBF0123002387F8273097F82730002B07
:1050700004D0D7ED037AF1EE677A01E0D7ED037A39
:10508000C7ED087AFB6A07EE903AB8EEE77AD7EDFB
:10509000087A67EE277AB6EE007A77EE877AFDEE29
:1050A000E77A17EE903AFB61FA69FB6A92FBF3F339
:1050B000BB61FB69FA6A93FBF2F2F96A01FB02F247
:1050C0009B1A7B6197F82730002B10D0BB69002B0F
:1050D00002D17B69002B0AD07B690193BB680093E6
:1050E000BB690A4A3968786811F094FC0AE07B6968
:1050F0000193BB680093BB69054A3968786811F071
:1051000089FC00BF00BF3037BD4680BD848A0108DE
:10511000908A0108B0B590B000AFC7E902017A608B
:105120003B607B68002B71D03B68002B6ED0002366
:10513000FB63D7E902014FF000024FF00003CA0FF2
:105140000023134687F82B3097F82B30002B06D01E
:10515000D7E902230021544261EB030501E0D7E9BE
:105160000245C7E90C45D7E90C014FF00A024FF0A0
:105170000003FBF7BFFED2B2FB6B591CF963303260
:10518000D2B240333B4403F8302CD7E90C014FF046
:105190000A024FF00003FBF7ADFE02460B46C7E9DB
:1051A0000C23D7E90C23134302D0FB6B162BDAD95F
:1051B00097F82B30002B0AD0FB6B162B07D8FB6B14
:1051C0005A1CFA6340333B442D2203F8302C002351
:1051D000FB620DE0FB6B013BFB63FB6A5A1CFA624E
:1051E0007A68134407F11001FA6B0A4412781A70B6
:1051F000FB6B002B04D0FB6A01333A689A42E9D872
:105200007A68FB6A134400221A7000E000BF40373E
:10521000BD46B0BD80B582B000AFC7E90001D7E997
:105220000001FBF7BBF94FF000020D4BFBF7E4F96F
:1052300002460B46104619464FF00002094BFBF799
:1052400005FB02460B4610461946FBF7A5FC034634
:1052500007EE903AB0EE670A0837BD4680BD00BF42
:10526000008076400000F04180B483B000AF7860E9
:105270007B68FF2B02D87B68DBB200E0FF23184677
:105280000C37BD465DF8047B704780B483B000AF37
:1052900078607B68B3F5803F02D27B689BB201E007
:1052A0004FF6FF7318460C37BD465DF8047B704718
:1052B00080B400AF00231846BD465DF8047B7047FC
:1052C00080B483B000AF0346FB71FB79092B2BD868
:1052D00001A252F823F000BF015300080553000853
:1052E000095300080D530008115300081553000816
:1052F000195300081D5300082153000825530008C6
:105300000D4B12E00D4B10E00D4B0EE00D4B0CE081
:105310000D4B0AE00D4B08E00D4B06E00D4B04E091
:105320000D4B02E00D4B00E00D4B18460C37BD460F
:105330005DF8047B704700BF9C8A0108A08A0108C1
:10534000AC8A0108B88A0108C48A0108D08A010819
:10535000E08A0108F88A0108148B0108288B0108EB
:10536000388B010880B58EB000AF7861396187ED68
:10537000030ABA607B604FF000037B634FF00003C9
:105380003B630023FB6258E0FB6A07EE903AF8EEBD
:10539000E77A9FED6C7A67EE877A9FED6B7A27EE5E
:1053A000877ADFED6A6AC7EE267AC7ED0A7AD7ED0B
:1053B0000A7A9FED677A27EE877ADFED666AC7EE95
:1053C000267AC7ED097ABB6807EE903AF8EEE77ADD
:1053D00097ED097A67EE277AC7ED087AFB6A9B009A
:1053E0007A69134493ED007AD7ED037A77EE677A02
:1053F000C7ED077A97ED080A12F0BAF8B0EE407AD6
:10540000D7ED077A67EE277A97ED0D7A77EE277A50
:10541000C7ED0D7A97ED080A12F0E2F8B0EE407A87
:10542000D7ED077A67EE277A97ED0C7A77EE277A31
:10543000C7ED0C7AFB6A0133FB62FA6A3B699A4258
:10544000A2DBBB68DAB27B681A703B69002B13DC05
:105450007B684FF000025A607B684FF000029A6050
:105460007B684FF00002DA607B684FF000021A613F
:105470007B6800221A7562E03B6907EE903AF8EE0D
:10548000E77AF0EE006A86EEA77AD7ED0D7A67EE3E
:10549000277A7B68C3ED017A3B6907EE903AF8EE14
:1054A000E77AF0EE006A86EEA77AD7ED0C7A67EE1F
:1054B000277A7B68C3ED027A7B6893ED017A7B687B
:1054C000D3ED017A27EE277A7B68D3ED026A7B68F9
:1054D000D3ED027A66EEA77A77EE277AB0EE670A06
:1054E00012F024F8F0EE407A7B68C3ED037A7B6813
:1054F000D3ED027A7B6893ED017AF0EE470AB0EEC5
:10550000670A12F011F8F0EE407A9FED127A27EE5A
:10551000877ADFED0F6AC7EE267A7B68C3ED047ADF
:105520007B68D3ED037A9FED0C7AF4EEC77AF1EE47
:1055300010FAACBF01230023DAB27B681A75383742
:10554000BD4680BD0000B44300008043000080479A
:10555000DB0F494000003443CDCC4C3D80B487B0D4
:1055600000AFF860B9607A6000237B6118E07A6967
:1055700013465B001344DB001A46FB6813441A7899
:105580007B68DBB29A4208D17A6913465B00134408
:10559000DB001A46FB68134407E07B6901337B613B
:1055A0007A69BB689A42E2DB002318461C37BD4685
:1055B0005DF8047B7047000080B52DED028B90B044
:1055C00000AF7861396187ED030ABA607B603B699F
:1055D000002B02DCDFED507A96E04FF00003FB6316
:1055E0000023BB637CE0BB6B07EE903AF8EEE77AF2
:1055F0009FED4A7A67EE877A9FED497A27EE877AA0
:10560000DFED486AC7EE267AC7ED0B7AD7ED0B7A45
:105610009FED457A27EE877ADFED446AC7EE267A5A
:10562000C7ED0A7AFB687B6300233B633BE03B6B7F
:105630007A6813441B781A460C21B868FFF78EFF6E
:1056400038623B6A002B2AD03B6A1B7807EE903AFF
:10565000F8EE677A97ED0A7A67EE277AC7ED077A50
:105660003B6A93ED018A97ED070A11F081FFF0EE96
:10567000407A28EE278A3B6AD3ED028A97ED070A23
:1056800011F0AEFFF0EE407A68EEA77A78EE277A56
:1056900097ED0D7A77EE277AC7ED0D7A00E000BF1F
:1056A0003B6B01333B633A6B3B6D9A42BFDBBB6B99
:1056B0009B007A69134493ED007AD7ED0D7A77EE6B
:1056C000677AC7ED097AD7ED097A67EEA77A97ED81
:1056D0000F7A77EE277AC7ED0F7ABB6B0133BB6386
:1056E000BA6B3B699A42FFF67EAF3B6907EE903A90
:1056F000F8EEE77A97ED0F7AC7EE276AB0EE660A02
:1057000011F014FFF0EE407AB0EE670A4037BD4664
:10571000BDEC028B80BD00BF000000000000B44360
:105720000000804300008047DB0F49400000344305
:1057300080B52DED028B8EB000AF78613961FA60D3
:10574000BB6087ED010A424B7B63424B3B63002306
:10575000FB626CE0FB6A07EE903AF8EEE77A9FEDA9
:105760003E7A27EE877ADFED3D6AC7EE267AC7EDEF
:10577000087A7B68BB6200237B623BE07B6AFA6845
:1057800013441B781A4639697869FFF7E7FEF86118
:10579000FB69002B2AD0FB691B7807EE903AF8EEE4
:1057A000677A97ED087A67EE277AC7ED067AFB6984
:1057B00093ED018A97ED060A11F0DAFEF0EE407AD9
:1057C00028EE278AFB69D3ED028A97ED060A11F0CD
:1057D00007FFF0EE407A68EEA77A78EE277A97ED29
:1057E0000A7A77EE277AC7ED0A7A00E000BF7B6A73
:1057F00001337B627A6ABB689A42BFDB97ED0A7A13
:10580000D7ED0D7AB4EEE77AF1EE10FA01DDBB6A5E
:105810007B6397ED0A7AD7ED0C7AB4EEE77AF1EE76
:1058200010FA01D5BB6A3B63FB6A0133FB62FB6A7A
:10583000B3F5805F8EDBBB6C7A6B1A60FB6C3A6BE6
:105840001A6000BF3837BD46BDEC028B80BD00BF7B
:10585000286B6ECE286B6E4EDB0FC9400000804572
:10586000B0B594B002AF78613961FA6087ED020A91
:105870007B60C7ED000A07F1240300221A605A601A
:105880009A60DA601A6100237B642CE07B6CFA6D0D
:1058900013441B781A46B96D7868FFF75FFE03461C
:1058A000002B0AD15F4B7B637B691D4607F1240403
:1058B0000FCC0FC523682B60AFE07B6CFA6D1344EF
:1058C0001B785A00FB689A420AD3574B7B637B696B
:1058D0001D4607F124040FCC0FC523682B609CE004
:1058E0007B6C01337B647A6C3B6E9A42CEDB3B6E01
:1058F0000093FB6D7A6897ED020AF9683869FFF743
:105900005BFEF0EE407AC7ED097A07F11C030193C4
:1059100007F12003009397ED020A3B6EFA6DB96D13
:105920007868FFF705FF97ED087AD7ED077A77EEED
:10593000677AC7ED0A7AD7ED007A9FED3C7AF4EEEC
:10594000C77AF1EE10FA57DDD7ED096A97ED007AC4
:10595000C6EE877AC7ED0F7AD7ED0F7A67EEA77A92
:10596000B7EE007A77EE677AC7ED0E7AD7ED0E7A4A
:10597000F0EEE77A9FED2E7AF4EE477AF1EE10FA28
:1059800011D8D7ED0E7A9FED2B7AF4EEC77AF1EEAF
:1059900010FA08D4D7ED0E7A9FED277AF4EEC77A85
:1059A000F1EE10FA0ADD254B7B637B691D4607F19A
:1059B00024040FCC0FC523682B602EE0BB6B3B6427
:1059C000D7ED107AF5EEC07AF1EE10FA02D54FF06D
:1059D00000033B64D7ED107AB7EE007AF4EEC77A95
:1059E000F1EE10FA02DD4FF07E533B643B6CFB623C
:1059F000012387F8303005E04FF00003FB620023FD
:105A000087F83030012387F831307B691D4607F174
:105A100024040FCC0FC523682B6078694837BD4636
:105A2000B0BD00BF408B0108548B0108BD378635DF
:105A3000FFFF7F7F6F1283BAC520803F688B01080C
:105A400080B487B000AF7860396001237B6131E0BA
:105A50007B699B007A6813441B68FB607B69013B90
:105A60003B610DE03B699B007A681A443B69013356
:105A70009B0079680B4412681A603B69013B3B61EB
:105A80003B69002B0CDB3B699B007A681344D3ED28
:105A9000007A97ED037AB4EEE77AF1EE10FAE1D4EA
:105AA0003B6901339B007A681344FA681A607B698A
:105AB00001337B617A693B689A42C9DB00BF00BF52
:105AC0001C37BD465DF8047B70470000B0B594B04C
:105AD00000AFF860B9607A603B6007F11003002204
