:020000040800F2
:1000000000000220998C00086D8B00086F8B00089F
:10001000718B0008738B0008758B000800000000CE
:10002000000000000000000000000000D1DE000819
:10003000778B00080000000061DF000861C5000840
:10004000E98C0008E98C0008E98C0008E98C0008BC
:10005000E98C0008E98C0008E98C0008E98C0008AC
:10006000E98C0008E98C0008E98C0008E98C00089C
:10007000798B0008E98C0008858B0008E98C000862
:10008000918B00089D8B0008A98B0008E98C000863
:10009000E98C0008E98C0008E98C0008E98C00086C
:1000A000E98C0008E98C0008E98C0008E98C00085C
:1000B000B58B0008E98C0008E98C0008E98C000881
:1000C000E98C0008C18B0008CD8B00083D8C00082E
:1000D000E98C0008E98C0008D98B0008E58B000842
:1000E000E98C0008E98C0008E98C0008E98C00081C
:1000F000E98C0008F18B0008E98C00080D8C0008E1
:10010000E98C0008E98C0008E98C0008E98C0008FB
:10011000E98C0008E98C0008E98C0008E98C0008EB
:10012000198C0008E98C0008258C0008318C000827
:10013000E98C00080000000000000000E98C0008C5
:10014000E98C0008E98C0008E98C0008E98C0008BB
:10015000E98C0008E98C0008E98C0008E98C0008AB
:10016000E98C0008E98C0008E98C0008E98C00089B
:10017000E98C0008E98C0008000000000000000085
:08018000E98C0008E98C00087D
:1001900010B5054C237833B9044B13B10448AFF3C1
:1001A00000800123237010BD6000002000000000CB
:1001B000CC01010808B5034B1BB103490348AFF359
:1001C000008008BD0000000064000020CC01010890
:1001D000034613F8012B002AFBD1181A0138704787
:1001E00001F0FF01102A2BDB10F0070F08D010F8E8
:1001F000013B013A8B422DD010F0070F42B3F6D1EC
:10020000F0B441EA012141EA014122F007047FF004
:1002100000070023F0E80256083C85EA010586EA5B
:10022000010685FA47F5A3FA87F586FA47F6A5FA97
:1002300087F68EB9EED1F0BC01F0FF0102F00702A3
:1002400032B110F8013B013A83EA010313B1F8D14E
:100250000020704701387047002D06BF354603382F
:10026000073815F0010F07D1013015F4807F02BF68
:10027000013015F4C03F0130F0BC0138704700BFB9
:1002800081F0004102E000BF83F0004330B54FEA47
:1002900041044FEA430594EA050F08BF90EA020FB4
:1002A0001FBF54EA000C55EA020C7FEA645C7FEA47
:1002B000655C00F0E2804FEA5454D4EB5555B8BF6A
:1002C0006D420CDD2C4480EA020281EA030382EADB
:1002D000000083EA010180EA020281EA0303362D6D
:1002E00088BF30BD11F0004F4FEA01314FF4801C40
:1002F0004CEA113102D0404261EB410113F0004F52
:100300004FEA03334CEA133302D0524263EB430308
:1003100094EA050F00F0A780A4F10104D5F1200EA6
:100320000DDB02FA0EFC22FA05F2801841F1000101
:1003300003FA0EF2801843FA05F359410EE0A5F1D5
:1003400020050EF1200E012A03FA0EFC28BF4CF006
:10035000020C43FA05F3C01851EBE37101F00045BC
:1003600007D54FF0000EDCF1000C7EEB00006EEBC9
:100370000101B1F5801F1BD3B1F5001F0CD3490853
:100380005FEA30004FEA3C0C04F101044FEA4452AA
:1003900012F5800F80F09A80BCF1004F08BF5FEA31
:1003A000500C50F1000041EB045141EA050130BD11
:1003B0005FEA4C0C404141EB0101013C28BFB1F523
:1003C000801FE9D291F0000F04BF01460020B1FA6E
:1003D00081F308BF2033A3F10B03B3F120020CDA41
:1003E0000C3208DD02F1140CC2F10C0201FA0CF01F
:1003F00021FA02F10CE002F11402D8BFC2F1200C84
:1004000001FA02F120FA0CFCDCBF41EA0C01904039
:10041000E41AA2BF01EB0451294330BD6FEA040482
:100420001F3C1CDA0C340EDC04F11404C4F120026D
:1004300020FA04F001FA02F340EA030021FA04F37F
:1004400045EA030130BDC4F10C04C4F1200220FAD6
:1004500002F001FA04F340EA0300294630BD21FA14
:1004600004F0294630BD94F0000F83F4801306BFDA
:1004700081F480110134013D4EE77FEA645C18BFCE
:100480007FEA655C29D094EA050F08BF90EA020F65
:1004900005D054EA000C04BF1946104630BD91EA5D
:1004A000030F1EBF0021002030BD5FEA545C05D160
:1004B0004000494128BF41F0004130BD14F580049F
:1004C0003CBF01F5801130BD01F0004545F0FE4113
:1004D00041F470014FF0000030BD7FEA645C1ABF48
:1004E000194610467FEA655C1CBF0B46024650EA7F
:1004F000013406BF52EA033591EA030F41F40021AB
:1005000030BD00BF90F0000F04BF0021704730B530
:100510004FF4806404F132044FF000054FF0000105
:1005200050E700BF90F0000F04BF0021704730B5C6
:100530004FF4806404F1320410F0004548BF40429B
:100540004FF000013EE700BF42004FEAE2014FEAF0
:1005500031014FEA02701FBF12F07F4393F07F4FCB
:1005600081F06051704732F07F4208BF704793F0CE
:100570007F4F04BF41F40021704730B54FF46074E1
:1005800001F0004521F000411CE700BF50EA0102E4
:1005900008BF704730B54FF000050AE050EA01028D
:1005A00008BF704730B511F0004502D5404261EBFD
:1005B00041014FF4806404F132045FEA915C3FF43E
:1005C000D8AE4FF003025FEADC0C18BF03325FEADB
:1005D000DC0C18BF033202EBDC02C2F1200300FA8C
:1005E00003FC20FA02F001FA03FE40EA0E0021FAB1
:1005F00002F11444BDE600BF70B54FF0FF0C4CF49F
:10060000E06C1CEA11541DBF1CEA135594EA0C0F50
:1006100095EA0C0F00F0DEF82C4481EA030621EA8B
:100620004C5123EA4C5350EA013518BF52EA0335C6
:1006300041F4801143F4801338D0A0FB02CE4FF078
:100640000005E1FB02E506F00042E0FB03E54FF0A8
:100650000006E1FB03569CF0000F18BF4EF0010EA0
:10066000A4F1FF04B6F5007F64F5407404D25FEA9C
:100670004E0E6D4146EB060642EAC62141EA55514F
:100680004FEAC52040EA5E504FEACE2EB4F1FD0C91
:1006900088BFBCF5E06F1ED8BEF1004F08BF5FEA0F
:1006A000500E50F1000041EB045170BD06F00046C1
:1006B00046EA010140EA020081EA0301B4EB5C046E
:1006C000C2BFD4EB0C0541EA045170BD41F4801166
:1006D0004FF0000E013C00F3AB8014F1360FDEBF8B
:1006E000002001F0004170BDC4F10004203C35DA67
:1006F0000C341BDC04F11404C4F1200500FA05F3EA
:1007000020FA04F001FA05F240EA020001F000428A
:1007100021F0004110EBD37021FA04F642EB060100
:100720005EEA430E08BF20EAD37070BDC4F10C042A
:10073000C4F1200500FA04F320FA05F001FA04F2EE
:1007400040EA020001F0004110EBD37041F10001DA
:100750005EEA430E08BF20EAD37070BDC4F12005E5
:1007600000FA05F24EEA020E20FA04F301FA05F24D
:1007700043EA020321FA04F001F0004121FA04F2F5
:1007800020EA020000EBD3705EEA430E08BF20EAC5
:10079000D37070BD94F0000F0FD101F000464000FF
:1007A00041EB010111F4801F08BF013CF7D041EA81
:1007B000060195F0000F18BF704703F00046520085
:1007C00043EB030313F4801F08BF013DF7D043EA56
:1007D0000603704794EA0C0F0CEA135518BF95EA0C
:1007E0000C0F0CD050EA410618BF52EA4306D1D193
:1007F00081EA030101F000414FF0000070BD50EAB2
:10080000410606BF1046194652EA430619D094EA3B
:100810000C0F02D150EA013613D195EA0C0F05D125
:1008200052EA03361CBF104619460AD181EA030179
:1008300001F0004141F0FE4141F470014FF0000031
:1008400070BD41F0FE4141F4780170BD70B54FF0CC
:10085000FF0C4CF4E06C1CEA11541DBF1CEA13554C
:1008600094EA0C0F95EA0C0F00F0A7F8A4EB05042E
:1008700081EA030E52EA03354FEA013100F0888025
:100880004FEA03334FF0805545EA131343EA1263EE
:100890004FEA022245EA111545EA10654FEA0026A3
:1008A0000EF000419D4208BF964244F1FD0404F55C
:1008B000407402D25B084FEA3202B61A65EB0305B8
:1008C0005B084FEA32024FF480104FF4002CB6EB75
:1008D000020E75EB030E22BFB61A754640EA0C00F5
:1008E0005B084FEA3202B6EB020E75EB030E22BF35
:1008F000B61A754640EA5C005B084FEA3202B6EB76
:10090000020E75EB030E22BFB61A754640EA9C0034
:100910005B084FEA3202B6EB020E75EB030E22BF04
:10092000B61A754640EADC0055EA060E18D04FEAC2
:10093000051545EA16754FEA06164FEAC30343EA62
:1009400052734FEAC2025FEA1C1CC0D111F4801F2F
:100950000BD141EA00014FF000004FF0004CB6E728
:1009600011F4801F04BF01430020B4F1FD0C88BFC7
:10097000BCF5E06F3FF6AFAEB5EB030C04BFB6EBD2
:10098000020C5FEA500C50F1000041EB045170BDC5
:100990000EF0004E4EEA113114EB5C04C2BFD4EBF2
:1009A0000C0541EA045170BD41F480114FF0000E76
:1009B000013C90E645EA060E8DE60CEA135594EAF2
:1009C0000C0F08BF95EA0C0F3FF43BAF94EA0C0FF5
:1009D0000AD150EA01347FF434AF95EA0C0F7FF46A
:1009E00025AF104619462CE795EA0C0F06D152EABE
:1009F00003353FF4FDAE1046194622E750EA4106A2
:100A000018BF52EA43067FF4C5AE50EA41047FF4B2
:100A10000DAF52EA43057FF4EBAE12E74FF0FF3C17
:100A200006E000BF4FF0010C02E000BF4FF0010CE8
:100A30004DF804CD4FEA410C7FEA6C5C4FEA430C61
:100A400018BF7FEA6C5C1BD001B050EA410C0CBFB0
:100A500052EA430C91EA030F02BF90EA020F002012
:100A6000704710F1000F91EA030F58BF994208BF79
:100A700090422CBFD8176FEAE37040F00100704736
:100A80004FEA410C7FEA6C5C02D150EA013C07D18D
:100A90004FEA430C7FEA6C5CD6D152EA033CD3D0D8
:100AA0005DF8040B704700BF8446104662468C46D2
:100AB0001946634600E000BF01B5FFF7B7FF002805
:100AC00048BF10F1000F01BD4DF808EDFFF7F4FF2E
:100AD0000CBF012000205DF808FB00BF4DF808EDB9
:100AE000FFF7EAFF34BF012000205DF808FB00BFDC
:100AF0004DF808EDFFF7E0FF94BF012000205DF8FE
:100B000008FB00BF4DF808EDFFF7CEFF94BF0120B2
:100B100000205DF808FB00BF4DF808EDFFF7C4FFAB
:100B200034BF012000205DF808FB00BF4FEA410CF4
:100B30007FEA6C5C02D150EA013C0AD14FEA430CD7
:100B40007FEA6C5C02D152EA033C02D14FF0000014
:100B500070474FF0010070474A0011D212F50012A1
:100B600011D20DD56FF47873B3EB62520ED44FEA05
:100B7000C12343F0004343EA505323FA02F0704785
:100B80004FF00000704750EA013002D14FF0FF30C3
:100B900070474FF0000070474FEA4102B2F1E04366
:100BA00024BFB3F5001CDCF1FE5C0DD901F0004C54
:100BB0004FEAC0024CEA5070B2F1004F40EB8300A4
:100BC00008BF20F00100704711F0804F21D113F1D0
:100BD0003872BCBF01F00040704741F480114FEA09
:100BE0005252C2F11802C2F1200C10FA0CF320FA92
:100BF00002F018BF40F001004FEAC1234FEAD323AF
:100C000003FA0CFC40EA0C0023FA02F34FEA430318
:100C1000CCE77FEA625307D150EA01331EBF4FF0A1
:100C2000FE4040F44000704701F0004040F0FE40BC
:100C300040F40000704700BF80F0004002E000BFB9
:100C400081F0004142001FBF5FEA410392EA030FB7
:100C50007FEA226C7FEA236C6AD04FEA1262D2EB01
:100C60001363C1BFD218414048404140B8BF5B4206
:100C7000192B88BF704710F0004F40F4000020F09F
:100C80007F4018BF404211F0004F41F4000121F0B5
:100C90007F4118BF494292EA030F3FD0A2F10102FF
:100CA00041FA03FC10EB0C00C3F1200301FA03F13D
:100CB00000F0004302D5494260EB4000B0F5000F60
:100CC00013D3B0F1807F06D340084FEA310102F11F
:100CD0000102FE2A51D2B1F1004F40EBC25008BFD1
:100CE00020F0010040EA03007047490040EB00009B
:100CF000013A28BFB0F5000FEDD2B0FA80FCACF19C
:100D0000080CB2EB0C0200FA0CF0AABF00EBC250C8
:100D100052421843BCBFD0401843704792F0000FB6
:100D200081F4000106BF80F400000132013BB5E709
:100D30004FEA41037FEA226C18BF7FEA236C21D07F
:100D400092EA030F04D092F0000F08BF08467047E4
:100D500090EA010F1CBF0020704712F07F4F04D1B2
:100D6000400028BF40F00040704712F100723CBFC5
:100D700000F50000704700F0004343F0FE4040F4EF
:100D8000000070477FEA226216BF08467FEA2363AD
:100D90000146420206BF5FEA412390EA010F40F498
:100DA000800070474FF0000304E000BF10F00043E4
:100DB00048BF40425FEA000C08BF704743F09643CB
:100DC00001464FF000001CE050EA010208BF7047E6
:100DD0004FF000030AE000BF50EA010208BF70476D
:100DE00011F0004302D5404261EB41015FEA010C82
:100DF00002BF84460146002043F0B64308BFA3F17A
:100E00008053A3F50003BCFA8CF2083AA3EBC2535B
:100E100010DB01FA02FC634400FA02FCC2F120027A
:100E2000BCF1004F20FA02F243EB020008BF20F0B1
:100E30000100704702F1200201FA02FCC2F1200217
:100E400050EA4C0021FA02F243EB020008BF20EA0C
:100E5000DC7070477BB972B90029BEBF00204FF02B
:100E6000004106E008BF00281CBF6FF000414FF0B2
:100E7000FF3000F0D3B9ADF1080C6DE904CE0029C4
:100E800009DB002B1ADB00F04DF8DDF804E0DDE9AA
:100E9000022304B07047404261EB4101002B1BDB91
:100EA00000F040F8DDF804E0DDE9022304B0404240
:100EB00061EB4101524263EB43037047524263EBE3
:100EC000430300F02FF8DDF804E0DDE9022304B06D
:100ED000404261EB41017047524263EB430300F033
:100EE00021F8DDF804E0DDE9022304B0524263EBAF
:100EF0004303704753B94AB9002908BF00281CBFF3
:100F00004FF0FF314FF0FF3000F088B9ADF1080C21
:100F10006DE904CE00F006F8DDF804E0DDE9022317
:100F200004B070472DE9F047089D0F4604468C46F3
:100F3000002B48D18A42164661D9B2FA82F34BB1EE
:100F4000C3F1200201FA03FC20FA02F29E4042EAB9
:100F50000C0C9C404FEA164EB7B2BCFBFEF1220CC3
:100F60000EFB11CC42EA0C4201FB07F0904209D97A
:100F7000B21801F1FF3C80F0EE80904240F2EB802D
:100F800002393244121AA4B2B2FBFEF00EFB102258
:100F900044EA024400FB07F7A74209D9341900F1DB
:100FA000FF3280F0DA80A74240F2D7803444023822
:100FB00040EA0140E41B00211DB1DC400023C5E9EB
:100FC0000043BDE8F0878B4206D90DB1C5E90001A9
:100FD00000210846BDE8F087B3FA83F1002948D123
:100FE000BB4202D3824200F20781841A67EB0302FC
:100FF00001209446002DE4D0C5E9004CE1E7002A29
:1010000000F09280B2FA82F3002B40F0A8808A1A96
:101010004FEA164E1FFA86FC0121200CB2FBFEF7A8
:101020000EFB172240EA02420CFB07F0904207D960
:10103000B21807F1FF3802D2904200F2E280474630
:10104000121AA4B2B2FBFEF00EFB102244EA0244D4
:101050000CFB00FCA44507D9341900F1FF3202D281
:10106000A44500F2CB801046A4EB0C0440EA0740F4
:10107000A2E7C1F120068B4022FA06FC4CEA030CE1
:1010800007FA01F420FA06F3F7404FEA1C4923431C
:1010900000FA01F81FFA8CFEB7FBF9F01C0C09FBF3
:1010A000107744EA074400FB0EF7A74202FA01F268
:1010B0000AD91CEB040400F1FF3A80F09B80A742A0
:1010C00040F2988002386444E41B9FB2B4FBF9F309
:1010D00009FB134447EA044403FB0EFEA64509D965
:1010E0001CEB040403F1FF3780F08280A6457FD912
:1010F000023B644443EA0040A4EB0E04A0FB02E779
:10110000BC427346B94663D360D05DB1B8EB03020D
:1011100064EB090404FA06F622FA01F31E43CC40FC
:10112000C5E9006400214CE76208480842EAC17141
:101130000B0C43EA00438AB242EA0342B3FBF6F1E6
:10114000E407B4463746B6461F23B0FBF6F0D21B81
:1011500041EA004161E7614614E7104628E7C3F120
:10116000200120FA01F29E4027FA01F19F403A4304
:101170004FEA164E1FFA86FCB1FBFEF70EFB171066
:10118000110C41EA004107FB0CF8884504FA03F40E
:101190003AD9711807F1FF3001D288451FD8A1EB69
:1011A0000801B1FBFEF808FB0CF70EFB181192B218
:1011B00042EA0142BA422FD2B21808F1FF31C6D238
:1011C000BA42C4D2A8F102013244C0E7F0459CD231
:1011D000BEEB020367EB0C070138B94695E7A6EBB7
:1011E00008084144B81EB1FBFEF808FB0CF7DCE729
:1011F0003B467FE7504667E70846FBE63444023843
:1012000032E7023F32441BE7A1EB08013846B1FB4D
:10121000FEF808FB0CF7C8E7414698E7704700BFA7
:1012200006F0CCBE06F01EBF06F03ABF004870477D
:10123000A002010800487047AC020108004870474E
:10124000C90201080B480C4B0C4A10F8011B11B1E4
:101250004B405343F9E783F0FF03094907485343E1
:1012600011F8012B12B153404343F9E783F0FF0318
:1012700058437047A0020108C59D1C8193010001DD
:10128000AC02010808B5054800224FF4006108F0DF
:1012900033FABDE8084001F09FBE00BF00000240E5
:1012A00008B5054800224FF4006108F025FABDE8B2
:1012B000084001F091BE00BF000002400248012238
:1012C000402108F019BA00BF000402400248002281
:1012D000402108F011BA00BF0004024037B50023D6
:1012E00004460D46ADF80430FFF7F0FFD2238DF829
:1012F000003012488DF801400A230222694609F0A5
:10130000E9FC0446FFF7DAFF34B1032C0CBF0224DA
:101310000324204603B030BDFFF7D8FF07480A2357
:10132000022201A909F073FE0446FFF7C7FF002C53
:10133000EBD19DF805302B70EBE700BF580600207D
:10134000084B834210B50BD1074C2378012B07D1F2
:10135000064B5A68064B1A60FFF7B0FF0223237052
:1013600010BD00BF5806002080000020001000E0E3
:101370007C000020084B834210B50BD1074C23782A
:10138000012B07D1064B5A68064B1A60FFF796FFF0
:101390000323237010BD00BF5806002080000020EA
:1013A000001000E07C00002000487047E0020108C7
:1013B00007EE900A9FED057A9FED050AF8EE677A31
:1013C00067EE877A27EE800A704700BF0000B443BB
:1013D0000000803713B5044610B9002002B010BDDC
:1013E0000DF107011A20FFF779FF0028F5D19DF8CC
:1013F0000730DA092270C3F380026270C3F340023F
:1014000003F00103A270E3700120E7E72DE9F04744
:1014100007460C4619B100230B604B608B60002F10
:101420006DD0384B5968384B1A68536A1CB1238108
:1014300001232160A372354E317801F0FF0319B109
:1014400003252846BDE8F0873149DFF8C880DFF87A
:10145000D4900B70C9F800304B7088F8003088F8D1
:101460000130012333703CB1264B5B682360536A23
:10147000238140F201136381FFF728FF254A2449A5
:101480002548022309F060FE054638B1FFF716FF34
:101490000023032D3370D3D10225D2E7DFF864A0F7
:1014A0001E4B1F4A1B68DAF80410B3FBF2F342F23A
:1014B000107253433278012A0ED03378DBB214B164
:1014C000D9F8002062600022022B3270B8D1B8F83F
:1014D00000305BBA3B80B4E7DAF80420521A93423A
:1014E000E8D804230C48337009F0B2FEFFF7E6FE9B
:1014F00014B1DAF80430636000233370CCE70125BF
:101500009FE700BF001000E0500500208000002091
:1015100083000020810000205806002000000020E9
:1015200040420F007C00002009B1FFF7D7BE012028
:10153000704700001FB5D723ADF808300023ADF881
:101540000C30FFF7C3FE0A23009303AA022302A96B
:10155000054809F06CFC0446FFF7B0FEB4FA84F0CD
:10156000400904B010BD00BF5806002013B5002389
:10157000044601A80193FFF72DFF30B914B90020EC
:1015800002B010BD01982060F9E79DF805302BB935
:101590009DF8063013B99DF8073033B1FFF7CAFF45
:1015A00001A8FFF717FF0028E8D00CB101982060D0
:1015B0009DF8043063B99DF8050058B99DF80630D0
:1015C0001BB99DF8070080F0010000F00100D7E78B
:1015D0000020FAE71846F8E730B548B100230024A8
:1015E0000025C0E90245C0E90433037043808361EC
:1015F00030BD70B5049D002838D0002D36D0002BAA
:1016000034DB047864B901230370436941800133FA
:10161000C0E902140261436129606C60002070BD62
:1016200044880C1BB4F5004F0CDDA4F5803484EA2B
:10163000E476A6EBE476B3420ADA83690133836188
:101640000420ECE714F5004FB8BF04F58034EEE752
:10165000D0E90236026142694180E31846EBE47446
:101660000132C0E9023442612B60D6E70120D6E79F
:101670002DE9F7430446002800F08680342200213B
:101680000CF0F6FE002001A98DF804008DF805008D
:101690008DF80600FFF722FE04F10806002843D06B
:1016A00000259DF805209DF8043043EA022363805D
:1016B0004FF000089DF80630A371A4F82A80B146C7
:1016C00020270DF1070138468DF80780FFF706FE49
:1016D00010B18DF8078000259DF8073009F8013F0B
:1016E00013B1638D013363850137FFB2402FE8D119
:1016F000264904F128074FF0FF3316F8012F082080
:10170000534043F300020A40013882EA5303F8D100
:10171000B742F2D1DB43E36225706DBB84F83050F1
:10172000052003B0BDE8F0830DF105010120FFF7AE
:10173000D5FD0028B4D1211D0920FFF7F5FE0028B2
:10174000AED1611D0D20FFF7EFFE0028A8D10DF1ED
:1017500006011A20FFF7C2FD0028A1D1E11D1C20BF
:10176000FFF7E2FE00289BD131461F20FFF7DCFE89
:10177000B0FA80F56D0994E7638D002B14BF022346
:10178000012384F83030CCE70120CAE72083B8ED8C
:10179000024678B103786BB190F8301051B183797B
:1017A00013F0870008D1012908D1538D002B18BFF1
:1017B00003207047012070470220704703207047C4
:1017C00038B505460C46FFF7E3FFE8B9ECB16A8887
:1017D00023889A421BD12A79A3789A4219D16A792F
:1017E000E3789A4217D1AA7923799A4215D1EA79F6
:1017F00063799A4213D12A7AA3799A4211D1EA6A7B
:10180000A3689A4218BF0B2038BD0420FCE70520CE
:10181000FAE70620F8E70720F6E70820F4E70920B2
:10182000F2E70A20F0E700000B289ABF024B53F8BA
:1018300020000248704700BFF8380108FC02010888
:101840002DE9F04F95B00021342207A80CF010FECE
:10185000012605233E4A8DF8213007A812928DF803
:101860001C608DF84C60FFF793FF3A4A044607CAA4
:1018700004AD85E80700294607A8FFF7A1FF00216E
:10188000039007A8FFF79CFF2946834607A8ADF8F9
:101890001E60FFF795FF00272946824607A8ADF88E
:1018A0001E708DF82060FFF78BFF4FF48061ADF85C
:1018B00020108146294607A8FFF782FF05238DF8EF
:1018C000213029460823804607A88DF82230FFF7EB
:1018D00077FF4FF480710290ADF8221007A82946D7
:1018E000FFF76EFF2946019007A88DF823708DF849
:1018F0002460FFF765FF039A8DF8247001461648AF
:10190000129044EA020010F0FF001ED1BBF1040F58
:10191000029B17D1BAF1050F14D1B9F1060F11D1FD
:10192000B8F1070F0ED1082B0CD1019B092B09D15F
:101930000A2907D1294607A8FFF742FFA0F10B03A8
:101940005842584115B0BDE8F08F3846FAE700BF5D
:10195000AD550A19E8010108AC550A19074AD2F831
:10196000FC3043F08073C2F8FC30054B00225A6013
:101970001A6842F001021A60704700BF00ED00E0F3
:10198000001000E008B5FFF799FCBDE80840FFF73C
:10199000E5BF0000034B044A1B68B3FBF2F3584356
:1019A000704700BF0000002040420F0070B50446A1
:1019B000049868B1002B0CDA561E63F10045A6426C
:1019C0008D410FDBA41A61EB0301C0E90041012046
:1019D00070BD52EA0305F5D003F10045944271EB66
:1019E0000505EEE70020F3E72DE9F0410546012467
:1019F0008C4201D3BDE8F08155F8087F6E682B4614
:101A0000224653E902EC774576EB0C0805DA013AF9
:101A1000C3E900ECA3F10803F3D100EBC20340F8E3
:101A2000327001345E60E3E7014B5868704700BFD5
:101A3000001000E0034A53685B1A002B00DB70477C
:101A400000BFF8E7001000E0806E7047D0F88C30DF
:101A5000072B9FBF5A1C00EB8303C0F88C20D9666C
:101A6000836E5B1A002BB8BF8166704770B5D0B12A
:101A7000C9B1C2B1D0E91843A34214D25C1C446678
:101A800000EB83050024146094605460AC6914601A
:101A9000C41830F8133094F8586096720B80AB6B12
:101AA0008366207C70BD0120FCE738B504460D46F6
:101AB000902200210CF0DCFC25662A4604F1580037
:101AC0000121BDE838400CF0D3BC08461146FFF7B1
:101AD0009DBC10B5044640B1382200210CF0C8FC72
:101AE0002046BDE81040FFF777BD10BD2DE9F04757
:101AF00089468AB090461C460546002866D0002BD1
:101B000064D0002A62D0002960DB20220021184620
:101B100001260CF0ADFC4FF0000A267707AF2B6AC8
:101B2000ADF80EA00133012E2B62C7E900AAC7F859
:101B300008A0667706D9AB6A0133AB62A37F43F096
:101B40000103A37739460DF10E00FFF75FFC8446D1
:101B500097E8070004F1100383E80700604690B19E
:101B6000EB6A0133EB62A37F43F002030136F6B266
:101B7000B045A3772077D2D243F00803A3776B6BED
:101B800001336B631FE000220023CDE9042304AB83
:101B90000093079ABDF80E104B462846FFF729FD23
:101BA00030B12B6B01332B63A37F43F00403DDE7DC
:101BB000BDF80E302380DDE904232077C4E9022339
:101BC0006B6A01336B620AB0BDE8F0870120FAE767
:101BD00008B5FFF701F99FED057A9FED050A07EEBD
:101BE000900A67EE877A27EE800A08BD0000B443AA
:101BF000000080372DE9F843089F84460020B7B3E2
:101C0000012A73F100051DDBB1F1004F08BF8445C7
:101C100018D0540844EAC374D4F1FF386FF000457B
:101C200081424FEA630EA5EB63050DDBE0458D4174
:101C300008DB1CEB04004EEB0101FFF70BF9C7E9D1
:101C400000010120BDE8F883DCF1000961EB4106E9
:101C5000C845B541F6DBB4EB0C006EEB0101FFF7B4
:101C6000F9F8404261EB4101C7E90001E9E7384674
:101C7000E8E7F7B50346084661B192B3490803EBBC
:101C8000C10510F0010053F83130696804D0C2E991
:101C90000031012003B0F0BD012B55E9024671F17E
:101CA000000512DBDD43A5426FF00045A5EB010501
:101CB000B541EFDBE01800924FF000034FF0020255
:101CC00046EB0101FFF796FFE4E753EA0105F1D087
:101CD0005F424FF0004565EB0105BC4276EB050520
:101CE000E7E71046D6E72DE9FF419446DDE90A27EC
:101CF0000C9E044688461AB9002004B0BDE8F08165
:101D0000002FF9D0002EF7D000200021CDE90201EC
:101D10004FF0FF3003F500454FF6FF71604571EB62
:101D20000505E9D308F50045A042A941E4D319040B
:101D300002AB00934FEA0C40002341EA1C41FFF73D
:101D400059FF0028D8D0DDE90232012B4FEA0841C3
:101D500072F1000541EA14414FEA04440FDBDD4310
:101D6000A5426FF00045A5EB02058D41C4DBC7E934
:101D700000321B1942EB0102C6E90032BDE753EA0B
:101D80000205F4D0D3F1000C4FF0004565EB0205DD
:101D9000644571EB0505E9E72DE9F04385B0DDE920
:101DA0000C540E9EDEB104F500474FF000084FF0D2
:101DB0000009B7F5803FCDE9028910D202AF009744
:101DC000FFF7F4FD58B1DDE9020123042A0443EAD8
:101DD00015430C9605B0BDE8F043FFF7E7BD0020C2
:101DE00005B0BDE8F08300002DE9F04F2DED028B2A
:101DF00099B0DDE9245808932A9C289B0D93299BD0
:101E00000C900592099334B19022002120460CF0E9
:101E10002FFB0123E3700C9B002B00F06082002D50
:101E200000F05D82B8F1000F00F05982002C00F044
:101E30005682D8F80030002B00F05182D8F80430D8
:101E4000002B00F04C82AB68002B00F04882EA685F
:101E5000934200F244826A69002A40F34082AA69F0
:101E6000002AC0F23C822878012800F2388206D18C
:101E70006A68002A44DDD8F80820002A40D0269A53
:101E800052B1279A934200F22A82402B00F2278215
:101E9000099A002AC0F223824FF0FF306FF0004110
:101EA000C4E9060100204FF00041059AA260C4E990
:101EB00008019FED9B8B0027089AE2602365A770BD
:101EC0003E46BA46D4F85490994511D304F13003F4
:101ED000029304F12803CDE9009305980899D4E909
:101EE0000423FFF700FF002840F01E81207009E165
:101EF000A26DEB689A4208D3002323700720E0709C
:101F000019B0BDEC028BBDE8F08F2B78012B2FD1DF
:101F100094F801B0BBF1000F2ED0A36F6A69F31AD9
:101F2000934203D9002323700820E8E7D8F808304B
:101F3000D8F80C0031469847B146D8F80030D8F8A8
:101F40000C00ADF838A014AA0EA9CDE914AACDF85A
:101F500058A09847A26D511C9DF85A20A1650346D0
:101F600062B9636E84F800A0013363660620C6E799
:101F70004FF00009CB46E0E7D946DEE7149AE26766
:101F8000012945D1A2672978012902D16E686170C3
:101F90001644D8F80420D8F80C0006939047A26F96
:101FA0006969821A8A428346C4F88020BAD8069B9F
:101FB0008DED108B002B40D09A1ED2B2012A02D890
:101FC000E26D0132E2652371A36E0137BB422B69DA
:101FD00038BFA766BB428FD3D4F85490AB689945FD
:101FE000BFF474AF2A78012A7FF46CAFBBEB060B09
:101FF0003FF568AFE26E6968BBFBF1FB0BF1010BCB
:1020000012EB0B02BFF478AFE2660BFB016659E7F7
:10201000BBF1000FBDD0A2EB0901002908DAA9EB42
:102020000201626F8A4238BF61676E684E44B0E752
:10203000FBD0226F01322267F3E710AB0093AB694C
:10204000149ABDF838100C98FFF7D3FA0428034609
:1020500003D1226E01322266B5E70028B3D1DDE953
:102060001023CDE9062312AB0093DDE90601059AA2
:10207000089B8DED128BFFF799FC002840D0DDE91D
:102080001232012B72F10007D4E904102BDBDF437D
:102090008F426FF00047A7EB0207874130DBC9187A
:1020A00040EB0200C4E904102699676D61BBD4E9D6
:1020B0000601834272EB0101D4E90801B8BFC4E90B
:1020C000063298429141B8BFC4E908321FB9DDE930
:1020D0000623C4E91023DDE9062301376765C4E957
:1020E0001223002778E753EA0207D8D0D3F1000C77
:1020F0004FF0004767EB0207614570EB0707CDE73C
:10210000002323700920FAE62799B942CFD92699EE
:10211000269801EBC70140F837304A60C7E700BF97
:102120000000000000000000269B002B00F0B9809A
:1021300009F1FF333F2BC4F8849000F2B280269857
:102140004946FFF751FC4FF0000A4FF0000B0EAA72
:10215000CDE90EABFFF78DFD002800F0A280269D93
:10216000634E05EBC9030C932F460DF15008DDE9D2
:102170000E23CDF80080F7E80201CDE90A23CDE96E
:1021800014ABFFF713FC002800F08F80DDE9143258
:10219000002A02DA5B4262EB4202C6E900320C9B83
:1021A000BB4206F10806E2D151484946FFF71CFC44
:1021B0000026002710AACDE91067FFF75AFD002876
:1021C0006FD0DDE910014B4B83424B4B8B41CDE986
:1021D000126766D340F2072612ABA0FB06070093F6
:1021E0006422002306FB0171FFF704FD002858D08C
:1021F000DDE912AB0D9B9A45099B9FED3B7B7BEB89
:1022000003034FF00007BCBFDDF834A0DDF824B0B5
:102210000697B846B946D5E9006114AB009330463D
:10222000DDE90A2309918DED147BFFF7BFFB08352B
:10223000099900283ED0DDE91432002A02DA5B4217
:1022400062EB42029A457BEB020244DB012E71F104
:10225000000334DBF343BB426FF00043A3EB010305
:1022600073EB08031DDBF619374641EB080809F14B
:1022700001090C9BAB42CED1069BC4E92239B9F1CE
:10228000000F0ED004F13803029314ABCDE9009394
:10229000059808993A464346FFF725FD08B1012302
:1022A000A37001232370002029E64FF0FF336FF065
:1022B000004272E74FF0FF336FF00042C2E756EA88
:1022C0000103D0D072424FF0004363EB0103974209
:1022D00078EB0303C6E7069B01330693C9E70120A9
:1022E0000EE600BFAFF30080000000000000000019
:1022F000880000205E77026D05233F00F0B51F4681
:102300000D4B054616460FCB8DB008AC84E80F0088
:10231000189B0693DDE91623CDE90423149B039350
:10232000139BCDE90143129B009332463B4628465E
:10233000FFF75AFD0DB0F0BDF40101082DE9F04F93
:102340000022ADF5297D0023CDE91423CDE9162324
:1023500016AC022314AD00930294019501220023D0
:1023600064200021FFF7BFFC78B12B68159AA3F514
:10237000004313432ED12368179AA3F5C9031343CF
:102380000CBF012300230A9300E00A90022300936C
:10239000CDE901544FF0FF324FF0FF336FF063008F
:1023A0004FF0FF31FFF79FFCB0B12A68159BB3F1E6
:1023B000FF3F08BF12F5004F40F0A383179B226830
:1023C000B3F1FF3F08BF12F5C90F0CBF0123002373
:1023D0000B9302E00023D6E70B9001220023CDE906
:1023E000182300220023CDE9002318AC4FF4C802C3
:1023F0000023029410461946FFF7CEFC002840F057
:10240000828300230D93CB4BCB4E0FCB1DAD0DF52F
:10241000047885E80F0002214046FFF746FBC74BD2
:1024200084934FF47A714FF48263CDE98A1340F2BA
:10243000ED3040F2154321AFCDE9920340F2E33392
:1024400028A89E93C5F80C80FFF7C6F801233B70BF
:1024500028240223C7E90143C7E903331423C7E94A
:1024600005630022002360AE0024CDE90423CDE9FA
:102470000244CDE9007506966422002328A8FFF7E0
:10248000B3FC90BB347884B3B36D022B40F0588317
:10249000736D022B40F05483F46E002C40F0508397
:1024A000D6E91032643B13431FD1D6E91232653BA3
:1024B00013431AD1D6E90632134316D1D6E90832AE
:1024C000013B134311D1D6E90C32A3F5C9031343E1
:1024D00040F03683A79B012B40F032839F9CA4F5EC
:1024E000826BDBF1000444EB0B0404214046FFF750
:1024F000DCFA934B8493A3F1041385934FF47A7C15
:102500004FF48263CDE98AC34FF4876E4FF48C6336
:10251000CDE98CE340F2ED3940F21543CDE99293D9
:1025200040F23D4A40F26543CDE994A328A840F229
:10253000E3339E93FFF750F80423C7E902333B616E
:10254000002200234FF00009CDE90423CDE90299D0
:10255000CDE9007506966422002328A8FFF744FC05
:10256000002840F0EF82D6E90623B3F1FF3F08BF11
:1025700012F1040F40F0E982D6E90832043B13431C
:1025800040F0E382D6E91013D6E912029A4208BF5E
:1025900088420CBF01234B46089304214046FFF7B5
:1025A00084FA664B849303F1021385934FF47A7B8C
:1025B0004FF482634FF48762CDE98AB34FF48C63A2
:1025C000CDE98C2340F2ED3140F21543CDE9921371
:1025D00040F23D4040F26543CDE9940340F2E333DD
:1025E00028A89E934FF00009FEF7F6FF0022002373
:1025F000CDE90423CDE90299CDE900750696642260
:10260000002328A8FFF7F0FB002840F0A082D6E9BD
:102610000632134340F09E82D6E90832033B13434F
:1026200040F09882D6E91232D6E910105B1AA3F175
:10263000030362EB000213430CBF01234B460993D3
:1026400003214046FFF731FA6423ADF812326623C6
:102650004FF47A7CADF814324FF48263CDE98AC32B
:102660004FF487638C9340F2ED3940F21543CDE986
:10267000929340F23D430226949328A840F2E3331C
:102680008DF820629E9360AFFEF7A6FF4FF0000921
:1026900021AB032200200021CDE92422CDE9040151
:1026A000CDE90035CDE9029906976422002328A8D8
:1026B0002396FFF799FB0646002840F04D829DF8CF
:1026C0008131002B00F04A82769B032B15D1759B3C
:1026D000022B12D1779B012B0FD19DF88431022B55
:1026E0000BD1A79B022B08D19F9BB3F5826F04D11E
:1026F000A09EA6F587677E427E4103214046FFF7F4
:10270000D4F90E4B84936623ADF814324FF47A7BE0
:1027100040F26543CDE98AB34FF4916340F2ED3165
:102720008C9340F26A43CDE9921340F28D43949327
:1027300028A807E004020108A086010064006500E3
:102740006400680040F2E3339E930DF5C079FEF714
:1027500043FF4FF0000A21AB032200200021CDE906
:102760000401CDE900352392CDE902AACDF81890F5
:102770006422002328A8FFF737FB0746002840F013
:10278000EF817B9B022B13D17C9B012B10D17D9B76
:10279000552B0DD1A79B022B0AD19F9BB3F5826FBE
:1027A00006D1A09FA7F5916ADAF1000747EB0A0767
:1027B00002214046FFF779F9BA4B84936FF00F0E70
:1027C0001023CDE98AE36FF00A081523CDE992833F
:1027D00028A86FF01F039E934FF02009FEF7FCFE20
:1027E0000222CDE9229221AB00200DF5C078002114
:1027F0004FF00009CDE92422CDE90401CDE90035EF
:10280000CDE90299CDF818804FF6FE72002328A872
:10281000FFF7EAFAB8B9809B252B40F0A3817B999A
:10282000002940F09F81DDE97032A3F57F43FE3B34
:10283000134340F09981DDE97232A3F10113134390
:1028400008BF4FF00109082184A8FFF72EF9964B25
:102850008493013B8593954B86930DF5097803F599
:102860008013879342464FF47A7342F8043F591D10
:102870002833B3F5A56F1162F7D140F2E33328A8EE
:102880009E932825FEF7A8FE0822CDE92252CDE925
:102890002422039230AA21AB0020002102920DF5E0
:1028A000C07A1DAACDE90032CDE90401CDF818A007
:1028B0006422002328A8FFF797FA0546002840F075
:1028C00055819DF88231002B00F05281819B082BAD
:1028D00015D1829B012B12D1839B072B0FD1DDE9F0
:1028E0006E32A3F5C803134309D1DDE96C32A3F5B9
:1028F000CB03A3F5C04313430CBF012500250821DA
:1029000084A8FFF7D2F84FF06413CDE9843386939F
:1029100003F58033879342464FF47A7342F8043FBD
:10292000591D2833B3F5A56F1162F7D140F2E33397
:1029300028A89E93FEF750FE00220023CDE9042331
:102940000823039340AB02931DAB0DF5C07A0193AE
:1029500021AB0093CDF818A06422002328A8FFF72C
:1029600043FA002840F006819DF882313BB1829BFA
:10297000012B40F00181839BD81F434243410C93BC
:10298000082184A8FFF791F84FF06413CDE9843350
:10299000869303F5803387934FF47A7348F8043FA6
:1029A0005A1D2833B3F5A56FC8F82020F6D10DF1D4
:1029B000A00840F2E33340469E93FEF70DFE092245
:1029C0000023CDE904230823039350AB02931DABEE
:1029D0000DF5C07B019321AB0093CDF818B06422B4
:1029E00000234046FFF700FA002840F0C7809DF81A
:1029F0008231002B00F0C280829B002B40F0C1800E
:102A0000839BA3F10801D1F1000A4AEB010A404679
:102A1000FEF7E2FD00220023CDE91A230DF1680B39
:102A20000A231A466421CDF800B04046FEF7E1FDC6
:102A3000B8F802300F93D8F808301293D8F80C3059
:102A40001393D8F810301093D8F814300E901193D7
:102A5000CDF800B00A231422C8214046FEF7C9FD74
:102A6000042840F09080B8F802300F9A934240F06A
:102A70008A80D8E90223DDE91210834208BF8A4226
:102A800040F08180D8F81030109A93427BD1D8F86A
:102A90001430119A934276D1D8F818305A1E534206
:102AA000534105E0FEFF010064006500640063001F
:102AB0000A9A002A69D00B9A002A68D00D9A002A37
:102AC00067D0002C67D0089A002A66D0099A002A9D
:102AD00065D0002E65D0002F65D0B9F1000F64D00D
:102AE0004DB10C9A12EA0A0505D00E9A002A14BFBD
:102AF000002503F0010505F001000DF5297DBDE875
:102B0000F08F002364E42368199A13437FF479ACAF
:102B10004FF480320023CDE9002302944FF4C80221
:102B200000234FF4C8000121FFF736F900283FF4D5
:102B300068AC2368199A13430CBF0123002361E496
:102B40000024D2E4CDF8209027E5089025E5CDF8C3
:102B5000249075E5099073E54E46CEE51E46CCE51A
:102B6000574625E681466EE689466CE60025C6E6B0
:102B70001D46C4E6002302E70C9001E74FF0000A6F
:102B800045E7824643E7002392E70A9DB3E70B9DA2
:102B9000B1E70D9DAFE72546ADE7089DABE7099D81
:102BA000A9E73546A7E73D46A5E74D46A3E700BFA1
:102BB0002DE9F04F2DED048BADF5217D1AA8FEF720
:102BC00088FFFEF7F1FB354A0346602128A80BF089
:102BD000DDFB5F28A8BF5F2082B228A932233048DE
:102BE00009F0BEFAFEF722FB0446FEF723FB05467A
:102BF000FEF724FB0646FEF725FB2A4B0746D3F8D3
:102C00000080FEF7D1FB284A0095CDE903802346DA
:102C10004FF48071CDE9016760A80BF0B7FBFF2886
:102C2000A8BFFF2082B232231D4860A909F098FA9C
:102C30001E481F4C012106F059FD00280CBF01253C
:102C4000002503D123780BB9FEF7ECFA194825705B
:102C50004FF4804106F055FDFEF7E6FA18B1C820A2
:102C600009F005FDE4E712AC234603224FF40041CE
:102C70001AA8FEF73BFF074610B3A37F0193637FBB
:102C800000930D4A0346602140A80BF07FFB3223DE
:102C900082B240A9024809F063FAE0E7F4030108B0
:102CA00038040020000000200F040108000002404A
:102CB000B302002000080240910401080000C8424D
:102CC00026885FED028A3046FEF772FBB6EE008A78
:102CD000F0EE487AE0EE287A11AD28461197FCEE26
:102CE000E77A17EE904AFEF775FB9DF844309DF8A1
:102CF00045209DF846109DF8475018B113B90AB900
:102D000001B9BDB1CDE903326422B4FBF2F302FB99
:102D10001344CDE90515CDE900349B4A02903346B2
:102D2000802140A80BF032FB322382B240A99748A1
:102D300009F016FADFF87CB295499BF80040954AF5
:102D4000DFF87482DFF87492934DDFF874A2002CE0
:102D500040F0F4809FED8A7B01238BF800308F4B8D
:102D60000E8083ED007B8AED007B8D4B1460C8F8EC
:102D70000040C9F800402C601C60D8F80030A34225
:102D8000B8BFC8F800402046FDF7CCFBDAE90023C5
:102D900006460F46FDF77AFACAE90001DFF8FCA102
:102DA000CDE90E0132463B4630463946FDF724FC5C
:102DB000DAE90023FDF76AFA06460F46CAE900671A
:102DC000DFF8DCA1DAF8000001301828CAF80000AA
:102DD0007FF645AFFDF796FB02460B46CDE90C01A9
:102DE000DDE90E01FDF732FDDDE90C23CDE90E0131
:102DF00030463946FDF72AFDDDE90E2306460F462B
:102E000010461946FDF7F8FB02460B463046394698
:102E1000FDF73AFA02460B4643EC192B0022002339
:102E2000FDF77AFE002800F0A280B0EE490AF0EE2D
:102E3000690A0CF009F857EC106BD9F80030D8F893
:102E40000000C01A2B6840F2DA22934200F392800D
:102E500004F6396841F6724398458CBF4FF000087C
:102E60004FF0010880B2FEF7A3FAB0EE489A4D4B3E
:102E7000002230463946A0EE289AFDF707FAFDF702
:102E80006BFE80B2FEF794FAF0EE487AE0EE287A14
:102E90002888BCEEC99AFCEEE77A17EE907AFEF726
:102EA00087FAF0EE487AE0EE287A002CA0B2B8BF9C
:102EB0004042FCEEE77AB8BF80B217EE909AFEF778
:102EC00077FAA0EE288A64233748B7FBF3F6FCEEC6
:102ED000C87A03FB1671354FCDF8288017EE90CADB
:102EE00030EA240028BF384619EE102ADAF80040EC
:102EF0000994B9FBF3F403FB1497B2FBF3F5CDE9A6
:102F00000747BCFBF3F403FB152203FB14C3CDE915
:102F10000310CDE90543CDE901260523244A009598
:102F2000802140A80BF032FA322382B240A9174820
:102F300009F016F900238BF8003090E60C880E801B
:102F4000341B116823B2002B01FA84F4B8BF5B4232
:102F500014602A689BB29A4207DBD9F800309C4281
:102F6000BFF60BAFC9F8004007E72B60F5E7002676
:102F7000002762E74FF0000874E700BFAFF300805E
:102F80000000000000000000D40401083804002004
:102F9000B0020020AC020020A0020020900200201D
:102FA000880200200000E03F53330108F2030108CB
:102FB0002C050108B2020020A8020020A402002073
:102FC000980200200268034B9A4201D105F0A8BE86
:102FD000704700BF0020004007B572B6064C074896
:102FE0004FF4005106F08DFB00230193019BA34297
:102FF000F5D8019B0133F8E71FA107000008024044
:1030000010B594B0102200210AA80BF031FA142256
:10301000002103A80BF02CFA1F4B002101911A6C20
:1030200042F080521A641B6C03F080530193019BA1
:103030001A4B02911A6842F480421A601B6803F42A
:1030400080430293029B01214FF480330224CDE997
:1030500008134FF48003CDE90E43A822042308A8E7
:10306000CDE91032CDE9124307F03CFA08B1FFF781
:10307000B3FF0F23CDE9033405904FF4A0524FF472
:103080008053052103A8CDE9062307F007FC00289B
:10309000EDD114B010BD00BF0038024000700040F8
:1030A00080B5BAB000246D4D05F020FEFFF7A8FFF3
:1030B0001422002132A80BF0DBF902942B6B684834
:1030C00043F004032B632B6B03F004030293029B76
:1030D00003942B6B43F080032B632B6B03F0800373
:1030E0000393039B04942B6B43F001032B632B6B23
:1030F00003F001030493049B05942B6B43F002033C
:103100002B632B6B03F00203224605934EF207015B
:10311000059B06F0F1FA224652484FF4006106F092
:10312000EBFA22465048402106F0E6FA01264EF21C
:1031300007034B4832A9CDE93236CDE9344406F0D5
:10314000FDF94848349632A9CDE9326406F0F6F923
:103150004FF40063434832A9CDE93236CDE9344417
:1031600006F0ECF94023404832A9CDE93236CDE9EA
:10317000344406F0E3F900942B6B43F400132B6303
:103180002B6B03F400130093009B01942B6B43F40F
:1031900080032B632B6B03F48003224605210193EC
:1031A0000C20019B05F0AAFF0C2005F0D9FF224658
:1031B00005210E2005F0A2FF0E2005F0D1FF2246CA
:1031C0000521102005F09AFF102005F0C9FF2246C6
:1031D0000521112005F092FF112005F0C1FF2246C4
:1031E00005212F2005F08AFF2F2005F0B9FF224688
:1031F0000521382005F082FF382005F0B1FF224676
:1032000005213A2005F07AFF3A2005F0A9FF224671
:1032100005213B2005F072FF3B2005F0A1FF1022A5
:10322000214618A80BF024F9104A114B13604FF4F3
:103230008033C2E9013482F820400E4BD462D4605E
:1032400010460224166116769362D46182F83060CB
:10325000566105F077FD78B1FFF7BEFE00380240F9
:10326000000802400000024000040240180800204C
:10327000002001400100000F0523C8481A9318A937
:10328000CDE9186605F096FE0028E5D1C34804266E
:1032900018A9CDE9186405F08DFE05460028DBD19C
:1032A0000146102214A80BF0E3F81C22294623A89B
:1032B000CDE90A550BF0DCF82022294632A80BF0A4
:1032C000D7F8B74CB74BA560C4E90035204640F6A7
:1032D0006A03C4E90335C4E905550AAF08F008FBE1
:1032E0000028B9D14FF4805314A92046149308F054
:1032F000D9FC0028B0D1204608F026FB0028ABD12D
:10330000CDE90A003946204608F0D4FD02460028DF
:10331000A2D17023CDE92330CDE92500CDE92700E6
:10332000299023A9204608F097FB002894D1324623
:1033300023A9204608F090FB00288DD1082223A95C
:10334000204608F089FB002886D100234FF4005264
:1033500032A92046CDE93233CDE934333693379262
:10336000399308F0E5FD054600287FF475AF204647
:1033700005F07AFA102229460CA80BF079F88A4C4D
:103380001022294610A8CDE908550BF071F84FF02E
:103390008043C4E9003520464FF0FF33C4E90335CC
:1033A00008AEA560A56108F0A3FA00287FF454AF29
:1033B0004FF480530CA920460C9308F073FC0028AE
:1033C0007FF44AAF204608F0EBFA00287FF444AFC0
:1033D000CDE908003146204608F06CFD0246002881
:1033E0007FF43AAF0123CDE911301090139010A96A
:1033F000204608F0C1FB00287FF42EAF02230422F0
:1034000010A92046CDE9103308F0B6FB034600288A
:103410007FF422AF6548DFF8C8C1654A03624FF404
:103420008044C0E90233C0E90443C0E90633C0E97F
:1034300000C206F06FF9034600287FF40DAF5D4827
:103440005D4F03614FF46122C0E900720C22C0E9B4
:103450000233C0E90523C36108F054FE0346002887
:103460007FF4FAAE5548564E564A0362C0E90062F0
:10347000C0E90233C0E90443C0E9063306F04AF963
:1034800000287FF4E9AE5049504B0B604FF4827036
:10349000002301220224C1E90103C1E90442CB60F7
:1034A0004FF4007518220B624B628B6208460A23A8
:1034B000C1E90652CB6207F0B1FB054600287FF454
:1034C000CBAE0146CDE906001C221CA80AF0D0FFB5
:1034D000294620222AA80AF0CBFF3D4C3D49A56091
:1034E0005323C4E90013204640F2E733C4E903350F
:1034F000C4E9055506AE08F027FA00287FF4ACAE03
:10350000CDE906003146204608F0D4FC02460028EA
:103510007FF4A2AE6023CDE91C30CDE91E00CDE9D9
:10352000200022901CA9204608F096FA00287FF47B
:1035300093AECDE92A00CDE92C002E904FF4005334
:1035400031902AA920462F9308F0F2FC0546002866
:103550007FF482AE204605F087F91F481F4A0561B7
:103560004FF46123C0E900230C23C0E90255C0E9F0
:103570000535C56108F0C6FD044600287FF46CAE31
:10358000FEF700FAFEF75CF900283FF465AEFEF79F
:10359000D5FE00283FF460AE24E000BF18080020EC
:1035A0005005002000000140080500201007002001
:1035B000A086010038040020004800406407002075
:1035C00000540040801A06005806002000300140D8
:1035D000C0040020000401407C040020004400409E
:1035E0000058004000F01CF800F048F800283FF4B4
:1035F00033AE08F0C3FF074A0748214608F0F1FF41
:10360000064B1860FDF70CFE00283FF425AE08F0CD
:10361000C7FFFEE728390108B12B0008B4020020DB
:1036200008B500F0B3F90448044904F047FDBDE8CB
:1036300008400348FEF74DBA980800204C390108AD
:103640006008002000F046B900F054B900F062B9FB
:1036500008B5044804F02AFDBDE808400248FEF71A
:1036600038BA00BF980800206008002008B5FFF7AE
:10367000EFFFBDE8084000F081B9000070B52DED06
:10368000068B84B004F0BCFD00284AD0284C294D9C
:103690002046B0EE000A04F023FD0123B6EE000A36
:1036A0007B202B706B6200F035F9FFF7DFFF94EDA4
:1036B00007AAD4ED089A94ED099AD4ED0A8A94EDFC
:1036C0000B8A2E786C6A01A800F086F9B5EE40AA44
:1036D000F1EE10FABDF80420DDED027A9DF80C3011
:1036E00023D1F5EE409AF1EE10FA1ED1B5EE409AD4
:1036F000F1EE10FA19D1F5EE408AF1EE10FA14D17C
:10370000B5EE408AF1EE10FA0FD176B96CB962B914
:10371000F5EE407AF1EE10FA07D183F0010000F0E7
:10372000010004B0BDEC068B70BD0020F7E700BFC0
:1037300098080020600800201FB50446D8B10F4B40
:10374000DA6902601A6A42605A6A82609A6ADB6ABF
:1037500003610B4BC2601A785B6A8361027501A832
:1037600000F03AF9BDF80430A383029B23629DF870
:103770000C3084F8243004B010BD00BF980800203D
:103780006008002030B52DED028B054689B0B0EE03
:10379000408AC8B31D486B4603224FF40051FEF720
:1037A000A5F9044628BBDDE90201FEF711FADFEDB9
:1037B000187A9FED187A30EE480AB4EEE70AF1EE77
:1037C00010FA1BDCDFED147A9FED127AB4EEE70AF3
:1037D000F1EE10FA15D4114885ED000A04F080FCD2
:1037E000FDEEC07AB7EE000A17EE903A98B200F0FC
:1037F00091F8204609B0BDEC028B30BD30EE470A8F
:10380000DBE730EE070AE1E70124F2E76008002079
:10381000000034430000B443000034C39808002083
:1038200042F6AB23B0FBF3F202FB130080B2704709
:10383000062070470C20704708B5044804F0D6FCF9
:10384000FDEEC07A17EE900A08BD00BF9808002070
:1038500000487047B005010808B507EE900A9FEDD3
:10386000197AF8EEE77A2DED028B67EE877AB0EEE3
:10387000408A9FED150A87EE800A0BF075FBF6EE85
:10388000007AE0EE277A67EE887AF5EEC07AF1EEFC
:1038900010FA14D4B7EE000AF4EEC07AF1EE10FA82
:1038A000D8BFB0EE670ADFED097A20EE270ABDEC3B
:1038B000028BBCEEC00A10EE103A98B208BD9FED24
:1038C000040AF0E7DB0FC94000AC2A4600A0064519
:1038D0000000000008B5012204484FF4006105F023
:1038E0000BFF034B01221A7208BD00BF000002400B
:1038F000C808002008B5002204484FF4006105F014
:10390000FBFE034B00221A7208BD00BF00000240FC
:10391000C808002070B542F6AB250446B0FBF5F0B0
:1039200005FB10402DED028B80B2B0EE408AFFF710
:1039300093FF104B1E6804F63963B0EE480A7063BB
:10394000B3FBF5F005FB1030FFF786FF04F5E353FA
:103950001233B063B0EE480AB3FBF5F005FB10304C
:10396000FFF77AFF044BF06383ED018ABDEC028B15
:103970001C8070BD50050020C80800209FED020A81
:103980000020FFF7C7BF00BF0000000008B5FFF729
:10399000B1FF012211460E4805F0AEFE0C48002290
:1039A000022105F0A9FE00220948042105F0A4FE29
:1039B0000021084808F07CFA0421064808F078FA4B
:1039C0000448082108F074FABDE80840FFF7D6BFA4
:1039D0000008024050050020034618B1024A07CAF9
:1039E00083E80700704700BFC80800200F4B70B580
:1039F000D3F8101AD3F8144AD3F8185A0C4B0022F3
:103A000018461E688E4209D15E68A64206D19E689D
:103A1000AE4203D11C2303FB020070BD0132042A15
:103A200003F11C03EDD10020F7E700BF0070FF1F7A
:103A3000303A010809289ABF024B53F82000024887
:103A4000704700BFB0390108C40501080346B0B390
:103A5000D0ED007AF5EE407AF1EE10FA2FD1D0EDEC
:103A6000017AF5EE407AF1EE10FA28D1D0ED027A23
:103A7000F5EE407AF1EE10FA21D1D0ED037AF5EEB1
:103A8000407AF1EE10FA1AD1D0ED047AF5EE407AD0
:103A9000F1EE10FA13D1027D8AB9806978B99A8B58
:103AA00052B9D3ED087AF5EE407AF1EE10FA06D16C
:103AB00093F8240080F0010000F00100704700201E
:103AC000FAE700000FB400B5ADF2747D0DF5EF63B9
:103AD00040F26C7153F8042B009301A80AF0BAFC71
:103AE000021E0ADD40F26B739A4228BF1A4606484E
:103AF000C82392B201A908F033FB0DF2747D5DF882
:103B000004EB04B0704700BF380400200FB400B5C8
:103B1000A3B024AB802153F8042B019302A80AF030
:103B200099FC021E08DD802A28BF7F2205486423F5
:103B300092B202A908F014FB23B05DF804EB04B0C4
:103B4000704700BF3804002073B5034600250846BF
:103B5000012611460A220135AB4202FB06F6FAD1D4
:103B600007EE906AB5EEC00AF1EE10FAF8EEE76AD9
:103B70004CBFB1EE407AB0EE407AF6EE007AE6EE57
:103B8000877AB5EEC00AFDEEE77AF1EE10FA17EE8D
:103B9000904A94FBF6F306FB1344CDE9005407D595
:103BA00053EA040204D0034A0AF0F0FB02B070BDED
:103BB000014AF9E7CC050108CD0501082DE9F04FD0
:103BC0008FB09B469DF86030199C03920293824609
:103BD00080B17CB147220021601C0AF049FC03221D
:103BE000227006AB40F21D715046FDF77FFF06467E
:103BF00028B16070032528460FB0BDE8F08F06AFEE
:103C00000FCF04F108050FC597E80F0085E80F00F6
:103C10000123A362DDE9087805F08EF8B146019032
:103C2000012008F024FD06AB032240F21D7150462E
:103C3000FDF75CFF054630B1032360702370D9E7C0
:103C40001F469046ECE70DF1180EBEE80F0004F198
:103C5000080CACE80F009EE80F008CE80F00A36A88
:103C60000133A362DDE90832DF1B62EB0808B8F11B
:103C7000000F02DA7F4268EB48080399B3EB010CAE
:103C8000029962EB0B00C4E90EC079B300286146CB
:103C900002DA494260EB400040F28F3C614570F12E
:103CA000000034BF012100210A2F78F1000821D241
:103CB00009F10109E1B10136E06A4845206B38BFDE
:103CC000C4F82C90B04200D22663E06A84F8411018
:103CD000072894BF00200120082E84F840000DD151
:103CE000012384F842300023237084E70121DBE7BD
:103CF0000E46E1E74FF000094E46E6E7CDE9043213
:103D000005F01AF8019BC01A6328DDE9043297D93F
:103D1000002384F8423094F840302BB194F84130BD
:103D200013B90225257066E70125FBE72DE9F0416F
:103D30002DED0A8B9FED3E9A9FED3EBADFED3EBA28
:103D40009FED3ECA0D46F0EE40AA16461C46804640
:103D50000027B0EE498AB0EE49AAAF4212DB002D2F
:103D6000267033DCDFED327A84ED01AA84ED02AAFD
:103D700084ED03AA0023BDEC0A8BC4ED047A2375FD
:103D8000BDE8F08107EE907AB8EEE77AF8EC018AA8
:103D900027EE0B7A78EEEA8AC7EE0B7A013767EEE8
:103DA000AB7AC7EE8C9A07EE906AF8EEE77A69EE86
:103DB000A79AB0EE690A0BF09FF8A0EE288AB0EE41
:103DC000690A0BF0D1F8A0EE289AC6E707EE905AE0
:103DD000F8EEE77AB0EE007AC7EE278A28EE888AF6
:103DE00068EE898A84ED018A28EEA80AC4ED028A69
:103DF000A8EE080A0BF05EF8F0EE480AB0EE409A22
:103E000084ED030AB0EE680A0BF052F8DFED0B7A8E
:103E10009FED097A20EE270AC0EE077A9FED087A17
:103E2000B4EEC79AF1EE10FAACBF01230023A2E76B
:103E3000000000000000B443DB0F494000003443A1
:103E4000CDCC4C3D036A10B50C681C1B1368234491
:103E500013604C68436A1C1B5368234453608C688E
:103E6000836A1C1B936823449360CC68C36A1C1B41
:103E7000D3682344D3600C69036B49691C1B136925
:103E800023441361436B591A53690B44536110BDAA
:103E900006EE902A07EE103AF8EEE66AB8EEC77A18
:103EA000BAEE0E6AC6EE877A091AF1EE086AA7EE34
:103EB000A66AF2EE046AE7EE866A27EEA77A27EE94
:103EC000277A07EE901A27EE267A06EE900AF8EE89
:103ED000E77AB8EEE60AA7EE270A0BF07FB82DE9DD
:103EE000F047002986B00E4690460F4602DA40425F
:103EF00061EB41070546EA460024E9462846394673
:103F00000A220023FCF7F6FFAC4630320AF8012BF8
:103F1000BCF10A0F3A4672F100022346054604F14D
:103F200001040F4602D3172CE8D11623002E09DA1C
:103F3000172C07D004F118020DEB02042D2204F80F
:103F4000182C9C1C09EB040208F1FF31012312F824
:103F5000010D01F8010F9C4203D00133182BF6D15B
:103F60001724002308F8043006B0BDE8F0872DE9D7
:103F7000F04F002487B0894616461470A0F1080758
:103F800025464FF07C0AA3464C4502D107B0BDE858
:103F9000F08FF7E902016A46FFF7A1FF6846FCF7D8
:103FA00017F9002C0CBF2B466B1C0344B3F5806F34
:103FB000ECD214B106F805A001356846FCF708F903
:103FC000804602467019454469460AF0EBFA01340E
:103FD00006F805B0D8E700004F4B0022F0B583F893
:103FE000B020C3F8A820002800F08F80D0E9086234
:103FF000D0E90A54D0E90C10C3E9AF62D3F8EC72EF
:10400000D3F8D4223A44D3F818773A44D3F8307727
:104010003A44D3F848773A44D3F87C773A44D3F813
:1040200078783A44D3F890783A44B61AC3F8A8623C
:10403000D3F8DC22D3F8F4623244D3F82067324458
:10404000D3F838673244D3F850673244D3F88467E2
:104050003244D3F880683244D3F898683244C3E9D4
:10406000B154AD1AC3F8AC52D3F8E022D3F8F852E9
:104070002A44D3F824572A44D3F83C572A44D3F887
:1040800054572A44D3F888572A44D3F884582A44EA
:10409000D3F89C582A44A41AC3E9B310C3F8B04219
:1040A000D3F8FC42D3F8E4222244D3F82847224430
:1040B000D3F840472244D3F858472244D3F88C47DA
:1040C0002244D3F888482244D3F8A0482244891ACD
:1040D000C3F8B412D3F8E822D3F800130A44D3F893
:1040E0002C170A44D3F844170A44D3F85C170A443F
:1040F000D3F890170A44D3F88C180A44D3F8A418BC
:104100000A44801AC3F8B802F0BD014604460546C9
:104110000246064670E700BFD81000202DE9F043A4
:10412000002900F0AB805B4BD3F89443002C00F0E7
:10413000A580012583F82953D3F83053D1F858C00E
:10414000D3F84063D1F85CE0D1F86080D1F8649096
:10415000CF6E0135C3F83053D3F83C536544C3F8F0
:104160003C534D6D2E44C3F84063D3F8446376440A
:10417000C3F84463D3F848634644C3F84863D3F8AC
:104180004C634E44C3F84C63D3F854633E44C3F8C5
:1041900054630F6FD3F858633E44C3F858634F6FAE
:1041A000D3F85C63B74288BFC3F85C73D3F860632D
:1041B0008F6EB74288BFC3F8607304EB800707F5C2
:1041C00080578E6FC7F84067D1F88060C7F8106DD0
:1041D000BCF1FF0F04EB000642F2C85728BF4FF0B6
:1041E000FF0C06F807C0FF2D42F23C7728BFFF25E1
:1041F000F555BEF1FF0F42F6B00528BF4FF0FF0E98
:1042000006F805E0B8F1FF0F42F6242528BF4FF06D
:10421000FF0806F80580B9F1FF0F42F6983528BF70
:104220004FF0FF0906F8059042F60C5572554ABB4F
:104230000D783DB3D1E90C6704EBC004C4E9006715
:1042400008B9C3E9DA67D3F834230132C3F8342359
:104250008B789BB1A0B1B0F5B47F0FD10E4B01228A
:104260001A70D1F884205A60D1F888209A60D1F869
:104270008C20DA60D1E90E01C3E90401BDE8F083C6
:10428000064BECE7D3F8501383F82C230131C3F825
:104290005013F3E7D8100020881400207014002079
:1042A0000E4A30B50121151F814200DB30BDD2ED31
:1042B000007A4B1E144634ED017AF4EEC77AF1EE23
:1042C00010FA03D5013B84ED017AF4D205EB8303A8
:1042D000C3ED017A01310432E6E700BF0C0B002088
:1042E000084B0022C0B293F8C810814206D00132B8
:1042F0000C2A03F11803F6D10020704703F1C8001F
:10430000704700BFD81000202DE9F04788462DEDFA
:104310000A8B0446F0EE409A002852D0DFF8C09095
:10432000DFED2B8ADFED2BAA9FED2BBADFED2BBA49
:104330000027561807EE907AB8EEE77AC24627EEC5
:104340002A7AB0EE699AC7EE2A7A67EE8B7A87EE00
:10435000ABCA1AF8010BFFF7C3FF0546D0B10378CB
:1043600008EE103AB8EE488A28EE0C8AB0EE480AF9
:104370000AF0C2FDB0EE40AAB0EE480A0AF0F4FD21
:10438000D5ED027A95ED017A60EE277AE7EE0A7AAA
:1043900039EE279A5645DCD1F9EC017A013777EEF0
:1043A000C97ABC42E7EEA78AC4D107EE904AB8EEBC
:1043B000E70A88EE800ABDEC0A8BBDE8F0470AF0F8
:1043C00079BDBDEC0A8B9FED020ABDE8F08700BF06
:1043D000000000000000B443DB0F494000003443FC
:1043E000602000202DE9F04715462DED0C8B0E4680
:1043F000142200211F460446F0EE40BAF0EE60AAF7
:104400000AF036F807EB0508A94619F801AB504643
:10441000FFF766FF30B94E4B2361BDEC0C8B204695
:10442000BDE8F087B6EB4A0F01D84A4BF4E7C14527
:10443000EBD13A462946B0EE6B0A3046FFF764FFEF
:104440009FED45BA9FED458ADFED45CA9FED45DA00
:10445000F0EE409A002707EE907AB8EEE7AAA94658
:104460002AEE2CAAF0EE6B8A2AEE0DAA19F8010B9F
:10447000FFF736FF0646D0B1037809EE103AB8EEE2
:10448000499A29EE0A9AB0EE490A0AF035FDB0EED3
:1044900040CAB0EE490A0AF067FDD6ED027A96ED01
:1044A000017A60EE277AE7EE0C7A78EEA78AC845A3
:1044B000DCD1F4EEC88AF1EE10FAB4EEE8BAC8BF67
:1044C000B0EE688A0137F1EE10FAC8BFB0EE68BAF4
:1044D000B7F5805FBFD1DFED247AF4EEE7AAF1EE05
:1044E00010FA38EE4B8A2FDD89EEAA7AF7EE007AC1
:1044F000E7EE477A9FED1D7AF0EEE76AF4EE476A41
:10450000F1EE10FA06D89FED1A7AF4EEC77AF1EEC2
:1045100010FA05D5174BC4ED009A84ED018A7BE7AC
:104520009FED157AB4EEE77AF1EE10FAC8BFF0EE1F
:10453000477A012323730123C4ED009A84ED018A95
:10454000C4ED027A637368E7DFED0B7A0023F1E7CD
:10455000D7050108EA050108286B6E4E286B6ECE60
:10456000DB0FC94000008039BD378635FFFF7F7FF4
:104570006F1283BAFE05010800000000B5EEC00A04
:10458000F1EE10FADFED126A4CBFB1EE407AB0EEF8
:10459000407AF6EE007AE7EE267A07B5FDEEE77A86
:1045A000642117EE902AB5EEC00A92FBF1F3F1EE0A
:1045B00010FA01FB1322009208D553EA020105D03C
:1045C000044A102109F0E2FE03B000BD024AF8E7F8
:1045D0000000C84211060108120601082DE9F04F3B
:1045E00091B01F469DF86C3007930B684B4C0293BB
:1045F0009342CCBF4FF0FF33012305930690049103
:10460000934607F0E7FFD4F87C32DDF868904FF06E
:10461000000801330546C4F87C32CDF80480012639
:10462000CDF80C800298282332465946FFF730FC1B
:10463000DDF80CA0049BB7EE000A186080B2FFF70B
:1046400005F808AB0698032240F21D71FDF74EFAFB
:10465000D4F880320133C4F8803298B107B13E609B
:1046600011B0BDE8F08F401B002847DDD4F884323C
:104670000133C4F88432D4F88832984288BFC4F831
:1046800088023BE0BAF1000F1FD00A9B01990B9AF8
:10469000B3EB080362EB01020599012911D113F173
:1046A000090F72F1FF3210DA5B42D4F88C2201322A
:1046B000C4F88C22D4F890229A4238BFC4F89032C1
:1046C00003E00A2B72F10002EFDADDE90A830193BD
:1046D0001A9B3BB1079BB34222BF019BC9F80080E4
:1046E000C9F804300136292E12D007F073FF0135C6
:1046F0002B1A002BB7DD284607F0C5FF4FF0010A43
:10470000282E09F10809CDF80CA08BD1584691E765
:10471000002FA5D028233B60A2E700BFD8100020BF
:104720002DE9F04FAFB01F90FFF760F90546002864
:1047300000F08680D0F80CA00125FFF757F9044659
:1047400000B1103421A8FCF793FF00287BD19DF81D
:104750008460002E78D0214621A8FDF731F801268B
:1047600007463846FDF760F8032F9CBF3B4B33F9F3
:1047700017803B4BD3F8102A1B9288BF4FF4FF7869
:10478000D3F8142AD3F8183A1D93002CB8FA88F7F6
:1047900014BF0123002381464FEA57171C921E9332
:1047A00054D02388A178E07894F804C094F805E008
:1047B0001A93A379A468BDF8AEB0CDF85CB09DF8AB
:1047C0008CB0CDF858B09DF88BB0CDF854B09DF8B2
:1047D0008AB0CDF850B0CDE90EE39DF889B01A9BB0
:1047E000CDF84CB09DF888B0CDF848B0CDE909932C
:1047F000BDF886B01E9B2C9A1892CDE90C0C0B913B
:10480000CDE9104BCDE90773CDE90567CDE903A5E7
:104810001D9B02931C9B01931B9B0093114A124BFF
:104820001F991248FFF74EF9B8F1000F04D0104855
:104830004A464146FFF76AF938462FB0BDE8F08F87
:10484000DFF830A079E7002601278AE72346A6464D
:10485000A446204621461A94ADE700BF68390108F6
:104860000070FF1F3D060108280601084A060108DE
:104870009D0801081C0601082DE9F04F2DED028B63
:10488000C04CC14A217BC14BADF5805D83B000298E
:1048900008BF1A464A92FFF7A9F8002801F0B38131
:1048A000C36849934FF0010B94ED2E0A64A8FFF7FB
:1048B00065FE94ED040A1422E4A90520FFF744F9EB
:1048C00094ED050A1422E9A90520FFF73DF994EDBE
:1048D000060A18220DF5A4610320FFF735F994EDBF
:1048E000070A1422F8A90520FFF72EF994ED080A0B
:1048F0001422FDA90520FFF727F994ED0E0A1422D2
:10490000EEA90520FFF720F994ED0F0A1422F3A970
:104910000520FFF719F994ED100A18220DF5A7618B
:104920000320FFF711F994ED110A14220DF58161AE
:104930000520FFF709F994ED120A14220DF21C412B
:104940000520FFF701F994ED0C0A14220DF586619C
:104950000320FFF7F9F894ED160A14220DF24441F2
:104960000320FFF7F1F894ED1B0A14220DF58B617B
:104970000520FFF7E9F814220DF26C4194ED1C0AB2
:104980000520FFF7E1F8824B94F8EC16814A0029E4
:1049900018BF1A4694F88F304E92002B01F03881E0
:1049A0007D4968A809F0F6FD7B496CA809F0F2FD85
:1049B000794962A809F0EEFD94F8A430002B01F0CB
:1049C0003E81D4F8A030754A102170A809F0DEFCB1
:1049D00094F88C30002B41F0388194F88E30704D73
:1049E000002B01F036816A4E6E4B94F8A402D3F886
:1049F000102A4C92D3F8142AD3F8183A4F93B4F8EB
:104A000030325093B4F832325193B4F83432529376
:104A100063685393A368549394F82833559394F898
:104A2000C8334D925693D4E92A23579394F8B03063
:104A3000589394F878325993FEF7FCFFD4F8A832D3
:104A40005B93D4F8AC325C93D4F8B0325D93D4F875
:104A5000B4325E93D4F8B8325F93D4F804336093E1
:104A6000002AD4F80833B4F8B2705A90619341F335
:104A7000F380D4F80C13D4F81003A1EB020EDEF18E
:104A8000000343EB0E034B93D4F81433464CA0EBD6
:104A90000208D8F10000A3EB020940EB0800B4F8CB
:104AA00058C5D9F1000343EB0903364C94F80D8047
:104AB00094F80E9094F86040032C96BFDFF808E15C
:104AC000DFF8F8E05EF824E070AC469462AC459400
:104AD0006CAC449468AC43942A4CD4F89C1042913A
:104AE00094F88FA0CDF804A1DFF8E0A0CDE93F6AEB
:104AF00094F88D60CDE93D562C4D3C95D4F8885006
:104B00003B95D4F884503A95D4F880503995E56FA8
:104B10003895A56E3795656ECDE935E5CDE93389D4
:104B2000CDE92D034B9B2C93619B2B9340F28E3050
:104B30000923CDE929301E4B2893609B27931D4BF9
:104B400026935F9B25935E9B24935D9B23935C9BA5
:104B500022935B9B184D21935A9B2093599B1F9343
:104B6000CDE931C5589B1E9364ADCDE92F75579B98
:104B7000124D1348CDE91C23074A1992114A189285
:104B80004E9A25E0D8100020D2080108D308010869
:104B9000A23801088B380108E3080108F808010869
:104BA000E60801080070FF1FD82000205F0F0108F1
:104BB000900F0108A80F0108760F0108C40501082D
:104BC000FF08010817030108A03901084E0F01086A
:104BD0001792B74A1692B74A1592569A1492B64A45
:104BE0001392559A1292B54A1192B54A1092B54A4B
:104BF0000F924A9A0E92549A0D92539A0C92529A8C
:104C00000B9206220A92519A0992509A00234FF46D
:104C1000B476CDE91A36CDE90732AB4B0693499B02
:104C200003934F9B02934D9B01934C9BA74A009388
:104C3000CDE904B5A64B0521FEF744FFB727B623FF
:104C4000CDE90237A34B01960093D4E90123052156
:104C5000A148FEF737FFD4E90167FEF7F9FDD4F864
:104C600090320F93D4F88C320E93D4F888320D938F
:104C7000D4F884320C93D4F880320B93D4F87C327D
:104C80000A93D4F89C320993D4F898320893D4F854
:104C9000943207934FF0280C0123CDE9053C8F4B4C
:104CA00003934A9B0490CDE90153499B8C480093A0
:104CB00032463B460521FEF705FFD4E9012394F86F
:104CC00060B04B93BBF1030F236D98BF854D4C93A0
:104CD000A36F94F834C0A17B94F82400A66A94F8DA
:104CE0004CE094F80D80A78D94F85CA0B4F8549033
:104CF00098BF55F82B5020930DF26C4B636FCDF895
:104D000078B00DF58B6BCDF874B01F93A36E1C9328
:104D1000636ECDF864A0CDE91A534C9BDFF8E8A18F
:104D20000DF24445CDE917950DF21C45CDE915E38B
:104D3000CDE90B061495FDA80DF5816513950A9034
:104D40000DF5A765F8A812950990F3AD0DF5A460CF
:104D500011950890EEADE9A8CDE90FC54A9B0790E3
:104D60000DF58665E4A8CDE90510CDE90D755E4920
:104D70005E4D0293499B5E48039101950093052186
:104D80004B9BCDF81080FEF79DFE44F6206340F269
:104D90001D72CDE9093202216023CDE9073140239C
:104DA0000693544B0593544B0493544B0393424B3B
:104DB0005348CDE90153499B0093D4E901230521D0
:104DC000FEF780FEAAF2CE534D934E4B4B93AAF2C0
:104DD000CE56B4234FF0000B4C935D46A6F6887474
:104DE000D4F8A8309D42C0F275870DF5AA62D4E9C7
:104DF000C801FFF774F8D4E9C801FCF7E9FE0DF526
:104E0000906105201422FEF79FFE63684B93A36810
:104E10004C93D4F804334F93D4F8BC325093D4F865
:104E2000C0325193D4F8C4325293D4F8C832539359
:104E3000D4F8CC325493D4F8D0325593D4F8D43239
:104E40005693D4F8D8325793D4F8DC325893D4F828
:104E5000E0325993D4F8E4325A93D4F8E8325B93B1
:104E6000D4F8EC325C93D4F8F0325D93D4F8A830E7
:104E7000002BD4E9BD67D4E9BFCED4E9C281D4E91F
:104E8000C405D4E9C69A41F37180A1EB030BDBF1B1
:104E9000000444EB0B04A0EB030BDBF1000242EB3C
:104EA0000B02A5EB030BDBF1000343EB0B032DE03F
:104EB000B90F0108E50F0108F50F010806100108F8
:104EC00012100108301001084C1001083D060108BD
:104ED00028060108FB10010852100108BA12010847
:104EE00018110108A0390108760F0108C40501084E
:104EF000D4120108231701082D17010843170108D0
:104F0000E31501089F3700202E2600200DF5906B39
:104F1000CDF888B00DF5AA6BCDE9203B5D9B1393CE
:104F20005C9B12935B9B11935A9B1093599B0F931D
:104F3000589B0E93579B0D93569B0C93559BCDE915
:104F40001E42CDE91A05CDE91881CDE91467CDE9F6
:104F50001C9ACDE916CE0B93549B0A93539B09934D
:104F6000529B0893519B0793509B06934F9B05932D
:104F7000C74B0493C74B03934A9B0293C64B0193C1
:104F8000499B0093C548C64EDDE94B230521FEF73A
:104F900099FD00250DF5D1692F4634460DF5E968D8
:104FA00096ED350A102249460420FEF7CDFD96ED18
:104FB000360A102208EB07110420FEF7C5FD96F80B
:104FC000DC3013B10123BB401D4301370C2F06F128
:104FD000180609F11009E3D194ED7D0A102274A995
:104FE0000420FEF7B1FD94ED7E0A102278A904207A
:104FF000FEF7AAFD94ED830A10227CA90420FEF797
:10500000A3FD94ED840A102280A90420FEF79CFDE4
:1050100094ED890A102284A90420FEF795FD94EDF1
:105020008A0A102288A90420FEF78EFD94F8143213
:1050300094F8FC2194ED300A5B0343EA02332B43DE
:1050400010228CA904204B93FEF77EFD94ED310ACB
:10505000102290A90420FEF777FD94ED900A10220B
:1050600094A90420FEF770FD94ED910A102298A9EE
:105070000420FEF769FD94ED920A10229CA90420F9
:10508000FEF762FD94ED930A1022A0A90420FEF71A
:105090005BFD94ED940A1022A4A90420FEF754FDB0
:1050A00094ED960A1022A8A90420FEF74DFD94ED78
:1050B000970A1022ACA90420FEF746FD0DF53478BE
:1050C00094ED980A1022B0A90420FEF73DFD0DF5DD
:1050D0003879414694ED9A0A10220420FEF734FDF7
:1050E0000DF53C7A494694ED9B0A10220420FEF708
:1050F0002BFD0DF5407B94ED9C0A102251460420B7
:10510000FEF722FDC4AD94ED9D0A102259460420FD
:10511000FEF71AFDC8AE294694ED8E0A102204202F
:10512000FEF712FD314694ED8F0A10220420FEF79F
:105130000BFD5C4BCCAF93ED000A394610220420E6
:10514000FEF702FD574B93ED000AF6EE007A20EED3
:10515000270AD0A910220420FEF7F6FCD4F8A032CA
:10516000CDF8F4A0CDE93EB394F87832CDF8E880DC
:10517000CDE93B93D0A9B0ABCDE938713793ACAB57
:105180003693A8AB359394F864323493A4AB33933D
:10519000A0AB32939CAB319398AB309394AB2F93ED
:1051A00094F854322C95CDE92D6394F837322B9333
:1051B0004B9B2A9394F83632299388AB289384AB7F
:1051C0002793B4F83432269306232593B4F8323269
:1051D0002493B4F83032239380AB22937CAB219399
:1051E00078AB209374AB1F930DF5FF631E930DF501
:1051F000FD631D930DF5FB631C930DF5F9631B9384
:105200000DF5F7631A930DF5F56319930DF5F36337
:1052100018930DF5F16317930DF5EF6316930DF5E4
:10522000ED6315930DF5EB6314930DF5E96313939B
:105230000DF5E76312930DF5E56311930DF5E36347
:1052400010930DF5E1630F930DF5DF630E930DF5EC
:10525000DD630D930DF5DB630C930DF5D9630B93B3
:105260000DF5D7630A930DF5D56309930DF5D36357
:1052700008930DF5D163079390AB06938CAB059320
:10528000D4F8AC300493D4F8A83003930CE000BFFA
:10529000A80F0108900F0108C405010801190108B1
:1052A000D81000204C2000204A9B0293C24B01934F
:1052B000499B0093D4E90123C04805210DF2944590
:1052C000FEF700FC0DF5956694EDDE0A14222946E2
:1052D0000520FEF739FC0DF2BC4794EDDF0A1422DD
:1052E00031460520FEF730FC0DF59A6894EDE00A92
:1052F000142239460520FEF727FC0DF2E44994ED0F
:10530000E10A142241460520FEF71EFC94EDE20A54
:10531000142249460520FEF717FC94EDE30A1422F7
:105320000DF59F610520FEF70FFC94EDE40A1422B1
:105330000DF20C510520FEF707FCD4F83433002B96
:1053400040F31986D4E9DA010DF5AD62FEF7C7FD29
:105350000DF5B36200200021FEF7C1FD984C94F8D2
:105360002A33002B00F01386D4E9DC010DF5B0627E
:10537000FEF7B5FD4E9B1E93924B1D93D4F86433FC
:105380001C93D4F860331B93D4F85C331A93D4F88D
:1053900058331993D4F854331893D4F850331793DF
:1053A000D4F84C331693D4F848331593D4F84433D7
:1053B0001493D4F840331393D4F83C331293D4F8B5
:1053C00034331193D4F8303310930DF20C530F9300
:1053D0000DF59F630E9394F82B337B48CDE90C9326
:1053E0000DF5B0630B930DF5B3630A930DF5AD6343
:1053F000CDE90883CDE906670595D4F838330493E1
:1054000094F82A330393714B02936B4B0193499B9E
:105410000093D4E901230521FEF754FBD4F894331B
:10542000002B40F0D1856A4C6A4D04F54078A4F514
:1054300076792378002B00F0A1806378002B00F0B0
:105440002B86D4E918010DF5CB62FEF748FDD4E9AF
:1054500006010DF5CE62FEF742FDD4E908010DF616
:105460000802FEF73CFD0DF60842D4E90A01FEF7FA
:1054700036FDD4E90601FBF791F8574B0022FBF704
:10548000BBF8564B0022FBF7B7F8FBF785FB14225D
:1054900000EE100A0DF5C2610520FEF755FBD4E9B8
:1054A0000801FCF795FB14220DF5C5610520FEF7F8
:1054B0004BFBD4E90A01FCF78BFB14220DF5C86104
:1054C0000520FEF741FBD9E901234B932B68549348
:1054D00023694C9363684E93A3684F93E36850939A
:1054E000D4E923735193D4F89430A0785293D4F82C
:1054F00098305393FEF79EFA6378D4E927ABD4E94A
:105500002161CDE91903539BCDF858A0CDE917B31C
:10551000529B1593519B3248CDE913730DF5C86327
:1055200010930DF60843CDE911160F930DF5C563E1
:105530000E930DF608030D930DF5C2630C930DF554
:10554000CE630B930DF5CB630A93509B09934F9B4E
:1055500008934E9B07934C9B06934FF4B4730593AB
:10556000549B04931F4B03934A9B0293124B01934A
:10557000499B009305214B9BFEF7A4FAC034A0453C
:1055800005F104057FF455AF0D4C94F8C85394F819
:10559000CA63D4F8D47394F8CC03002D00F0A1852D
:1055A000002E00F0A185042F40F09E850E490F4B80
:1055B000002818BF19461BE0C4050108501C01084B
:1055C000D8100020B90F010863210108F50F010868
:1055D000B0140020D8390108008076400000F03D6A
:1055E000F0240108E50F0108303801082E380108C1
:1055F000FEF720FAD4E90128D4F8D093CDE90B01C5
:1056000094F8CB33CDF82090CDE909730423CDE98C
:10561000066394F8C933D748CDE90453D64B0393B6
:105620004A9BD64D0293D64B0193499B00932E463D
:1056300043460521FEF746FAF6E804010DF5B66289
:10564000FEF74DFC56E902010DF5B962FEF747FC85
:10565000D6E900010DF5BC62FEF741FCD5E9080171
:105660000DF5BF62FEF73BFCD5E90A010DF5C262FC
:10567000FEF735FCD5E90C010DF5C562FEF72FFCF0
:10568000D5E910010DF5C862FEF729FCD5E9120134
:105690000DF5CB62FEF723FCD5E93E010DF5CE6298
:1056A000FEF71DFCD5E940010DF60802FEF717FCD8
:1056B000D5E942010DF60842FEF711FCD4F818278F
:1056C000D4F89437D4F82017D4F82407D4F82857FE
:1056D000D4F888681344D4F878281344D4F8902870
:1056E0001344D4F848271344D4F860271344D4F85B
:1056F0009C270A44D4F880180A44D4F898180A441D
:10570000D4F850170A44D4F8681702EB0108D4F80B
:10571000A0170144D4F884080144D4F89C0801443B
:10572000D4F854070144D4F86C070144D4F8A40712
:1057300005443544D4F8A068D4F8A8073544D4F813
:1057400058673544D4F870673544D4F82C67871906
:10575000D4F88C6894F8D8063744D4F8A468374451
:10576000D4F85C6700F1FF3E3744D4F87467DEF18B
:10577000000B37444BEB0E0BD4E901260728D4F875
:1057800000484C9496BF7F4CDFF8F4C154F820C019
:105790007D4C4B96D4F8C8074E90D4F8E8074F904C
:1057A00094F8D906002800F0A28494F8DC060328B7
:1057B00000F2A084754E56F8200094F8DB66002EA7
:1057C00000F09B8494F8DE46032C00F299846F4E1F
:1057D00056F824606C4C94F878E7BEF1000F00F0A6
:1057E000928494F879E7BEF1030F00F29084DFF819
:1057F0009C9159F82EE094F87498B9F1000F00F0DC
:105800008A8494F87548032C00F28984DFF87C912F
:1058100059F824905C4C94F8ECA6CDF87CA094F850
:10582000EBA6CDE91B15CDE91D7ACDE91938D4F8E1
:10583000C03818930DF5CE63CDE914930DF5CB6305
:1058400010930DF5C8630F934F9B0E930DF5BF6337
:105850000B934E9B0A930DF5BC6309930DF5B96349
:105860000DF608070DF6084508930DF5C5680DF50A
:10587000B6630DF5C269CDE9126ECDE906C3169780
:105880001190CDF814B01795CDF83480CDF8309044
:105890004C9B04933E4B03934A9B394E0293499B86
:1058A0003C48009305214B9B0196FEF70BF93A46C5
:1058B00094F8C41804F6C800FEF759FB94F8081AC7
:1058C0002A4604F52160FEF752FB039794F8C4388A
:1058D0003148CDE90163499B0093D4E901230521B7
:1058E000FEF7F0F8039594F8083A2C48CDE90163E7
:1058F000499B0093D4E901230521FEF7E3F804F660
:10590000993B04F53A6A00271BF8011F013789B15A
:105910002A465046FEF72BFB04959BF80030019673
:10592000CDE90273499B0093D4E901231C4805216A
:10593000FEF7C8F8032F0AF5A07AE5D1D4E90123D0
:1059400094F82C034B93D4E9CCB7FEF773F81549C0
:1059500094F82AE3144B94F829A3BEF1000F18BF62
:105960001946499B0093CDE90501CDE903B7CDE97F
:10597000016A1BE011270108E50F010888180020C3
:10598000C405010870390108D810002090390108B9
:10599000B90F01081B280108712B0108F22B01081F
:1059A000732C01082E380108303801084B9BAD4894
:1059B0000521FEF787F8277B002F40F0E68094F85A
:1059C000B030002B00F0DC8394F88D30002B00F019
:1059D000DC80D4AEB4F8B410A348D4F800A09FED96
:1059E000A38AFEF793F894ED2E0A3046FEF7C6FD23
:1059F00031469F48FEF78AF800963346D4F8BC201B
:105A0000B4F8B2109B48FEF781F80AF10106D4F809
:105A1000A8309F42C0F28783974F0093D4F8603F2D
:105A2000964832466421FEF771F8B7EC010A0DF58D
:105A30005C7AD8A8FEF7A2FD97ED000A5046FEF763
:105A40009DFDCDF804A0B4F86E3F0093B4F86C2F20
:105A50008B48D8AB3146FEF759F80120FEF740FCE1
:105A600082460620FEF73CFC0746BAF1000F00F024
:105A70007B839AED030AE0A8FEF780FDBAF1000FE0
:105A800000F075839AED040A0DF5B660FEF776FD19
:105A90007C480DF5B663E0AA3146FEF737F8002FD3
:105AA00000F0688397ED030A0DF5B960FEF766FD17
:105AB000002F00F0628397ED040A734F0DF5BC6070
:105AC000FEF75CFD0DF5BC630DF5B96231466F481C
:105AD000FEF71CF894ED8E0A0DF5BF60FEF74EFD43
